:100000000C9496000C94F01A0C94BE000C94AE1B49
:100010000C94E11B0C94141C0C94861C0C94BE00D4
:100020000C94BE000C94BE000C94BE000C94BE0058
:100030000C94BE000C94BE000C94301B0C94BE00BB
:100040000C94B2240C94BE000C9424230C945623DC
:100050000C94BE000C94BE000C94BE000C94BE0028
:100060000C94BE000C94BE004D61696E0A00020A39
:100070000B0C151830323435565758590102030409
:1000800005060708090A0B0C0D0E0F1011121314A8
:10009000151617191A2627282981828384858687B1
:1000A00088898A8B8C8D8E8F909192939495969758
:1000B000999AA6A7A8A922006720410100002E0155
:1000C0002E0206030D04E905CA063D070C0B060DBA
:1000D000210E650F6A10C81193120315341601170B
:1000E00030181819161B432156250026112D353EB0
:1000F000C320207265706561746564206D657373DB
:100100006167650A003E200052562E0A00202074C6
:10011000696D6564206F7574003C2D20003C69207A
:1001200000534E2E0A005401061D862311241FBEC3
:10013000CFEFD8E0DEBFCDBF14E0A0E0B1E0EEED40
:10014000FCE402C005900D92A832B107D9F726E071
:10015000A8E2B4E001C01D92A439B207E1F711E0B2
:10016000CCE2D1E004C02297FE010E949D25C63258
:10017000D107C9F70E94CA230C946D260C94000085
:100180002FEF829FC001112468EC70E00E94372598
:100190006093B400089563E671E08EEE95E00E94EE
:1001A0003C24E4E6F0E080818F7B8083539AE1EB8E
:1001B000F0E08081826080831092B400E0EBF0E098
:1001C00080818062808308950F931F930E94921A0A
:1001D00068E670E08EEE95E00E94172410927A0097
:1001E000E4E6F0E080818F6E80831AB817B814B807
:1001F0001BB818B815B880818B7F808380818F7D74
:10020000808380818D7F8083549A569A2098289A83
:10021000E8E6F0E0808181608083EBE6F0E08081B9
:10022000816080833898409882EA94E00E94CF01F0
:1002300020E040E062E08AEE94E00E94B70C42EADF
:1002400054E062E08FEE94E00E94062169E070E0E5
:100250008FEE94E00E940B2160E086EF94E00E9414
:10026000321D00E81EEE26E330E04BE161E08CEF4A
:1002700094E00E947A0A22EA34E043E061E089E2F5
:1002800094E00E94A11320E040EC50E06BEC70E0A1
:1002900089E294E00E94D30D78941F910F91089504
:1002A00082EA94E00C948D0589E695E0FC0137968E
:1002B0001182108213821282158214820D9625E01B
:1002C0008039920799F782EA94E00C94A1018EEEAE
:1002D00095E00E94E321892B99F18EEE95E00E9432
:1002E000FE218A3039F4109228049091E70491603D
:1002F0009093E7049FE9980F963010F4875509C052
:100300009FEB980F963010F4875303C080538A30C8
:10031000F0F690912804292F2695E091E504F091BC
:10032000E604E20FF11D90FD04C08295807F80837A
:1003300003C02081282B20839F5F90932804C7CF80
:100340000895CF93DF93EC010E948514CE010196AE
:100350000E943F1FCE018A5B9F4F0E94FB1ECE0171
:10036000885B9F4F0E94C00CCE01835B9F4F0E9411
:100370000521CE018C5A9F4F0E94141DCE01895A2F
:100380009F4F0E94C80ACE01865A9F4F0E948B0A37
:10039000CE018D599F4FDF91CF910C94BF1DCF930C
:1003A000DF93EC010E941917CE01895A9F4F0E94DA
:1003B000660CBE01CE0101960E94401FBE01CE0117
:1003C0008D599F4F0E94C01DBE01CE018A5B9F4F79
:1003D0000E94FC1EBE01CE01885B9F4F0E94C10C93
:1003E000BE01CE018C5A9F4F0E94151DBE01CE0149
:1003F000865A9F4F0E948C0A0E94FF1AE89ADF914A
:10040000CF910895FC018AE08783DF01AC59BF4F8B
:100410008C91808782E08287209150013091510138
:100420004091520123873487458713962D913D9142
:100430004C9126873787408B118AEB5BFF4F808179
:10044000816080830895CF92DF92EF920F931F9384
:10045000CF93DF931F92CDB7DEB78C018EE0F8010A
:100460008783EC59FF4F8081F801808791859F7DBC
:10047000918782E08287C0905001D0905101E09036
:100480005201C386D486E586E959FF4FC080D180EA
:10049000E280F801C686D786E08A81E0818B628B94
:1004A000438BC801865A9F4F29830E94C40AF0E8F3
:1004B0008F9FC00111242981822BF801848BE85A77
:1004C000FF4F8081F801858BEB5BFF4F808181605E
:1004D00080830F90DF91CF911F910F91EF90DF906C
:1004E000CF900895FC018AE08783DF01AD59BF4FAB
:1004F0008C91808782E08287209150013091510158
:100500004091520123873487458714962D913D9160
:100510004C9126873787408B80E8818BEB5BFF4FC0
:100520008081816080830895CF92DF92EF92FC01F9
:100530008EE08783DF01AA59BF4F8C91813039F457
:1005400018968C918E3019F41A978C9104C0818181
:1005500091E0980F9183808781858062818780E117
:100560008287C0905001D0905101E0905201C38623
:10057000D486E586C090B605D090B705E090B80562
:10058000C686D786E08A86E0818B628B438B248B7C
:10059000DF01A85ABF4F8C91858BEB5BFF4F8081A9
:1005A00081608083EF90DF90CF9008956F927F926B
:1005B0008F929F92AF92BF92CF92DF92EF92FF9273
:1005C0000F93CF93DF9300D000D0CDB7DEB77C017F
:1005D0005C0125E4A20EB11CD5018C9180FD4FC1B8
:1005E0004701BCEB8B0E911CF4018081811107C087
:1005F00032976081C7010E94B214D4018C936701C5
:10060000BBEBCB0ED11CF6014081D4018C91369707
:100610004F014817B8F09081892F86958F5F8770BA
:10062000282F220F917F922B908390E003970CF05C
:100630001AC168E0C70183549F4F0E948918811135
:1006400012C11BC1842F90E04423F9F0D5012C91F5
:1006500021FD1BC0BC01615071099B01E3E0359590
:100660002795EA95E1F72E0D3F1DF901E354FF4F61
:100670006770772721E030E0062E01C0220F0A9430
:10068000EAF72095308123232083F40130813E70E6
:10069000542F5770311115C09C0173E03595279583
:1006A0007A95E1F72E0D3F1DF901E354FF4F21E04C
:1006B00030E0052E01C0220F0A94EAF73081322B78
:1006C000308363E0959587956A95E1F78E0D9F1DC0
:1006D000FC01E354FF4F21E030E08081882311F0DA
:1006E00020E030E002C0359527955A95E2F7232B9C
:1006F00019F04F5FD6012EC03701BAEB6B0E711C9B
:100700009E012F5F3F4FF3016081C7010E949F143C
:1007100064E0CE0101960E9489188823E9F0D60191
:100720004C91842F90E053E0959587955A95E1F789
:100730008E0D9F1DFC01E354FF4F842F877021E035
:1007400030E001C0220F8A95EAF7209580812823A6
:1007500020834F5F4C9393C001E0F601208144E079
:10076000D3016C91C7010E947315E82FF0E08081DE
:10077000D701AB53BF4F8C93B70167547F4FFB0139
:100780008081875FF7018783818180878185F4017C
:10079000908195FB992790F9846090FB85F99C9155
:1007A00090FB84F9D70119968C931997AA54BF4FDF
:1007B0008C91F70182878091500190915101A09115
:1007C000520183879487A58729813A814B812687A7
:1007D0003787408B4701B3E48B0E911CF401808175
:1007E0009181DB014C9150E0EC58FF4F60817181A9
:1007F0000A960E941526C701865A9F4F0E94C40A76
:10080000D401ED91FC91B0E88B9FC00111242285A9
:10081000822B828781E0F7018383D5018C918160EF
:100820008C93818585FD1AC0F6012081822F90E08E
:1008300033E0959587953A95E1F78E0D9F1DFC0164
:10084000E354FF4F822F877021E030E001C0220F78
:100850008A95EAF72095808128232083D6018C9100
:100860008F5F8C930CC0F70181818F5F818380E162
:10087000D4011D928A95E9F702C0F60110820F900B
:100880000F900F900F90DF91CF910F91FF90EF900D
:10089000DF90CF90BF90AF909F908F907F906F90A0
:1008A0000895CF93DF93EC0184E18F83FE01ED592E
:1008B000FF4F8081888780E18A87209150013091A5
:1008C0005101409152012B873C874D8734962081FE
:1008D000318142812E873F87488B198AB497A08146
:1008E000B1811B968AE0E6E4F1E001900D928A95D1
:1008F000E1F7CB5BDF4F888181608883DF91CF9107
:100900000895FC01665F6783DC01AF54BF4F8C9193
:1009100091E0980F9C93808781858062818780E138
:1009200082872091500130915101409152012387DB
:100930003487458711962D913D914C9126873787B5
:10094000408B81E0818BEB5BFF4F808181608083F6
:100950000895FC01665F6783DC01AF54BF4F8C9143
:1009600091E0980F9C93808781858062818780E1E8
:10097000828720915001309151014091520123878B
:100980003487458711962D913D914C912687378765
:10099000408B82E0818BEB5BFF4F808181608083A5
:1009A0000895AF92BF92CF92DF92EF92FF920F9392
:1009B000CF93DF93EC01FC01EB5BFF4F808180FD67
:1009C00049C05E012BEAA20EB11CF50180819E0197
:1009D00023553F4F690181FF12C0E856F10920817C
:1009E0003181255F3F4FF601408131966081CE0114
:1009F0000E942E1A682FCE010E9481041BC082FF24
:100A00001DC0FE01ED5BFF4FE080F180FBE0EF0ECB
:100A1000F11CF9010081FE01E055FF4F2081319763
:100A2000408131976081CE010E940316682FCE016C
:100A30000E94A904F60180818F5F8083C455DF4F37
:100A4000F60190818881981305C08AE0F501119222
:100A50008A95E9F7DF91CF910F91FF90EF90DF90AA
:100A6000CF90BF90AF900895FB01918186E78927D1
:100A7000818382E02081A82FB0E0AE0FBF1F8217D4
:100A800038F42C91945292279C938F5F922FF2CF3F
:100A90008C91928189278C930895FB01218186E7AF
:100AA00028272183428132E05081832F90E035173F
:100AB00048F4DF01A80FB91F24528C9128272C93EA
:100AC0003F5FF2CFE80FF91F80818427808308956C
:100AD0000F931F93CF93DF93EC0188818823B9F0A4
:100AE0000E94081B0D811E812F813885601B710BB0
:100AF000820B930B09811A812B813C81601771074E
:100B00008207930710F0188202C080E001C081E0E4
:100B1000DF91CF911F910F910895EF92FF920F9364
:100B20001F93CF93DF93EC010E94E61A8E010D55BF
:100B30001F4F882391F0D8016D917C91CE01895A85
:100B40009F4F0E94CD0BF80160817181DB018C9178
:100B5000882319F0CE010E943405D801ED91FC9153
:100B60008081882329F0CE018D599F4F0E94DB1D83
:100B7000FE01EB5BFF4F808180FF04C0CE01019638
:100B80000E945B1FFE01E555FF4F808180FF03C07F
:100B9000CE010E94D104FE01EB54FF4F808180FF03
:100BA00003C0CE010E94D6028E0109551F4FF801E5
:100BB000808180FF0AC08BE995E00E946805882348
:100BC00021F0D8018C918E7F8C937E01B6ECEB0ED8
:100BD000F11CF70180818E01035B1F4F80FF19C05C
:100BE00082E995E00E946805882399F0D7018C91ED
:100BF0008E7F8C9363E086EB95E00E9489188823B2
:100C000019F063E070E002C062E070E0C8010E9489
:100C10000B21CE018A5B9F4F0E94001FCE01885B93
:100C20009F4F0E94550DC8010E946621CE01865A31
:100C30009F4F0E94970ACE018C5A9F4FDF91CF9110
:100C40001F910F91FF90EF900C94401DCF92DF9277
:100C5000EF92FF92CF93DF93EC016A017B0181E079
:100C6000411551056105710509F480E088838823E9
:100C700051F00E94081B6D837E838F839887C98201
:100C8000DA82EB82FC82DF91CF91FF90EF90DF90D0
:100C9000CF9008950F931F93CF93DF93EC01FC0146
:100CA000EA59FF4F8081813039F4389680818A304B
:100CB00019F43B97808104C0898191E0980F998352
:100CC0009AE19F83888789858460898763E086EBC2
:100CD00095E00E948918811103C089858062898707
:100CE0001A862091500130915101409152012B8779
:100CF0003C874D872091B6053091B7054091B805E6
:100D00002E873F87488B60910C0170910D018E01F9
:100D10000D5B1F4FF8018081918143E050E00A96FE
:100D20000E94FF25F801A081B1811D968AE0E6E4CA
:100D3000F1E001900D928A95E1F760910C017091BC
:100D40000D016D5F7F4FF8018081918144E050E09B
:100D500047960E94FF25FE01EB5BFF4F808181607B
:100D60008083EF57FF4F80818160808340E25EE4A3
:100D700060E070E082E995E00E94260661E070E0A4
:100D8000CE01835B9F4FDF91CF911F910F910C9408
:100D90000B210F931F93CF93DF93FC018081882356
:100DA00061F0C181D281058116810E94081B9801E2
:100DB0002C0F3D1F261B370B02C020E030E0C9017D
:100DC000DF91CF911F910F9108951F93CF93DF93E0
:100DD000CDB7DEB760970FB6F894DEBF0FBECDBFBC
:100DE000182F80E1E3E5F1E0DE01119601900D920C
:100DF0008A95E1F7212F2F7130E0A4E6B0E00E9440
:100E000081259B01AC01E12FF0E0A5E0F595E79588
:100E1000AA95E1F7EE0FFF1F81E090E08C0F9D1F78
:100E2000E80FF91FA081B1810E94902560960FB64E
:100E3000F894DEBF0FBECDBFDF91CF911F91089513
:100E4000CF92DF92EF92FF920F931F933E2DFC0102
:100E5000A081B181C280D380E480F580C7019595DF
:100E60008795E0FE0CC0FD01E80FF91F0190F081AD
:100E7000E02DEC0DFD1D0190F081E02D01C0F6018B
:100E8000E32E8A0F9B1F09951F910F91FF90EF9002
:100E9000DF90CF9008958F929F92AF92BF92CF92A2
:100EA000DF92EF92FF920F931F93CF93DF93EC01AA
:100EB0006C0126E6C20ED11CD6012C91222309F426
:100EC0000CC3213009F018C24C01BEE68B0E911CF8
:100ED000F4018081813009F059C07E01F3EAEF0E00
:100EE000F11CD7014D915C91445F5F4F8E01035916
:100EF0001F4FF8016081CE010E940C18D7014D915F
:100F00005C91445F5F4FF8016081CE010E945219ED
:100F10009E012B593F4F5901882329F1D8014C914B
:100F2000242F30E0215031095DE0529FC001539FD2
:100F3000900D1124FC01E759FA4F2081222379F00A
:100F4000F70100811181015F1F4F64E0E62ED4019B
:100F50002C91F601608180599A4F0E942007F5017B
:100F6000808185FD55C1D5018C9185FFB6C2CE012A
:100F7000DF91CF911F910F91FF90EF90DF90CF9075
:100F8000BF90AF909F908F900C947202823069F462
:100F9000FE01ED55FF4F40815181445F5F4FF69751
:100FA0006081CE010E940C182DC1833019F58E018D
:100FB00003591F4FF8016081CE010E942D19FE01D7
:100FC000E455FF4F80833596DE01AC59BF4F8C91BD
:100FD0008083319613962D913D914C9120833183DE
:100FE00042833497D8018C918083C555DF4F888127
:100FF00082605CC0843009F062C07E01B3EAEB0E0F
:10100000F11CF70140815181445F5F4F6E01FDE6A5
:10101000CF0ED11CD6016C91CE010E949C178E017F
:1010200000551F4FF8018083D701ED91FC91408955
:10103000F6016081CE010E94EA15FE01E455FF4FE2
:1010400080839E012F543F4FCE018C599F4FDC016E
:101050008C91D9018C93BE016E547F4FCE0189597A
:101060009F4FDC012D913D914C91DB012D933D93E0
:101070004C939E0122553F4FD6018C91D9018C9300
:10108000D7018D919C91DC0150968C91DE01A15588
:10109000BF4F8C93C555DF4F888184608883D8010A
:1010A0009C919F3F31F09081992319F08160888352
:1010B00014C28AE0FE0111928A95E9F70EC28530CA
:1010C00089F58E010D551F4FD8014D915C91445FFC
:1010D0005F4F7E01BDE6EB0EF11CF7016081CE0192
:1010E0000E949C17FE01E655FF4F8083D7019C911B
:1010F00032979083D801ED91FC919089FE01E755DC
:10110000FF4F90838F3F09F47DC0329780818160CB
:10111000808340E25EE460E070E08BE995E00E944D
:10112000260670C0863009F04CC0FE01E955FF4F1D
:1011300080818E7F80837E01B8EAEB0EF11CF7017F
:101140008081811107C032968081811103C0CE0158
:101150000E94C815D7012C91222309F453C0822F75
:1011600090E001973DE0389FF001399FF00D112488
:10117000E759FA4F8081882309F444C0213059F49B
:1011800003811481FE01E655FF4F208141E061E0BB
:10119000CE010E940715F701208130E0215031096E
:1011A0004DE0429FC001439F900D1124E12C00E0CF
:1011B00010E026E040E061E080599A4F0E9420074D
:1011C00021C08830A1F5FE01E955FF4F808180FFE5
:1011D00019C031966081FB978081681313C0F69621
:1011E0000190F081E02D7F012CE0E20EF11C0081E6
:1011F0000A50FE01E655FF4F208131974081CE0114
:101200000E948E16FE01EB59FF4F808185FF65C15C
:10121000CE01DF91CF911F910F91FF90EF90DF9062
:10122000CF90BF90AF909F908F900C940202893026
:1012300079F4CE01DF91CF911F910F91FF90EF9044
:10124000DF90CF90BF90AF909F908F900C945104FF
:101250008A30E9F4FE01ED55FF4F808191814AE02B
:1012600066E471E00C960E948717882309F435C163
:10127000CE01DF91CF911F910F91FF90EF90DF9002
:10128000CF90BF90AF909F908F900C944A068E3075
:1012900009F023C1FE01E359FF4F6081262F30E0A2
:1012A000215031094DE0429FC001439F900D112410
:1012B000FC01E759FA4F2081222369F0FE01ED5924
:1012C000FF4F20812B508E0101591F4FE22E2EE03F
:1012D000462F61E0FEC020E040E0CE01DF91CF91DB
:1012E0001F910F91FF90EF90DF90CF90BF90AF9044
:1012F0009F908F900C949402223009F042C0FC0120
:10130000E359FF4F808181110CC0B897808180FF25
:10131000E4C07F9690818C819813DFC08FEF8A8321
:10132000DCC0813041F4FE01EB5BFF4F808180FF28
:10133000D4C07E96EFCF823009F4CFC0843009F458
:10134000CCC0803809F0C9C02093900580919105E8
:101350008F5F80939105FE01E954FF4F80E995E08E
:101360009183808332962083319681E08083359704
:101370008081CA54DF4F90E49883806381608083CA
:10138000ACC0213109F061C0FC01E359FF4F8081FD
:10139000823011F531962081422F50E041505109A1
:1013A0003DE0349FC001359F900D1124FC01E759A9
:1013B000FA4F3081332309F490C0FE01ED59FF4FFD
:1013C00030813B50CD55DF4F08811981045F1F4F9D
:1013D000E32E42E061E17DC0843009F07EC0FE0171
:1013E000E259FF4F8081811178C0CE010E9486149E
:1013F000CE010E94C014CE010E94C81568E070E0C2
:10140000CE01835B9F4F0E940B2143E061E0CE0140
:101410000E94F314FE01EB59FF4F908195FF5DC0D0
:101420008F3F09F4F5CE20E040E060E0CE01DF918F
:10143000CF911F910F91FF90EF90DF90CF90BF90D1
:10144000AF909F908F900C942302223109F445C0F5
:101450002E3308F442C08C0101561F4FB8010E9480
:10146000ED17982E8823C9F1282F30E0215031093B
:101470008DE0829F5001839FB00C1124C5018759D4
:101480009A4F7C01DC018C91882309F4C1CEA8011C
:10149000692DCE010E949C17F70105811681282F26
:1014A0004181692DCE010E940715FE01ED59FF4FC4
:1014B00080818950E05CFF4F00811181065F1F4FE2
:1014C000F597C359DF4FE82E20814881D6016C91F2
:1014D000C50180599A4F0E942007DF91CF911F913B
:1014E0000F91FF90EF90DF90CF90BF90AF909F90C3
:1014F0008F9008950F931F93FC016370660F848192
:10150000897F862B848305831683278330874283D4
:101510001F910F9108950895FC0171836083848168
:10152000897F848315821682178210860895CF934F
:10153000DF93EC0184EA95E00E946805882309F1B5
:101540008C818670F1F0823019F40E94E31C04C093
:10155000843019F40E94F21C8B8391E02B818A81E4
:10156000281708F090E08C8190FB80F98C834D81E6
:101570005E816F81788584EA95E0DF91CF910C944C
:101580002606DF91CF910895FC0184818170089532
:101590000895862F2A982C99FECF0E94E01A2A9A45
:1015A0000895CF93DF93EC0166E30E94C90A6AE3D2
:1015B000CE010E94C90A69E3CE01DF91CF910C945C
:1015C000C90AEF92FF920F931F93CF93DF9300D03E
:1015D000CDB7DEB7122F2A982C99FECF842F806CBE
:1015E00069837A830E94E01A6981062FE62E7A8148
:1015F000F72E8E2D801B811738F480E00E94E01AB0
:10160000F70181937F01F5CF2A9A0F900F90DF9118
:10161000CF911F910F91FF90EF900895EF92FF925D
:101620000F931F93CF93DF9300D0CDB7DEB7122F68
:101630002A982C99FECF862F806449835A830E9472
:10164000E01A4981042FE42E5A81F52E8E2D801B3D
:10165000811730F4F70181917F010E94E01AF6CFE3
:101660002A9A0F900F90DF91CF911F910F91FF90C9
:10167000EF9008952A982C99FECF862F842B0E94F4
:10168000E01A80E00E94E01A2A9A0895EF92FF92F1
:101690000F931F93CF93DF931F92CDB7DEB77C01DB
:1016A0008B0166E349830E94C90A6AE3C7010E946D
:1016B000C90A6BE3C7010E94C90A49814423C9F1E1
:1016C00065E3C7010E94C90A2FEF86E791E0215028
:1016D00080409040E1F700C00000EFEFF6E721E026
:1016E000E150F0402040E1F700C000008FEF96E7A6
:1016F000E1E081509040E040E1F700C00000FFEFE2
:1017000026E781E0F15020408040E1F700C0000072
:101710009FEFE6E7F1E09150E040F040E1F700C0D4
:1017200000002FEF86E791E0215080409040E1F7E4
:1017300004C0EFECF7E03197F1F700C00000F801CA
:1017400020812F5FA8016FE3C7010E940E0B6AE39F
:10175000C7010E94C90A65E3C7010E94C90A18ECC3
:1017600040EC65E3C7010E943A0B8D3069F040EC14
:1017700065E3C7010E943A0B833131F4FAE1FA952F
:10178000F1F700C0115061F781E00F90DF91CF9128
:101790001F910F91FF90EF9008950F931F93CF9398
:1017A000DF93EC018B0140EC6BE30E943A0B982F26
:1017B0009F7761F187FD2AC040E86FE3CE010E9468
:1017C0003A0BF80180838D3310F5282F4FE3B801D1
:1017D0006F5F7F4FCE010E94E10A40E86FE3CE01C8
:1017E0000E943A0B87FD8095898389818695885B65
:1017F000898340E86FE3CE010E943A0B982F9F77D0
:101800009A83881F8827881F888302C0F801108266
:101810006AE3CE010E94C90A66E3CE010E94C90AAA
:1018200064E3CE010E94C90A6CE3CE010E94C90A9A
:10183000F8018081DF91CF911F910F9108951F933F
:10184000CF93DF93EC012A982C99FECF2A9A18ECBB
:1018500040EC65E3CE010E943A0B8F3F31F064E328
:10186000CE010E94C90A18EC0DC08AE18A95F1F7F1
:1018700000C0115069F7F3CF9AE19A95F1F700C0D3
:10188000115041F040EC68E3CE010E943A0B982FD2
:10189000907591F386FB882780F9DF91CF911F9196
:1018A0000895CF93DF931F92CDB7DEB7862F2A9886
:1018B0002C99FECF49830E94E01A4981842F0E940F
:1018C000E01A2A9A0F90DF91CF9108950F931F93FA
:1018D000CF93DF93EC010E94D21A2A9A8DE08A9569
:1018E000F1F700002A989AE19A95F1F700C02A9A38
:1018F000EDE6EA95F1F7000060E3CE010E94C90A27
:101900008FE19EE40197F1F700C000000DEB10E0BD
:10191000F80131964491F8016491CE010E94510C76
:101920000E5F1F4FF0E0013F1F0791F763E3CE0109
:101930000E94C90A40EC65E3CE010E943A0B813057
:1019400029F082E08A95F1F700C0F4CF40EC6EE315
:10195000CE010E94510C64E3CE010E94C90A6CE3DF
:10196000CE01DF91CF911F910F910C94C90AFC0118
:1019700067708281887F862B8283438324830895C6
:101980000895FC01718360830895EF920F931F9374
:10199000CF93DF93EC01162F8881998164EF71E07A
:1019A0008C5A9F4F0E941C1D1130E1F58A81806482
:1019B0008A838770813021F4888199810E944A0648
:1019C0008A818770823009F06AC080916905882316
:1019D00009F465C0A0917005B09171054091720540
:1019E000509173056091740570917505CB019595C3
:1019F000879560FF0CC0FD01E80FF91F0190F08191
:101A0000E02DE40FF51F0190F081E02D01C0FA01F7
:101A1000E12C00E010E020E041E060E08A0F9B1F35
:101A200009953DC0123019F48A818F7B15C013309F
:101A300079F48A8180688A838770823081F5888111
:101A40009981DF91CF911F910F91EF900C944A06ED
:101A5000143021F48A8180648A8321C01530F9F41E
:101A60008A818F7B8F778A8308E120E040E060E005
:101A7000888199810E947315811111C08881998193
:101A80000E948614888199810E94C014888199815E
:101A9000DF91CF911F910F91EF900C94C815DF91BA
:101AA000CF911F910F91EF900895CF93DF93EC01A9
:101AB0008A81877009F474C06C818B810E94551BE8
:101AC0008770880F880F880F9A81977C982B9A834C
:101AD000987309F58DEA95E00E9468058823D9F08E
:101AE00048EB5BE060E070E08DEA95E00E9426063E
:101AF000888199816CEA7DE08C5A9F4F0E941C1D61
:101B00008A8187FF02C064E001C063E0CE01DF91FB
:101B1000CF910C94C50C8A818873883059F48DEA72
:101B200095E00E946805882329F08A818F7B8F7752
:101B30008A8336C08A81982F9873903169F448EB74
:101B40005BE060E070E08DEA95E00E942606888107
:101B500099816CEA7DE01EC0983111F5982F907C38
:101B6000903C11F465E007C086FF02C062E003C04C
:101B700087FD04C061E0CE010E94C50C48EE53E031
:101B800060E070E08DEA95E00E94260688819981E8
:101B90006CED75E08C5A9F4FDF91CF910C941C1D1A
:101BA000DF91CF910895EF92FF920F931F93CF9300
:101BB000DF931F92CDB7DEB78C012983F801EC5B70
:101BC000FF4F71836083329651834083222329F033
:101BD000CE010196329691838083FB01099586E6BA
:101BE000F801ED58FF4F808331961082BA978081BB
:101BF0008C7F82608083F8012581322F3F7184EFD2
:101C000091E0389F7001399FF00C1124207E59F02B
:101C10000E94EF25F801658162956695677070E016
:101C20000E944B2502C080E090E0A701480F591F99
:101C3000662757FD6095762FC801855B9F4F0E94F0
:101C400026060F90DF91CF911F910F91FF90EF909B
:101C50000895EF92FF920F931F93CF93DF93EC01C0
:101C60008A017901FC01EF58FF4F80818E7F8083CC
:101C700040E050E0BA01CE018C5A9F4F0E942606E8
:101C8000DE01A35ABF4F0115110559F0F8018081FB
:101C900090E0982F88272181822B11969C938E9318
:101CA00003C011961C921E92AE01415A5F4FE1147F
:101CB000F10459F0F701808190E0982F8827218165
:101CC000822BFA019183808303C0FA011182108272
:101CD0008D919C91CB58DF4F892B29F4FA0180819B
:101CE0009181892B19F080E4888301C01882DF91EB
:101CF000CF911F910F91FF90EF900895FC01EC5848
:101D0000FF4F3081383CE8F4DC01AE5BBF4F0D90F3
:101D1000BC91A02D56962C91230F293C08F028EC5D
:101D20002083FC01ED58FF4F2081207F236020831A
:101D3000719741E050E060E070E04083518362833E
:101D400073830895CF93DF93FC01EC58FF4F3081EC
:101D5000332319F1DC01AE5BBF4F0D90BC91A02D78
:101D600056962C915697231740F02083EC01CD58BE
:101D7000DF4F2881207F26602883208156963C9162
:101D8000231B2083FC01EE59FF4F41E050E060E04F
:101D900070E04083518362837383DF91CF91089514
:101DA000FC01EC58FF4F20813397211103C02081A3
:101DB000246004C0283C19F420812B7F20832081DB
:101DC00022FD0C947E0E0C94A20EAF92BF92CF9285
:101DD000DF92EF92FF920F931F93CF93DF93EC016B
:101DE000162FB42EFC01EF58FF4F80818E7F808329
:101DF0006E0124E5C20ED11C40E050E0BA01C601DC
:101E00000E942606FE01EE58FF4F112339F08EA5E1
:101E100085FD04C080818B1509F42BC1B082FE01C1
:101E2000112311F0B59601C038967E0182E4E80EC8
:101E3000F11CD701ED93FC9381858F708E010D58B5
:101E40001F4F882309F4B1C0813089F5D8018C91E6
:101E50008F70813029F483858295807F81600EC0E8
:101E6000823029F484858295807F82601AC0833015
:101E700039F482858295807F8360D8018C9313C06A
:101E8000843021F48385807F84600BC0853021F409
:101E90008485807F8560F1CF863029F48285807FBC
:101EA0008660F801808340E050E0BA0116C09EEFE2
:101EB000980F923008F479C0843099F4CE010E94D2
:101EC0007E0ED701ED91FC9186819FEF980F9E3F8A
:101ED000B0F40E94E506AB01BC01C6010E942606D3
:101EE00064C0853021F4CE010E94A20E05C0863068
:101EF00051F4CE010E94D00ED701ED91FC91818565
:101F0000807F818752C0873039F4CE018C589F4F33
:101F10006C01B0FE0AC023C0883009F046C0CE0173
:101F20008C589F4F6C01B0FE1AC08685D6019C91DB
:101F30008917D8F58C9383890E94E5065E01B2E685
:101F4000AB0EB11CF5016083718382839383D6014C
:101F50002C9130E0D701ED91FC91468519C0878521
:101F6000D6019C91981708F58C9382890E94E5060A
:101F70005E01B2E6AB0EB11CF50160837183828312
:101F80009383D6012C9130E0D701ED91FC914785E8
:101F9000241B3109442737FD4095542F0E945F25AB
:101FA000F5012083318342835383D701ED91FC9166
:101FB0008581DE01AB58BF4F811109C08781811136
:101FC00006C08289811103C08389882319F080E4C7
:101FD0008C9310C01C92D8018C91982F907D9031D9
:101FE00011F488EC04C0807F8032D9F380E0CC58B3
:101FF000DF4F8883D8018C91D82FD295DF70182FAE
:102000001F70C185CF706DE671E08EEE95E00E9485
:102010003C244AE050E06C2F8EEE95E00E94AB2409
:1020200061E771E08EEE95E00E943C244AE050E0CA
:10203000612F8EEE95E00E94AB2467E771E08EEE93
:1020400095E00E943C244AE050E06D2F8EEE95E032
:102050000E94AB246AE08EEE95E0DF91CF911F9154
:102060000F91FF90EF90DF90CF90BF90AF900C94C6
:102070003E24DF91CF911F910F91FF90EF90DF9061
:10208000CF90BF90AF90089566FF2CC0FC01B5962D
:1020900061E0DC01AE5BBF4F1196FC93EE93D196ED
:1020A0005C915F70513011F4318114C0523011F4E1
:1020B000308110C0533011F432810CC0543011F40F
:1020C000318107C0553011F4308103C0563019F406
:1020D000328132953F70311109C03381321730F4AB
:1020E0000C94E50EFC01389660E0D3CF0895CF92B2
:1020F000DF92EF92FF920F931F93CF93DF93EC0148
:102100008C010F591F4F6C0184E7C80ED11CD801F8
:102110009C91F6018081981709F453C07E01F8E67E
:10212000EF0EF11CC7010E946805882309F449C01D
:10213000D8018C91F6019081891710F48F5F02C04D
:102140008150D8018C936E81FE01EA5BFF4F60FFE6
:1021500020C0D8012C91229FC001112468EC70E0AE
:102160000E943725DE01AA59BF4F211104C01196E4
:102170007C936E9308C061157105C9F781E090E00A
:1021800011969C938E936E8161700190F081E02D89
:1021900005C061700190F081E02DD8018C91099506
:1021A000CE59DF4F488159816A817B81C701DF9118
:1021B000CF911F910F91FF90EF90DF90CF900C94F3
:1021C0002606DF91CF911F910F91FF90EF90DF9046
:1021D000CF900895CF92DF92EF92FF920F931F93CB
:1021E000CF93DF93EC018C010F581F4FD8018C91D6
:1021F00080FF42C06E01B8E6CB0ED11CC6010E9422
:1022000068058823C9F1F80180819E012A5B3F4F50
:10221000790181FF10C08D7F80834EE150E060E046
:1022200070E0C6010E9426066E816170D701ED91B3
:10223000FC9181E018C08260F801808344EF51E096
:1022400060E070E0C6010E9426068E81682F6170F2
:1022500080FF03C0CA59DF4F02C0CC58DF4FD701FF
:10226000ED91FC918881DF91CF911F910F91FF90AB
:10227000EF90DF90CF900994DF91CF911F910F9154
:10228000FF90EF90DF90CF9008958F929F92AF9242
:10229000BF92CF92DF92EF92FF920F931F93CF9353
:1022A000DF93EC010E947710CE010E94EA108E01AC
:1022B000065B1F4FD8018C91837009F451C07E01D9
:1022C000BBE4EB0EF11CC7010E946805882309F4EA
:1022D00047C0FE01EC58FF4F408173978081749690
:1022E0006F01481381C1F6011082D8018C9183706F
:1022F000813009F086C1F6012081FE01EA58FF4FC6
:1023000060813196808191810E942302F601808153
:10231000882309F488C1D8018C918C7F82608C93CA
:102320002D81322F3F7184EF91E0389F8001399FDA
:10233000100D1124207E09F473C10E94EF256D81D8
:1023400062956695677070E00E944B25A801480F62
:10235000591F662757FD6095762FC7010E942606F4
:102360007E01F4E5EF0EF11CC7010E946805882389
:1023700009F45EC16E0122E4C20ED11CD601ED91BA
:10238000FC91119781858F70843099F48685D2965F
:102390008C9341E050E060E070E09E012E593F4F89
:1023A000D9014D935D936D937C9313978185807FC5
:1023B0008187D601ED91FC9181858F70813009F084
:1023C00037C18E010D581F4FD8018C91982F9295CF
:1023D0009F70282F2F70291709F42AC15E01B1E7D9
:1023E000AB0EB11CD5012C912E7F2C93807F8031B8
:1023F00071F49061D8019C9383858295807F9F7052
:10240000982B9C938581882309F412C1DAC080320D
:1024100009F040C080895E01B4E7AB0EB11CD50164
:102420009C91981711F18C9382890E94E506AB016B
:10243000BC014E01B2E68B0E911CF4014083518326
:1024400062837383C7010E942606D4016D917D913A
:102450008D919C9128EC30E040E050E00E945F2597
:10246000F4012083318342835383CF59DF4FD50159
:102470009C9188819813DCC0F8018081982F9295F7
:102480009F70807F892B8083D601ED91FC9194858C
:10249000929587C0803321F59063D8019C93868103
:1024A0009FEF980F9E3F08F0C3C00E94E506AB0166
:1024B000BC01C7010E942606F80180818F708065EB
:1024C0008083D601ED91FC91119784858F70806691
:1024D0008487ED91FC9182858F7080668287A8C089
:1024E0008034F1F49064D8019C938385807F9F7041
:1024F000982B9C938781882309F49AC00E94E50653
:10250000AB01BC01C7010E942606D601ED91FC91EA
:10251000858585FF8DC0F50180818160808388C0BD
:10252000803509F043C086855E0124E7A20EB11C08
:10253000D5019C91981711F18C9383890E94E5062F
:10254000AB01BC014E01B2E68B0E911CF40140833D
:10255000518362837383C7010E942606D4016D9163
:102560007D918D919C9128EC30E040E050E00E94FC
:102570005F25F4012083318342835383CF59DF4F9A
:10258000D5019C918881981353C0F8018081982FC0
:1025900092959F70807F892B8083D601ED91FC916D
:1025A0009485907F8F70892BF801B8CF803609F021
:1025B0003FC09066D8019C9380859FEF980F9E3F07
:1025C000B8F50E94E506AB01BC01C701DF91CF91D0
:1025D0001F910F91FF90EF90DF90CF90BF90AF9041
:1025E0009F908F900C942606481720F480E1D60126
:1025F0008C937BCE841708F078CE80E2F60180833E
:1026000074CE823009F082CED6012C91FE01EA58B8
:10261000FF4F60813196808191810E94940276CE35
:1026200080E090E093CEF80180818C7F808398CE0B
:10263000DF91CF911F910F91FF90EF90DF90CF909E
:10264000BF90AF909F908F900895FC01ED58FF4F81
:1026500080818F70833011F483E401C080618083B6
:102660000895CF93DF93EC01443020F09B012D5F60
:102670003F4F04C020E030E0423020F0AB014F5F1C
:102680005F4F02C040E050E0FB016081CE010E943C
:10269000290EFE01E65BFF4F80818C7F8160808385
:1026A00040E050E0BA01CE01855B9F4FDF91CF91B2
:1026B0000C942606FC01E65BFF4F20812C7F2160F5
:1026C000208340E050E0BA01855B9F4F0C942606C2
:1026D0001F93CF93DF93EC01162FFA01603441F47E
:1026E000608166FB662760F941810E94E50E0BC0A0
:1026F000613439F460816F77228141810E944410F6
:1027000005C06E3319F01054123090F4FE01E65BF0
:10271000FF4F80818C7F8160808340E050E0BA0170
:10272000CE01855B9F4FDF91CF911F910C942606C0
:10273000C958DF4F88819981DF91CF911F910C9407
:1027400002029F92AF92BF92EF92FF920F931F935C
:10275000CF93DF9300D000D000D0CDB7DEB75C01BF
:10276000962EC901F501E958FF4F3183208305E416
:1027700014E120E030E00B831C832D833E83BA827A
:10278000A982750128E0E20EF11C85019E012F5FF0
:102790003F4F8A5B9F4F0E94B91EF501EA58FF4FD9
:1027A000908226960FB6F894DEBF0FBECDBFDF91A4
:1027B000CF911F910F91FF90EF90BF90AF909F909E
:1027C0000895AF92BF92CF92DF92EF92FF920F9354
:1027D0001F93CF93DF935C01EB0188818823C1F1C4
:1027E000998195012A583F4F6901F501E958FF4F3A
:1027F0007F01992311F10FE913E080FF0DC02A81B9
:1028000043E0F6016081F701808191810E943D15CE
:1028100005E613E02B810CC02B8143E0F6016081BB
:10282000F701808191810E943D1505E613E02A8120
:1028300043E0F6016081F70119C00BE213E02B8140
:1028400043E0F6016081F701808191810E943D158E
:102850008981882379F0D501AA58BF4FF501E9583D
:10286000FF4F0BE213E02C8143E06C91808191815A
:102870000E943D15DF91CF911F910F91FF90EF9036
:10288000DF90CF90BF90AF900895EF920F931F937A
:10289000342F4E2D61110EC0311105C01F910F91C3
:1028A000EF900C944511313061F51F910F91EF902D
:1028B0000C942513613019F4263059F422C061318B
:1028C000B9F43230F1F4B8011F910F91EF900C94EC
:1028D00031132E3029F41F910F91EF900C945A135D
:1028E000213079F4B8011F910F91EF900C94E1130E
:1028F0006E3338F02E2DA8011F910F91EF900C949C
:1029000068131F910F91EF9008950895CF93C0E041
:1029100080910A01C81788F484E0C89FF00111244F
:10292000E05FFE4F618184E0689FB00111248281E5
:1029300093810E94AF1ACF5FEBCFCF910895742F90
:1029400084E0689FF0011124E45FFE4F828193814F
:10295000A90164E024E0729F800D911D11240E9462
:10296000A11A089580910A01861740F084E0689FBB
:10297000F0011124E45FFE4F8181089580E0089505
:10298000CF93DF93C0E0D6E080910B01C81740F5EC
:102990008C2F90E0D89FF001D99FF00D1124E45EB8
:1029A000FE4F21812350223048F4E08124E0E29F51
:1029B000F0011124E45FFE4F218101C021E0D89F86
:1029C000F001D99FF00D1124E45EFE4F6381269F34
:1029D000B0011124848195810E94AF1ACF5FD4CFBA
:1029E000DF91CF91089590910B01EDE1F1E080E04E
:1029F000891759F0DF0111972C91261303C020810C
:102A0000241721F08F5F3696F3CF8FEF0895FF9252
:102A10000F931F93CF93DF931F92CDB7DEB7F62EA0
:102A200029830E94F31429818F3FF9F0FF2051F090
:102A300094E0F99ED0011124A45FBE4F11969C91A1
:102A4000291798F496E0899FF0011124E45EFE4F67
:102A5000338184819581A801632F329F800D911D60
:102A600011240E94A11A81E001C080E00F90DF9143
:102A7000CF911F910F91FF900895FF920F931F9395
:102A8000CF93DF931F92CDB7DEB7F62E29830E9436
:102A9000F31429818F3FF9F0FF2051F094E0F99E63
:102AA000D0011124A45FBE4F11969C91291798F470
:102AB00096E0899FF0011124E45EFE4F338184810A
:102AC0009581A801632F329F800D911D11240E94D2
:102AD000A81A81E001C080E00F90DF91CF911F9193
:102AE0000F91FF900895EF92FF920F931F93CF9352
:102AF000DF9300D0CDB7DEB7162F2A830E94F314E0
:102B00002A818F3FD9F1112351F094E0199FD00110
:102B10001124A45FBE4F11969C91291778F596E079
:102B2000899FF0011124E45EFE4F84819581138119
:102B300060910E0170910F0140E050E0DF011296AC
:102B4000342F4117D0F4EC917A01EE0EF11CF7010D
:102B5000E60FF71FE4914F5F5F4FE013F1CF129F35
:102B6000800D911D1124AE014F5F5F4F61E0830F17
:102B7000911D0E94A11A898102C001C080E00F90BE
:102B80000F90DF91CF911F910F91FF90EF900895DB
:102B90000F93CF93DF93EC010AE020E040E060E088
:102BA0000E9473158093B6050BE020E040E060E0E2
:102BB000CE010E9473158093B7050CE020E040E041
:102BC00060E0CE010E9473158093B805DF91CF912C
:102BD0000F9108950E94F3148F3F99F096E0899F1A
:102BE000F0011124E45EFE4F238130E0220F331FF9
:102BF00080E08F5F121613061CF420513109F9CFC3
:102C0000089580E008956F927F929F92AF92BF9255
:102C1000CF92DF92EF92FF920F931F93CF93DF93A8
:102C20001F92CDB7DEB7162F370129830E94F31408
:102C300029818F3F09F462C0112359F094E0199F54
:102C4000D0011124A45FBE4F11969C91291708F062
:102C500055C00295007F0695482F50E0A6E08A9F58
:102C6000F0011124E45EFE4F8381782F701B17164C
:102C70002CF0F3011182108282E041C078300CF018
:102C800078E096E0949FF001959FF00D1124E45EAA
:102C9000FE4FA280E480F580829FE00CF11C11249D
:102CA000912CC72EDD24C7FCD094B12C10E0E00E8F
:102CB000F11E892D90E08C159D05ECF49C012A0DE8
:102CC0003B1D200F311FE0910E01F0910F01E20F2B
:102CD000F31FE491D301EC93A301B2E06B0E711CDE
:102CE0004F5F5F4F61E08E0D9F1D79830E94A11A97
:102CF00093947981DECF872F880F01C080E00F90F9
:102D0000DF91CF911F910F91FF90EF90DF90CF90C7
:102D1000BF90AF909F907F906F9008956F927F9239
:102D20008F929F92AF92BF92CF92DF92EF92FF92DB
:102D30000F931F93CF93DF931F92CDB7DEB7162F5C
:102D400029830E94F31429818F3F09F44EC0112377
:102D500059F094E0199FD0011124A45FBE4F119641
:102D60009C91291708F041C096E0899FF001112439
:102D7000E45EFE4F838164807580829F600C711CCD
:102D8000112410E06F0183E0C80ED11C5F0192E0B6
:102D9000A90EB11C101740F5F601608120910E01BB
:102DA00030910F0180E090E0412F50E0D701A40F57
:102DB000B51F782F8617B0F4F5019080FC01E90D5E
:102DC000F11DE20FF31FE4910196FC91EF13F1CF97
:102DD0004F5F5F4F4E0D5F1D61E0C301870F911D77
:102DE0000E94A81A1E5FD6CF01C080E00F90DF912D
:102DF000CF911F910F91FF90EF90DF90CF90BF90F8
:102E0000AF909F908F907F906F900895862728E0D5
:102E100030E0AC015695479580FF06C0CA0161E0DD
:102E2000862760EA962701C0CA012150310989F737
:102E30000895DF92EF92FF920F931F93CF93DF934A
:102E400000D000D0CDB7DEB78C010E94A01A1C8242
:102E50001B82E0900B0186E0E89E7001112480E067
:102E600090E0D12C2D2D30E02E153F0544F4F901D2
:102E7000E45EFE4F60810E940617D394F3CF9A83DD
:102E80008983AE014D5F5F4F62E080E090E00E9479
:102E9000A11A29813A818B819C812817390771F009
:102EA000C8010E948614C8010E94C014AE014F5F81
:102EB0005F4F62E080E090E00E94A81A809150018C
:102EC00090915101892B39F440E551E063E082E0B3
:102ED00090E00E94A11A8091460190914701892BB0
:102EE00039F446E451E063E082E090E00E94A11AE8
:102EF000C8010E94C8150F900F900F900F90DF919E
:102F0000CF911F910F91FF90EF90DF90089550E0C7
:102F10000E94082621E0892B09F020E0822F0895E5
:102F2000CB0143E060E571E00C948717CB0143E0EF
:102F300066EB75E00C948717BF92CF92DF92EF9209
:102F4000FF920F931F93CF93DF9300D000D0CDB7A4
:102F5000DEB77A01662381F180910A01861750F16C
:102F6000B12C84E0689F90011124245F3E4F8901B9
:102F70000F5F1F4F6901E2E0CE0ED11C17C0F601B2
:102F800080819181AE014F5F5F4F64E0F4E0BF9EAE
:102F9000800D911D11240E94A11A44E0B701CE01B9
:102FA00001960E948717811109C0B394F8018081AE
:102FB000B81628F38FEF03C080E001C08B2D0F906F
:102FC0000F900F900F90DF91CF911F910F91FF9075
:102FD000EF90DF90CF90BF900895FF920F931F93D3
:102FE000CF93DF93EC018B01FF24F39480910A01CE
:102FF0008F1548F0A8016F2DCE010E949C178F3FBE
:1030000021F4F394F3CF80E001C08F2DDF91CF91B5
:103010001F910F91FF9008957F928F929F92AF9290
:10302000BF92CF92DF92EF92FF920F931F93CF93B5
:10303000DF93CDB7DEB728970FB6F894DEBF0FBE8B
:10304000CDBF8A0180910A01861708F442C0FA01B7
:1030500080819181A2818D839E83AF8384818887C3
:10306000712CF4E06F9FC0011124845F9E4F5C01BE
:103070002FEFA21AB20A6C01E2E0CE0ED11C46017B
:10308000F5018081781618F5F4E07F9E7001112417
:10309000F60180819181AE014F5F5F4F64E08E0D3C
:1030A0009F1D0E94A11A44E0B801CE0101960E9422
:1030B0008717811110C044E0BE016B5F7F4FCE01C6
:1030C00001960E948717811106C07394D9CF81E0C1
:1030D0000CC080E00AC0F4018081918164E070E05E
:1030E0008E0D9F1D0E94AF1AF0CF28960FB6F89450
:1030F000DEBF0FBECDBFDF91CF911F910F91FF902B
:10310000EF90DF90CF90BF90AF909F908F907F9087
:103110000895662349F06150FC01E60FF11D2081FE
:103120002223B9F380E0089581E00895CF92DF92E1
:10313000EF92FF920F931F93CF93DF93EC017B01EC
:103140008A01690163E0CA010E948918811129C0BE
:10315000B801CE010E949017882329F1B701CE0152
:103160000E949617811121C0B601CE010E94ED1771
:1031700081111DC0B701CE010E949017811119C0A5
:10318000B801CE010E949017811102C085E712C0DC
:1031900063E086EB95E00E9489188823B9F388E7FD
:1031A00009C082E607C08CE605C08DE603C080E753
:1031B00001C089E6DF91CF911F910F91FF90EF90B1
:1031C000DF90CF900895CF92DF92EF92FF920F930E
:1031D0001F93CF93DF9300D000D0CDB7DEB780919F
:1031E0000A01861760F1D12CC12C24E0629FB00146
:1031F0001124645F7E4F8B010F5F1F4F7B0182E0C4
:10320000E80EF11CF8018081D816B8F4F70180812E
:103210009181AE014F5F5F4F64E0F4E0DF9E800D6F
:10322000911D11240E94A11A64E0CE0101960E9412
:1032300089188111C394D394E5CF8C2D01C080E00F
:103240000F900F900F900F90DF91CF911F910F91E2
:10325000FF90EF90DF90CF900895CF93DF93209170
:103260000A012617D8F024E0629FF0011124E45FE0
:10327000FE4FC181D0E00E94E3189E01281B310956
:103280002F5F3F4F220F331F220F331F80E0121694
:1032900013062CF4205131098F5FF9CF80E0DF91C4
:1032A000CF9108954F925F926F927F928F929F92EB
:1032B000AF92BF92CF92DF92EF92FF920F931F9344
:1032C000CF93DF9300D000D0CDB7DEB78A018091D5
:1032D0000A01861710F480E0ACC077247394FA01D9
:1032E0008381811101C0712CF8018481882319F038
:1032F000F72DF2607F2E812C912CE62EF12C21E00F
:10330000E21AF108EE0CFF1CEE0CFF1CC701805FF7
:103310009E4F6C01EFEFCE1ADE0A5C01F2E0AF0EB9
:10332000B11CF60180818816B8F4F5018081918185
:10333000AE014F5F5F4F64E0F4E08F9E800D911D02
:1033400011240E94A11A64E0CE0101960E948918FE
:10335000811193948394E5CFF8019381848199231B
:1033600031F08823D9F0F1E0F91518F0B4CF8111CC
:1033700015C0612CC701805F9E4F5C012FEFA21A20
:10338000B20A7C01E2E0EE0EF11C4424439452E0C8
:10339000552E4801F4E08F0E911C1BC0992009F4B2
:1033A0009ACFE7CF24E0629E60011124F70180816B
:1033B0009181AE014F5F5F4F64E08C0D9D1D0E94B7
:1033C000A11A64E0CE0101960E948918811106C0FD
:1033D0006394F5018081681628F305C070FC05C070
:1033E00071FC10C0F5CF81E024C07424F701808106
:1033F0009181A80164E08C0D9D1D0E94A81AF8011E
:103400006582E6CF7524F70180819181A80163E090
:103410008C0D9D1D0E94A81AF70180819181039651
:10342000A40161E08C0D9D1D0E94A81AF80166821E
:10343000CFCF0F900F900F900F90DF91CF911F91F2
:103440000F91FF90EF90DF90CF90BF90AF909F9043
:103450008F907F906F905F904F9008958F929F9282
:10346000BF92CF92DF92EF92FF920F931F93CF9371
:10347000DF931F92CDB7DEB7B42E490180910A01C8
:10348000861708F43FC0D12CC12C20E034E0639FA4
:10349000B0011124645F7E4F8B010F5F1F4F7B01D2
:1034A00082E0E80EF11CF8018081D81618F5F701CA
:1034B00080819181A40164E0F4E0DF9E800D911D84
:1034C000112429830E94A11A64E0C4010E94891872
:1034D000298181110DC02C5FCB1006C02031A0F4D2
:1034E00034E0830E911C04C0203110F0C39420E01E
:1034F000D394D9CFF401108211821282138284E016
:10350000820F03C080E001C0822F0F90DF91CF9126
:103510001F910F91FF90EF90DF90CF90BF909F9001
:103520008F9008958091C10084FD09C026E040E09D
:1035300051EE60E070E08EEE95E00C94C8220895A4
:1035400008959C01CA01462F50E0B9010C941E2633
:103550009C01CA01462F50E0B9010C942E26EF922F
:10356000FF920F931F93CF93DF931F92CDB7DEB7D8
:103570007B011982E80EF91E8C010E151F0551F012
:1035800041E050E0B801CE0101960E942E260F5F67
:103590001F4FF3CF0F90DF91CF911F910F91FF90AD
:1035A000EF9008955298229A84B1886284B9249841
:1035B00080E58CBDE9E6F0E080818260808308953B
:1035C0008EBD0DB407FEFDCF8EB508958091D10557
:1035D000813019F41092D10508958091D105089594
:1035E0001F920F920FB60F9211248F9381E0809358
:1035F000D1058F910F900FBE0F901F90189582E00C
:1036000084BD93E095BD80936E008DE787BD0895DE
:103610002FB7F8946091CD057091CE058091CF05BC
:103620009091D0052FBF08950F931F934FB7F89433
:103630000091CD051091CE052091CF053091D00598
:10364000600F711F821F931F6093CD057093CE058D
:103650008093CF059093D0054FBF1F910F91089590
:103660001F920F920FB60F9211248F939F93AF93D7
:10367000BF938091CD059091CE05A091CF05B091DB
:10368000D0050196A11DB11D8093CD059093CE0567
:10369000A093CF05B093D005BF91AF919F918F912B
:1036A0000F900FBE0F901F901895CF92DF92EF9260
:1036B000FF921F93CF93DF93162F96E0899FE0012F
:1036C0001124C554DA4F98818981892790E0062E0C
:1036D00002C0959587950A94E2F780FD02C0888123
:1036E0000CC0CA80DB80EC80FD800E94081B6C153A
:1036F0007D058E059F0550F4898121E030E0012E83
:1037000001C0220F0A94EAF7822320C0888190E04A
:10371000012E02C0959587950A94E2F7298180FFD2
:103720000BC081E090E0012E01C0880F0A94EAF7F7
:10373000282B298383E00AC081E090E001C0880F34
:103740001A95EAF780958223898382E0DF91CF91F1
:103750001F91FF90EF90DF90CF9008951F920F92EE
:103760000FB60F9211242F933F934F935F936F9354
:103770007F938F939F93AF93BF93EF93FF9383B107
:103780008093BB050E94081B6B5F7F4F8F4F9F4F3D
:103790006093BD057093BE058093BF059093C005EF
:1037A000FF91EF91BF91AF919F918F917F916F9119
:1037B0005F914F913F912F910F900FBE0F901F90EF
:1037C00018951F920F920FB60F9211242F933F93CB
:1037D0004F935F936F937F938F939F93AF93BF9319
:1037E000EF93FF9386B18093C1050E94081B6B5F26
:1037F0007F4F8F4F9F4F6093C3057093C405809395
:10380000C5059093C605FF91EF91BF91AF919F9130
:103810008F917F916F915F914F913F912F910F9079
:103820000FBE0F901F9018951F920F920FB60F9218
:1038300011242F933F934F935F936F937F938F93B5
:103840009F93AF93BF93EF93FF9389B18093C70585
:103850000E94081B6B5F7F4F8F4F9F4F6093C9057E
:103860007093CA058093CB059093CC05FF91EF919F
:10387000BF91AF919F918F917F916F915F914F9188
:103880003F912F910F900FBE0F901F901895E0E67B
:10389000F0E080818861808381E4808380E290E031
:1038A0009093BA058093B9050895E0E6F0E0808131
:1038B0008861808384E4808380E091E09093BA05FE
:1038C0008093B9050895E0E6F0E080818861808307
:1038D00081E6808380E090E29093BA058093B905F9
:1038E000089510927A00E4E6F0E090818FEF8083F3
:1038F00083B7816083BF80E685BF80E485BF8895FC
:1039000083B78E7F83BF9093640008951F920F92B8
:103910000FB60F9211242F933F934F935F936F93A2
:103920007F938F939F93AF93BF93EF93FF93609198
:10393000B9057091BA0580E090E00E94141BFF91D8
:10394000EF91BF91AF919F918F917F916F915F9117
:103950004F913F912F910F900FBE0F901F90189590
:1039600050916400909164009E7F90936400682B56
:1039700060937C0086E880937A0040E080E090E0ED
:1039800020917A00206420937A0020917A0026FD0D
:10399000FCCF483230F02091780030917900820FCE
:1039A000931F4F5F4C3361F720917A002F7720935C
:1039B0007A005093640010927A0064E170E00E94F3
:1039C0003725CB0108956EE080E40E94B01C9C0175
:1039D00040E050E065EF7BE280E090E00E945F25F0
:1039E000822F0895579A5F9860E080EC0E94B01C87
:1039F00057989C01A9E7B0E00E94812528EE33E0AA
:103A000040E050E00E945F25822F08958FEF809361
:103A1000BB058093BC058093C1058093C20580934C
:103A2000C7058093C80508950895FC0171836083DC
:103A30008281887F82830895CF93DF93EB0182EDAB
:103A400095E00E94C906C817D90748F0AE0160E0AA
:103A500070E082ED95E0DF91CF910C942606DF9126
:103A6000CF9108956770FC012281287F262B228345
:103A700023B7217F246023BF60ED77E00C941C1DE9
:103A8000CF93DF93EC018A81877009F475C082EDD2
:103A900095E00E946805882309F46EC088819981A9
:103AA000FC01EB5BFF4F208120FD66C0EA59FF4F10
:103AB000208120FD61C03497208120FD5DC07F966C
:103AC000208120FD59C02A8127702130D9F4895ADC
:103AD0009F4F0E941F0C9A8180FB95F99A83892F32
:103AE0008872803219F498609A830CC0883229F465
:103AF000977F9A8364EF71E03AC0883019F48A8125
:103B0000877F8A8388819981895A9F4F0E94D10A31
:103B10008881998160E070E0835B9F4F0E940B2158
:103B2000F8948A818F70813011F40E94551C8A812B
:103B30008F70893011F40E94471C8A81877082300F
:103B400011F40E94551C8A818770833011F40E9401
:103B5000631C78940E94711C8A818770843029F0DC
:103B6000809160008F7B8093600066E070E0CE0102
:103B7000DF91CF910C941C1DDF91CF910895089592
:103B80000F931F93CF93DF93EC018B010E94921A46
:103B900068E071E08EEE95E00E941724FE01EE5B76
:103BA000FF4F118300833297D183C083DF91CF9180
:103BB0001F910F9108958F929F92BF92CF92DF92A3
:103BC000EF92FF920F931F93CF93DF931F92CDB786
:103BD000DEB74C017C0180E4E80EF11CD701ED91C9
:103BE000FC91808190E00A9774F0F4012481358182
:103BF000468124AF35AF46AFD701ED91FC91828568
:103C00008F73F40187AF84010E5B1F4F9401245C16
:103C10003F4FA401495F5F4FB4016C5F7F4FD801F4
:103C20008D919C910E949618B82E682F8EEE95E08B
:103C30000E943E2465E071E08EEE95E00E9417241C
:103C400060E08EEE95E00E943E24D12CD701ED91EC
:103C5000FC91408150E02D2D30E0421753079CF13C
:103C6000241735071CF490E2C92E01C0C12CE20FC5
:103C7000F31F2081322F3F70832F90E00A9714F0BA
:103C800047E301C040E3430F30E084E035952795DA
:103C90008A95E1F72A30310514F067E301C060E34B
:103CA000620F8EEE95E049830E943E244981642F85
:103CB0008EEE95E00E943E246C2D8EEE95E00E94E3
:103CC0003E24D394C3CF60E08EEE95E00E943E2464
:103CD00060E28EEE95E00E943E2460E08EEE95E07C
:103CE0000E943E240E94081B6B017C0168E28EEE5C
:103CF00095E00E943E242AE030E0B701A6018EEE56
:103D000095E00E949E2469E28EEE95E00E943E249A
:103D10006AE08EEE95E00E943E24BCE6BB16D1F030
:103D2000E5E7BE16B9F0F4019281808196FF0BC0E1
:103D30009091DB05981307C061EF70E08EEE95E07F
:103D40000E94172407C08093DB05F80180819181D0
:103D50000E944B07D4011C920F90DF91CF911F91CD
:103D60000F91FF90EF90DF90CF90BF909F908F903A
:103D70000895CF92DF92EF92FF920F931F93CF930C
:103D8000C62FE62FF0E031975DE05E9FD0015F9F88
:103D9000B00D1124FD01E759FA4F60834183AD0155
:103DA00040595A4F6A01D90112964D915D916D911A
:103DB0007C911597D60112964D935D936D937C93EC
:103DC0001597D9012D913C91D6012D933C931483E5
:103DD0000383F682E58220E041E06C2FFC018081C4
:103DE00091810E940715CF911F910F91FF90EF9045
:103DF000DF90CF9008950895FC017183608308954A
:103E0000EF920F931F93CF93DF93C0E0DDE080919B
:103E10000A01C81770F5DC9FF0011124DF01A759D2
:103E2000BA4F8C91882319F1E059FA4FA081B181E2
:103E30004281538164817581CB019595879560FF9F
:103E40000CC0FD01E80FF91F0190F081E02DE40F97
:103E5000F51F0190F081E02D01C0FA01E12C00E096
:103E600010E020E040E060E08A0F9B1F0995CF5FE3
:103E7000CECFDF91CF911F910F91EF9008950895CC
:103E80000F931F93CF93DF93EC018B010E94921A43
:103E900061E271E08EEE95E00E9417241D830C8391
:103EA000FE01EE5BFF4F2696D183C083DF91CF9159
:103EB0001F910F910895AF92BF92CF92DF92EF9230
:103EC000FF920F931F93CF93DF931F92CDB7DEB76F
:103ED0005C01DC0112968C91129781110CC018962E
:103EE0008C91189785FF04C083E012968C9303C0D1
:103EF00081E0F5018283D50111969C91119712966C
:103F00008C91981708F0DCC08CED95E00E94680554
:103F1000882309F4D5C0D50118968C91189780682C
:103F200018968C9318971496ED91FC911597E95576
:103F3000FF4F908190FF04C090FB82F9F5018087CC
:103F4000F501EC5BFF4F80818D7F8083D501179653
:103F50008C91179713968C93139711968C911197B8
:103F60008F5F11968C9343E060E571E0C5010D967B
:103F70000E94871785010E5B1F4FF5012481358153
:103F80008823A9F0D8016D917C91F901ED55FF4F7F
:103F9000DB014C9150E04F5F5F4F808191810E9427
:103FA00015268FEFF50181836DE171E02EC040850C
:103FB00042954170F80160817181C90149830E9475
:103FC0004D05E898D8016D917C91F501848195812A
:103FD0004981895A9F4F0E94460BE89AD8016D91FA
:103FE0007C91F501848195810E943405D501189654
:103FF0008C9185FF08C04CE251E060E070E08CEDF0
:1040000095E00E94260669E171E08EEE95E00E943F
:104010001724F50184819581835B9F4FDC012C91EE
:1040200020FD04C064E070E00E940B2160E08EEE91
:1040300095E00E943E24F12CD801ED91FC91208165
:1040400030E08F2D90E028173907A4F182179307ED
:104050001CF440E2E42E01C0E12CE80FF91F80813E
:10406000982F9F70292F30E02A30310514F027E374
:1040700001C020E3290F90E034E0959587953A95AB
:10408000E1F78A30910514F067E301C060E3680F3F
:104090008EEE95E029830E943E242981622F8EEEC8
:1040A00095E00E943E246E2D8EEE95E00E943E2407
:1040B000F394C2CF60E08EEE95E00E943E243AC0B9
:1040C000F50191818281981708F459C08CED95E033
:1040D0000E946805882309F452C0D50111961C92EC
:1040E000119712961C921297F501EC5BFF4F80819D
:1040F0008E7F808318969C9195FF7BC08260808321
:10410000F5018481958164E670E08C5A9F4F0E948E
:104110001C1DD50114968D919C91159766E070E059
:10412000835B9F4F0E940B216DE071E08EEE95E066
:104130000E94172460E28EEE95E00E943E2460E02B
:104140008EEE95E00E943E240E94081B6B017C01CC
:1041500068E28EEE95E00E943E242AE030E0B7014E
:10416000A6018EEE95E00E949E2469E28EEE95E017
:104170000E943E246AE08EEE95E00E943E24F50106
:1041800081818F3FB1F5EC5BFF4F8081D5011196A6
:104190001C92119712961C928D7F8E7F808340E037
:1041A00050E0BA018CED95E00E942606F50184816D
:1041B000958164E670E08C5A9F4F0E941C1DD501CA
:1041C00014968D919C911597835B9F4FFC012081E4
:1041D00020FD0FC065E070E00F90DF91CF911F913F
:1041E0000F91FF90EF90DF90CF90BF90AF900C9425
:1041F0000B210F90DF91CF911F910F91FF90EF90C6
:10420000DF90CF90BF90AF9008950895FC01528346
:10421000418365830895CF93DF93EC018D818823DB
:1042200009F451C05E985C986130710519F481E120
:1042300094E02FC06230710519F48AE094E029C03F
:104240006330710519F483E094E023C06430710594
:1042500019F48CEF93E01DC06530710519F485EFFA
:1042600093E017C06630710519F48EEE93E011C02B
:104270006730710519F487EE93E00BC06830710563
:1042800019F480EE93E005C06930710521F489EDE1
:1042900093E09C838B838881816088838E81807C7E
:1042A00088608E83EB81FC818081877011F0672BA1
:1042B00051F440E050E0BA0185EE95E00E942606F8
:1042C00088818E7F8883DF91CF910895CF93DF938C
:1042D000EC01888180FF74C085EE95E00E9468053E
:1042E000882309F46DC0EB81FC818E818770E80F13
:1042F000F11D41818AE0489FA0011124662757FDE6
:104300006095762F85EE95E00E942606EB81FC8174
:10431000808186FF0DC08E81982F9770E90FF11D67
:104320009181992329F080FD02C05E9A01C05E98B8
:10433000EB81FC81808187FF0DC08E81982F977063
:10434000E90FF11D9181992329F080FD02C05C9A4B
:1043500001C05C986E8141E0460F4770687F642B16
:104360006E83EB81FC8150E08081282F277030E044
:10437000421753072CF1982F987311F4687F17C0D8
:10438000462F4695469546954770242F30E08695F2
:1043900086958695877090E02817390754F481E058
:1043A000840F8770880F880F880F607C682B6E835E
:1043B00007C060E070E0CE01DF91CF910C940B213B
:1043C000DF91CF910895FC01818D228D90E0805C7A
:1043D0009F4F821B910960E470E00E944B25089575
:1043E000FC01918D828D981731F0828DE80FF11DBF
:1043F000858D90E008958FEF9FEF0895FC01918DDA
:10440000828D981761F0828DDF01A80FB11D5D9636
:104410008C91928D9F5F9F73928F90E008958FEFA4
:104420009FEF08958CE793E2892B49F087E691E0AE
:10443000892B29F00E947C2381110C946701089537
:10444000FC01848DDF01A80FB11DA35ABF4F2C9131
:10445000848D90E001968F739927848FA689B78900
:104460002C93A089B1898C9180648C93938D848DD9
:10447000981306C00288F389E02D80818F7D8083A8
:104480000895CF93DF93EC01888D8823C9F0EA89E2
:10449000FB89808185FD05C0A889B9898C9186FD3D
:1044A0000FC00FB607FCF5CF808185FFF2CFA8893A
:1044B000B9898C9185FFEDCFCE010E942022E7CFF4
:1044C000DF91CF910895CF92DF92FF920F931F93C8
:1044D000CF93DF931F92CDB7DEB76C01DC015B9603
:1044E0009C915B975C968C915C97981307C0509653
:1044F000ED91FC915197808185FD32C0F601038DCD
:1045000010E00F5F1F4F0F731127F02EF601848DFF
:10451000F81211C00FB607FCF9CFD6015096ED91F5
:10452000FC915197808185FFF1CFC60169830E947C
:1045300020226981EBCF838DE80FF11DE35AFF4FF5
:104540006083D6015B960C935B975296ED91FC913C
:10455000539780818062808381E058968C930DC050
:10456000D6015696ED91FC91579760835096ED9148
:10457000FC91519780818064808381E090E00F906E
:10458000DF91CF911F910F91FF90DF90CF90089511
:10459000BF92CF92DF92EF92FF92CF93DF93EC0125
:1045A0006A017B01B22E60E874E88EE190E0A70119
:1045B00096010E945F252150310941095109569504
:1045C000479537952795E889F98982E080832115F9
:1045D00080E1380798F0E889F989108260E472E494
:1045E0008FE090E0A70196010E945F2521503109DC
:1045F000410951095695479537952795EC85FD85D5
:104600003083EE85FF852083188EEC89FD89B0828A
:10461000EA89FB89808180618083EA89FB898081C6
:1046200088608083EA89FB89808180688083EA8949
:10463000FB8980818F7D8083DF91CF91FF90EF9008
:10464000DF90CF90BF9008951F920F920FB60F92F8
:1046500011242F938F939F93EF93FF93E091FE0587
:10466000F091FF058081E0910406F091050682FD3E
:1046700012C09081809107068F5F8F73209108068A
:10468000821751F0E0910706F0E0E251FA4F958F62
:104690008093070601C08081FF91EF919F918F91D8
:1046A0002F910F900FBE0F901F9018951F920F9291
:1046B0000FB60F9211242F933F934F935F936F93F5
:1046C0007F938F939F93AF93BF93EF93FF938EEE60
:1046D00095E00E942022FF91EF91BF91AF919F91B1
:1046E0008F917F916F915F914F913F912F910F909B
:1046F0000FBE0F901F9018958EEE95E00E94E3215B
:1047000021E0892B09F420E0822F08951092F10511
:104710001092F00588EE93E0A0E0B0E08093F205FF
:104720009093F305A093F405B093F5058CE194E024
:104730009093EF058093EE0585EC90E09093FB0558
:104740008093FA0584EC90E09093FD058093FC053E
:1047500080EC90E09093FF058093FE0581EC90E063
:10476000909301068093000682EC90E090930306FC
:104770008093020686EC90E09093050680930406F1
:1047800010920706109208061092090610920A0667
:10479000089508950E94FC240E94C9230E94E40009
:1047A000C2E1D2E20E9450012097E1F30E9412225E
:1047B000F9CFCF92DF92EF92FF920F931F93CF9397
:1047C000DF936C017A01EB01E60EF71E00E010E0CA
:1047D000CE15DF0561F06991D601ED91FC91019054
:1047E000F081E02DC6010995080F191FF1CFC8010E
:1047F000DF91CF911F910F91FF90EF90DF90CF90BD
:1048000008956115710581F0DB010D900020E9F735
:10481000AD0141505109461B570BDC01ED91FC9154
:104820000280F381E02D099480E090E00895EF92FA
:10483000FF920F931F93CF93DF938C01FB01C0E096
:10484000D0E064917F018FEFE81AF80A662361F0E7
:10485000D801ED91FC910190F081E02DC8010995FE
:10486000C80FD91FF701EDCFCE01DF91CF911F9176
:104870000F91FF90EF9008950C940124DC01ED91CD
:10488000FC910190F081E02D09948F929F92AF925C
:10489000BF92CF92DF92EF92FF920F931F93CF932D
:1048A000DF93CDB7DEB7A1970FB6F894DEBF0FBE8A
:1048B000CDBF7C01C42EE52FCB01D22E19A221E061
:1048C0002D1510F02AE0D22E8E010F5D1F4F8D2C7A
:1048D000912CA12CB12C6C2D7E2FA50194010E944E
:1048E0005F258C2DD29E80191124015011098A3028
:1048F00014F4805D01C0895CF801808321153105C5
:104900004105510521F0C22EE32FCA01E4CFB801C1
:10491000C7010E940124A1960FB6F894DEBF0FBE16
:10492000CDBFDF91CF911F910F91FF90EF90DF905E
:10493000CF90BF90AF909F908F9008952115310533
:1049400041F4DC01ED91FC910190F081E02D642FA8
:1049500009940C9445249A01462F50E060E070E0E1
:104960000C949E241F920F920FB60F9211242F9336
:104970003F938F939F93AF93BF9380918C069091B9
:104980008D06A0918E06B0918F0630918B0626E0A1
:10499000230F2D3720F40296A11DB11D05C029E873
:1049A000230F0396A11DB11D20938B0680938C06C7
:1049B00090938D06A0938E06B0938F0680919006FB
:1049C00090919106A0919206B09193060196A11D37
:1049D000B11D8093900690939106A0939206B09398
:1049E0009306BF91AF919F918F913F912F910F901F
:1049F0000FBE0F901F901895789484B5826084BD87
:104A000084B5816084BD85B5826085BD85B58160D2
:104A100085BDEEE6F0E0808181608083E1E8F0E032
:104A20001082808182608083808181608083E0E861
:104A3000F0E0808181608083E1EBF0E08081846040
:104A40008083E0EBF0E0808181608083EAE7F0E042
:104A500080818460808380818260808380818160A6
:104A600080838081806880831092C1000895AA1B92
:104A7000BB1B51E107C0AA1FBB1FA617B70710F049
:104A8000A61BB70B881F991F5A95A9F7809590957B
:104A9000BC01CD01089597FB072E16F4009407D0B2
:104AA00077FD09D00E94372507FC05D03EF490958C
:104AB00081959F4F0895709561957F4F0895A1E26C
:104AC0001A2EAA1BBB1BFD010DC0AA1FBB1FEE1F88
:104AD000FF1FA217B307E407F50720F0A21BB30BD3
:104AE000E40BF50B661F771F881F991F1A9469F74F
:104AF00060957095809590959B01AC01BD01CF01AB
:104B00000895A29FB001B39FC001A39F700D811DA6
:104B10001124911DB29F700D811D1124911D0895C6
:104B20000E948125A59F900DB49F900DA49F800D9C
:104B3000911D11240895EE0FFF1F0590F491E02DB3
:104B400009948F929F92AF92BF92CF92DF92EF9291
:104B5000FF92CF93DF93EC01688179818A819B81F9
:104B6000611571058105910521F464E279ED8BE50C
:104B700097E02DE133EF41E050E00E9446264901E5
:104B80005A019B01AC01A7EAB1E40E9490256B0198
:104B90007C01ACEEB4EFA50194010E946826C60E1C
:104BA000D71EE81EF91EF7FE06C081E0C81AD1081C
:104BB000E10880E8F80AC882D982EA82FB82C6014D
:104BC0009F77DF91CF91FF90EF90DF90CF90BF90D4
:104BD000AF909F908F9008950E94A125089586E040
:104BE00091E00E94A1250895A0E0B0E08093060125
:104BF00090930701A0930801B09309010895FB0168
:104C0000DC0102C005900D9241505040D8F7089544
:104C1000FB01DC0104C08D910190801921F4415009
:104C20005040C8F7881B990B0895FB01DC0102C0B6
:104C300001900D9241505040D8F70895DC01CB010E
:104C4000FC01F999FECF06C0F2BDE1BDF89A31969C
:104C500000B40D9241505040B8F70895DC01CB01EB
:104C600003C02D910E94392641505040D0F708953D
:104C7000262FF999FECF1FBA92BD81BD20BD0FB678
:104C8000F894FA9AF99A0FBE01960895052E97FBAB
:104C90001EF400940E945D2657FD07D00E945F25F8
:104CA00007FC03D04EF40C945D265095409530954A
:104CB00021953F4F4F4F5F4F089590958095709588
:104CC00061957F4F8F4F9F4F0895B7FF0C949025AC
:0E4CD0000E949025821B930B0895F894FFCF4D
:104CDE00000094068000010000000307B6006E007D
:104CEE000106FD0102011502030119020000000672
:104CFE000F0001010608150001030E3A1D00020106
:104D0E000608790102030E3A810103010608BB0170
:104D1E0003030E3AC301746C7531303031323334C3
:104D2E0001020401000A00320064005802B80B7040
:104D3E0017A08C696E69742070776D0A00613A2035
:104D4E00002C20633A20002C206E3A20000A637457
:104D5E0052616D704F6E20002C20637452616D7025
:104D6E004F666620002C206374446C794F6E2000D1
:104D7E002C206374446C794F666620002C2063747B
:104D8E004F6E20002C2063744F666620002C20632B
:104D9E007456616C4C6F20002C20637456616C4805
:104DAE006920006F6E446C7920002C206F6E546960
:104DBE006D6520002C206F6666446C7920002C20D7
:104DCE006F666654696D6520002C20616374696F8F
:104DDE006E5479706520002C206C674D756C74696B
:104DEE004578656320002C206F666654696D654DAD
:104DFE006F646520002C206F6E54696D654D6F6475
:104E0E006520006A744F6E20002C206A744F66660F
:104E1E0020002C206A74446C794F6E20002C206A7E
:104E2E0074446C794F666620002C206A7452616D52
:104E3E00704F6E20002C206A7452616D704F666642
:104E4E0020006F6666446C79426C696E6B20002C94
:104E5E00206F6E4C766C5072696F20002C206F6E36
:104E6E00446C794D6F646520002C206F66664C652E
:104E7E0076656C20002C206F6E4D696E4C657665E4
:104E8E006C20002C206F6E4C6576656C2000726174
:104E9E006D70537374657020002C2072616D704FAD
:104EAE006E54696D6520002C2072616D704F6666C0
:104EBE0054696D65200064696D4D696E4C766C2089
:104ECE00002C2064696D4D61784C766C20002C208E
:104EDE0064696D5374657020002C206F6666446C97
:104EEE00794E657754696D6520002C206F66664497
:104EFE006C794F6C6454696D65200000000032645B
:104F0E0000FF00FF21145263320014C80A05050089
:104F1E00C80A0404320A3264000000326400FF0042
:104F2E00FF26145263240014C80A050500C80A049B
:104F3E0004000000CA000000326400FF00FF21449C
:104F4E005464320014C80A050500C80A0404320A63
:104F5E0032640000003264000A00FFA54454642449
:104F6E000014C80A050500C80A0404000000CA009F
:104F7E000000326400FF00FF11122223320014C819
:104F8E000A050500C80A040464001100000000327E
:104F9E006400FF00FF34122223240014C80A050502
:104FAE0000C80A0404000101648E0A0A320A32643F
:104FBE005E0A0A0A0A0A645E320A0A0A0A644A0A7F
:104FCE0001000000008A050100000000CA05010072
:104FDE000000004AC800000000008AC8000000005F
:104FEE0000C2323200000000000000006322D9230C
:084FFE00E321FE21F021412214
:00000001FF
