:100000000C94B7000C94DF000C94DF000C94F60302
:100010000C9429040C945C040C944C050C94DF00A3
:100020000C94DF000C94DF000C94DF000C94DF00D4
:100030000C94DF000C94DF000C94AB040C94DF00F4
:100040000C9432260C94DF000C949E240C94D02443
:100050000C94DF000C94DF000C94DF000C94DF00A4
:100060000C946C070C94DF00636F6E6669677572A1
:10007000652E2E2E0A00706F776572206F6E2E2E01
:100080002E0A00636869702069643A2000484D496F
:10009000443A20002C204D4149443A20000A0A00ED
:1000A000435553544F4D5F4C55580A0001020A0BFB
:1000B0000C0110003D70030100002E012E0206030A
:1000C0000D04E905CA063D070C0B060D210E650F50
:1000D0006A10C81193120315341601173018181935
:1000E000161B432156250026112D353EC3202072B4
:1000F00065706561746564206D6573736167650A19
:10010000003E200052562E0A00202074696D65645E
:10011000206F7574003C2D20003C692000534E2E4A
:100120000A000000000800020100000304070000AC
:1001300000000000000001020408102040800102BD
:10014000040810200102040810200404040404041C
:100150000404020202020202030303030303000079
:100160000000250028002B00E2018A06002511244A
:100170001FBECFEFD8E0DEBFCDBF12E0A0E0B1E000
:10018000E4EFFEE402C005900D92AE30B107D9F75E
:1001900024E0AEE0B2E001C01D92A83CB207E1F756
:1001A00011E0CEE6D1E004C02297FE010E942D2787
:1001B000C836D107C9F70E9444250C9478270C94BF
:1001C0000000DF92EF92FF920F931F93CF93DF9384
:1001D000EC018B01D12CD80112968C91D816C0F568
:1001E000ED2CF12CD801ED91FC91EE0DFF1D20813D
:1001F00030E084E0359527958A95E1F72A3031057E
:1002000014F067E301C060E3620FCE010E94B825DD
:10021000D801ED91FC91EE0DFF1D60816F70862F6E
:1002200090E00A9714F0695C01C0605DCE010E9405
:10023000B825BFEFEB1AFB0AF801828190E0E816BF
:10024000F90624F460E2CE010E94B825D394C3CF0E
:10025000CE01DF91CF911F910F91FF90EF90DF9032
:100260000895DC01ED91FC910190F081E02D09945D
:100270000F931F93CF93DF9300D000D000D0CDB762
:10028000DEB710927A00E4E6F0E080818F6E808322
:100290001AB817B814B81BB818B815B880818B7F76
:1002A000808380818F77808380818F7D80830E948F
:1002B0000C0360EA70E082E294E00E9491250E94C3
:1002C0007C030E943F030E9456030E941F030E946A
:1002D000470388E292E00E94F20820E040E061E0FB
:1002E00080E792E00E941A1548E252E062E086E759
:1002F00092E00E94672069E070E086E792E00E9449
:10030000702060E08CE792E00E94D31C00E81EEEB3
:1003100026E330E04BE161E082E892E00E94E812DF
:1003200028E232E044E061E081E192E00E94C222F2
:100330002FE032E042EF51E069E572E081E192E0C6
:100340000E94E52100E020E030E0A90160E081E1C9
:1003500092E00E94F8218AEF93E09A83898323E058
:100360002B8384E291E09D838C832E836DE870E083
:1003700082E294E00E949125BE016C5F7F4F82E291
:1003800094E00E94E1008C0164E970E00E949125F4
:10039000BE016F5F7F4FC8010E94E1006DE970E010
:1003A0000E949125789426960FB6F894DEBF0FBE72
:1003B000CDBFDF91CF911F910F91089588E292E018
:1003C0000C946B0D1092F7021092F6021092F90243
:1003D0001092F8021092FB021092FA0288E292E068
:1003E0000C94C408CF93DF9369E270E084E193E05A
:1003F0000E94720664E870E084E193E00E9431019B
:1004000084E193E00E94870642E050E069E270E0F8
:1004100084E193E00E94650684E193E00E94BF05B9
:10042000EC0184E193E00E94BF0520E030E0382F2A
:10043000C22BD32B84E193E00E94B705892B29F0CE
:1004400084E193E00E94BF05F5CF95E0D695C7956E
:100450009A95E1F7C0930F0267E271E082E294E0BF
:100460000E94B6254AE050E0BE0182E294E00E947C
:100470002C2660E282E294E00E94B82568E282E2E3
:1004800094E00E94B8250E948503AB01BC012AE0DC
:1004900030E082E294E00E94182669E282E294E071
:1004A0000E94B8256AE082E294E0DF91CF910C943B
:1004B000B825CF9361E085E00E94272384E193E093
:1004C0000E944E0669E270E084E193E00E947206A9
:1004D0006AE870E084E193E00E94310184E193E0F6
:1004E0000E94870641E050E069E270E084E193E019
:1004F0000E94650684E193E00E94B705892B41F1D3
:1005000084E193E00E94BF05C82F63E870E082E2B7
:1005100094E00E949125C07F6C2F70E024E07595D7
:1005200067952A95E1F76A30710514F0695C01C09E
:10053000605D82E294E00E94B82560E382E294E08C
:100540000E94B8256AE082E294E00E94B825D2CFEA
:1005500066E770E082E294E00E94912569E270E033
:1005600084E193E00E94720660E870E084E193E029
:100570000E94310163E070E084E193E00E94310168
:1005800084E193E00E94870668E670E082E294E0EE
:100590000E94912582E08093100269E270E084E17C
:1005A00093E00E94720661E870E084E193E00E94AB
:1005B00031016091100284E193E00E940F0684E112
:1005C00093E00E94870661E371E082E294E0CF91BC
:1005D0000C94B62582E294E00E945D23892BD9F029
:1005E00082E294E00E9478238A3039F410920E025D
:1005F00090916D02916090936D02982F9F7D915420
:10060000963018F080538A3028F780910E028F5F61
:1006100080930E02DFCF0895809164008D7F8093D8
:1006200064008091C10084FD09C026E040E051EEE5
:1006300060E070E082E294E00C9442240895569ABF
:10064000549A0895813011F45E9A0895811102C080
:100650005E9808958BB190E489278BB90895813015
:1006600011F45C9A0895811102C05C9808958BB1D1
:1006700090E189278BB90895089580E0089582E17B
:10068000E2E0F3E0DF011D928A95E9F708952098F2
:10069000289A0E943F03E8E6F0E080818160808331
:1006A000EBE6F0E080818160808308955298229A81
:1006B000239A259A249880E58CBDE8E6F0E08081B5
:1006C0008460808308958EBD0DB407FEFDCF8EB586
:1006D0000895EDE6F0E08081846080830895EDE682
:1006E000F0E080818B7F808308952C99FECF089560
:1006F0002A9808952A9A089582E084BD93E095BDD2
:1007000080936E008DE787BD08952FB7F8946091B0
:10071000FE027091FF0280910003909101032FBFB0
:1007200008958F929F92AF92BF92CF92DF92EF92F5
:10073000FF920F931F93CF93DF93C62EE82EF12CD9
:1007400096E0899FE0011124CE5FDC4FD88001E064
:1007500010E0062E01C0000F0A94EAF7D02289812A
:100760008023D816E1F00E9485038A809B80AC80AC
:10077000BD80681979098A099B0965307105810571
:10078000910568F0DD2029F08981802B898383E041
:1007900016C0898100950823098382E010C086E095
:1007A0008E9DF0018F9DF00D1124EE5FFC4F808136
:1007B00090E002C095958795CA94E2F78170DF9129
:1007C000CF911F910F91FF90EF90DF90CF90BF904E
:1007D000AF909F908F90089562E082E00E94910315
:1007E00091E0823009F090E0892F08951F920F92D6
:1007F0000FB60F9211242F933F934F935F936F93F4
:100800007F938F939F93AF93BF93EF93FF93E2E018
:10081000F3E080818093030383B180830E9485038A
:10082000609304037093050380930603909307037A
:10083000FF91EF91BF91AF919F918F917F916F91B8
:100840005F914F913F912F910F900FBE0F901F908E
:1008500018951F920F920FB60F9211242F933F936A
:100860004F935F936F937F938F939F93AF93BF93B8
:10087000EF93FF93E8E0F3E080818093090386B172
:1008800080830E94850360930A0370930B03809317
:100890000C0390930D03FF91EF91BF91AF919F9146
:1008A0008F917F916F915F914F913F912F910F9019
:1008B0000FBE0F901F9018951F920F920FB60F92B8
:1008C00011242F933F934F935F936F937F938F9355
:1008D0009F93AF93BF93EF93FF93EEE0F3E080819C
:1008E00080930F0389B180830E9485036093100376
:1008F000709311038093120390931303FF91EF9170
:10090000BF91AF919F918F917F916F915F914F9127
:100910003F912F910F900FBE0F901F9018950F933E
:100920001F934FB7F8940091FE021091FF0220919F
:10093000000330910103600F711F821F931F6093AA
:10094000FE027093FF0280930003909301034FBF58
:100950001F910F9108951F920F920FB60F921124BD
:100960008F939F93AF93BF938091FE029091FF026C
:10097000A0910003B09101030196A11DB11D8093C8
:10098000FE029093FF02A0930003B0930103BF9176
:10099000AF919F918F910F900FBE0F901F90189560
:1009A00008959C01CA01462F50E0B9010C945027CC
:1009B0009C01CA01462F50E0B9010C946027EF92C8
:1009C000FF920F931F93CF93DF931F92CDB7DEB7A4
:1009D0007B011982E80EF91E8C010E151F0551F0DE
:1009E00041E050E0B801CE0101960E9460270F5F00
:1009F0001F4FF3CF0F90DF91CF911F910F91FF9079
:100A0000EF900895E0E6F0E080818861808381E4E2
:100A1000808380E290E09093FD028093FC02089531
:100A2000E0E6F0E080818861808384E4808380E078
:100A300091E09093FD028093FC020895E0E6F0E0DF
:100A400080818861808381E6808380E090E290935A
:100A5000FD028093FC02089510927A00E4E6F0E033
:100A600090818FEF808383B7816083BF80E685BFED
:100A700080E485BF889583B78E7F83BF90936400A1
:100A80000895E0E6F0E080818F7B8083089583B74E
:100A9000817F846083BF08951F920F920FB60F92DB
:100AA00011242F933F934F935F936F937F938F9373
:100AB0009F93AF93BF93EF93FF936091FC0270916C
:100AC000FD0280E090E00E948F04FF91EF91BF91C2
:100AD000AF919F918F917F916F915F914F913F91D6
:100AE0002F910F900FBE0F901F901895509164009A
:100AF000909164009E7F9093640080937C0086E8D0
:100B000080937A0040E080E090E020917A002064B9
:100B100020937A0020917A0026FDFCCF483230F0F5
:100B20002091780030917900820F931F4F5F4C33F2
:100B300061F720917A002F7720937A005093640018
:100B400010927A0064E170E00E94C726CB010895FC
:100B50008EE40E9476059C0140E050E065EF7BE268
:100B600080E090E00E94EF26822F08950895809102
:100B7000440390E020914503821B91090895209140
:100B8000450380914403281750F4E22FF0E0EA5B1C
:100B9000FC4F808190E02F5F2093450308958FEFF5
:100BA0009FEF0895E091450380914403E81730F4E6
:100BB000F0E0EA5BFC4F808190E008958FEF9FEFBB
:100BC00008950895CF92DF92EF92FF920F931F93B3
:100BD000CF93DF937C01CB018A0120912003222354
:100BE00089F0EB016B01C40ED51ECC15DD0569F053
:100BF0006991D701ED91FC910190F081E02DC70141
:100C00000995F3CF642F0E944307C801DF91CF916C
:100C10001F910F91FF90EF90DF90CF900895CF93A9
:100C2000DF931F92CDB7DEB7698320912003222383
:100C3000D1F020912103203240F021E030E0FC018E
:100C40003383228380E090E015C080912203E82F57
:100C5000F0E0ED5DFC4F998190838F5F80932203DC
:100C60008093210305C061E0CE0101960E944307F5
:100C700081E090E00F90DF91CF910895FC01138205
:100C8000128248EE53E060E070E04483558366834F
:100C900077838FE391E091838083089510924503D9
:100CA0001092440310922203109221030C948E069A
:100CB000862F413208F040E266E473E00E94AC0601
:100CC0001092450380934403089521E00C94580644
:100CD00081E08093200360934303109222031092DB
:100CE000210308950C9468060F93062F21E040918C
:100CF000210363E273E0809143030E94F0061092A7
:100D0000220310922103109220030F91089561E0B5
:100D10000C94740684E193E00C943E061092D30385
:100D200081E08093D1031092D00361E082E10E94C0
:100D3000272361E083E10E942723E9EBF0E0808133
:100D40008E7F808380818D7F808380E28093B80056
:100D500085E48093BC000895413208F03FC0909133
:100D6000D3039111FCCF91E09093D3032093D1034F
:100D70002FEF209366031092AB03240F2093AA0356
:100D80009093D2039091D203880F892B8093D20342
:100D90008091D003813041F41092D0038091D2032E
:100DA0008093BB0085EC01C085EE8093BC008091F0
:100DB000D3038130E1F38091AB03841710F44091A9
:100DC000AB032CEA33E0FB01D9018A2F821B841785
:100DD00018F48D918193F9CF842F089580E00895C0
:100DE0000F93413208F046C09091D3039111FCCF8C
:100DF00092E09093D3030093D1039FEF9093660307
:100E00001092AB034093AA03FB016CEA73E0DB0191
:100E10009A2F961B941718F491919D93F9CF1092E5
:100E2000D2039091D203880F892B8093D2038091B3
:100E3000D003813041F41092D0038091D20380938B
:100E4000BB0085EC01C085EE8093BC00222321F01D
:100E50008091D3038230E1F3809166038F3F61F08C
:100E600080916603803251F080916603803341F4B3
:100E700083E007C081E005C080E003C082E001C0DC
:100E800084E00F910895613298F42091D3032430C7
:100E900089F460938803FC018AE893E0DC012A2F3F
:100EA000281B261718F421912D93F9CF80E008957F
:100EB00081E0089582E0089585ED8093BC008091E3
:100EC000BC0084FDFCCF1092D303089585EC809381
:100ED000BC001092D30308951F920F920FB60F9289
:100EE00011242F933F934F935F936F937F938F932F
:100EF0009F93AF93BF93EF93FF938091B900887F47
:100F0000803609F49CC068F5883209F45BC090F41F
:100F1000803109F454C038F4882309F4F5C08830CE
:100F200009F44DC0F5C0883109F44CC0803209F491
:100F30005DC0EEC0803409F468C048F4803309F421
:100F400055C0883309F0E4C080936603A8C080359B
:100F500009F44FC0883509F45DC0883409F0D8C061
:100F6000D5C0883909F4C6C0A8F4883709F467C029
:100F700038F4883609F463C0803709F460C0C8C00B
:100F8000883809F4B7C0803909F45FC0803809F0A7
:100F9000BFC05BC0803B09F485C038F4803A09F4D7
:100FA00066C0883A09F47EC0B3C0803C09F4A6C08C
:100FB000883C09F4A3C0883B09F489C0A9C080918A
:100FC000D20310C09091AB038091AA03981770F5DB
:100FD000E091AB0381E08E0F8093AB03F0E0E4552A
:100FE000FC4F80818093BB0085EC85C080936603B5
:100FF0008DC0E091AB0381E08E0F8093AB038091B5
:10100000BB00F0E0E455FC4F80839091AB038091EE
:10101000AA036DC0E091AB0381E08E0F8093AB0318
:101020008091BB00F0E0E455FC4F80838091D103B8
:1010300081116CC081E08093D00384EA60C083E0BA
:101040008093D30310926703CFCF809167038032E0
:1010500008F050C0E091670381E08E0F8093670332
:101060008091BB00F0E0E859FC4F8083BDCF8091B8
:101070006703803230F4E0916703F0E0E859FC4FF9
:1010800010820E945C076091670370E0E091CC03DE
:10109000F091CD0388E693E00995109267030E94D2
:1010A000660736C084E08093D303109289031092C0
:1010B0008803E091CE03F091CF03099580918803D6
:1010C000811105C081E08093880310928A03E0912A
:1010D000890381E08E0F80938903F0E0E657FC4F8F
:1010E00080818093BB009091890380918803981739
:1010F00008F47ACF85E88093BC000AC085EC809321
:10110000BC001092D30304C0109266030E945C07D7
:10111000FF91EF91BF91AF919F918F917F916F91CF
:101120005F914F913F912F910F900FBE0F901F90A5
:1011300018950F931F93CF93DF93EC018B01FB0165
:10114000208130E084E0359527958A95E1F72A30B3
:10115000310514F067E301C060E3620FCE010E9425
:10116000B825F80160816F70862F90E00A9714F01F
:10117000695C01C0605DCE010E94B825CE01DF919F
:10118000CF911F910F910895CF93DF93EC010E94AF
:10119000A016CE0101960E94D21ECE018A5B9F4FFF
:1011A0000E944C1ECE01885B9F4F0E942315CE01EA
:1011B000825B9F4F0E946620CE018C5A9F4F0E94F7
:1011C000AC1CCE01895A9F4F0E94FE12CE01865A56
:1011D0009F4F0E94AF12CE018D599F4FDF91CF914B
:1011E0000C946B1DCF93DF93EC010E941519CE0177
:1011F000895A9F4F0E94C614BE01CE0101960E94DB
:10120000D31EBE01CE018D599F4F0E946C1DBE01A1
:10121000CE018A5B9F4F0E944D1EBE01CE01885BAE
:101220009F4F0E942415BE01CE018C5A9F4F0E94F1
:10123000AD1CBE01CE01865A9F4F0E94B0120E9483
:101240007C03DF91CF910C946903FC01DC01AB5965
:10125000BF4F8C9185FF1DC08AE0868311978C91CA
:10126000878382E08187209124013091250140917C
:10127000260122873387448713962D913D914C9107
:10128000258736874787108AEB5BFF4F8081816017
:1012900080830895CF92DF92EF920F931F93CF93A5
:1012A000DF931F92CDB7DEB78C01FC01EB59FF4FE6
:1012B000808185FF3BC08EE0F8018683EC59FF4FAB
:1012C0008081F801878390859F7D908782E0818768
:1012D000C0902401D0902501E0902601C286D386DB
:1012E000E486E959FF4FC080D180E280F801C586CD
:1012F000D686E78681E0808B618B428BC801865A57
:101300009F4F29830E94FA12F0E88F9FC001112499
:101310002981822BF801838BE85AFF4F8081F801E5
:10132000848BEB5BFF4F8081816080830F90DF9126
:10133000CF911F910F91EF90DF90CF900895FC0116
:101340008AE08683DF01AD59BF4F8C91878382E0AD
:101350008187209124013091250140912601228727
:101360003387448714962D913D914C91258736877C
:10137000478780E8808BEB5BFF4F808181608083B3
:101380000895AF92BF92CF92DF92EF921F93CF93C7
:10139000DF9300D0CDB7DEB75C01162F8EE0F501EC
:1013A0008683EA59FF4F8081813039F438968081F5
:1013B0008E3019F43A97808107C0F501EC5BFF4F3E
:1013C000808191E0980F9083F501878363E08AEF35
:1013D00093E02A8349830E94851A91E02A814981FA
:1013E000811190E0F501808590FB85F9808780E18F
:1013F0008187C0902401D0902501E0902601C2860B
:10140000D386E486C090FA03D090FB03E090FC03FF
:10141000C586D686E78686E0808B118B428B238B30
:10142000E85AFF4F8081F501848BEB5BFF4F808191
:10143000816080830F900F90DF91CF911F91EF908B
:10144000DF90CF90BF90AF9008950F931F93CF93ED
:10145000DF93EC01FC01E954FF4F31832083329686
:1014600083E08083319660838E010B541F4FF80117
:10147000808140FB84F9808363E08AEF93E00E94DF
:10148000851A91E0811190E0F801808190FB85F947
:10149000CA54DF4F91E4988381608083DF91CF91BC
:1014A0001F910F910895FF920F931F93CF93DF9396
:1014B000EC01F42E8C0107541F4FF8018081875FE7
:1014C0008E83E557F10980818F838885EF58FF4F20
:1014D000908195FB992790F9846090FB85F970962F
:1014E000908190FB84F988873F978081898720913C
:1014F000240130912501409126012A873B874C87A2
:10150000FB012081318142812D873E874F87FE017B
:10151000E654FF4F8081888BCE01865A9F4F0E94F0
:10152000FA12F0E88F9FC00111242889822B888B42
:10153000FE01EE5BFF4F80819181F801408150E018
:101540003297608171810B960E944727FA82CB5BAC
:10155000DF4F888181608883DF91CF911F910F9148
:10156000FF9008957F928F929F92AF92BF92CF92F9
:10157000DF92EF92FF920F931F93CF93DF9300D0F0
:1015800000D01F92CDB7DEB77C018C010B541F4FEA
:10159000F801808185FF02C023E001C021E04701FE
:1015A000F5E48F0E911CF401808180FD3CC1570150
:1015B000FCEBAF0EB11CF501808181111CC06701ED
:1015C000FAEBCF0ED11CF6016081C7012D830E947A
:1015D000CD16782EF5018083F6016081C7010E9447
:1015E000DF1A2D81781207C0422F6AEF73E0C7011E
:1015F0000E94530A0DC16701FBEBCF0ED11CF6010F
:101600004081F50180814817E8F0F8019081892F29
:1016100086958F5F8770382F330F917F932B908340
:1016200090E0422F50E0841795070CF0F1C068E07D
:10163000C70183549F4F0E94851A8111E9C0F601AA
:101640001082F1C0842F90E04423F9F0F40120814E
:1016500021FD1BC0BC01615071099B01E3E0359580
:101660002795EA95E1F72E0D3F1DF901E354FF4F51
:101670006770772721E030E0062E01C0220F0A9420
:10168000EAF72095308123232083F80130813E70D2
:10169000542F5770311115C09C0173E03595279573
:1016A0007A95E1F72E0D3F1DF901E354FF4F21E03C
:1016B00030E0052E01C0220F0A94EAF73081322B68
:1016C000308363E0959587956A95E1F78E0D9F1DB0
:1016D000FC01E354FF4F21E030E08081882311F0CA
:1016E00020E030E002C0359527955A95E2F7232B8C
:1016F00009F050C04701FAEB8F0E911C9E012F5F3D
:101700003F4FF4016081C7010E94BA16F5011081B4
:10171000F60100816BE471E082E294E00E94B6255C
:101720004AE050E0602F82E294E00E9425266FE4B8
:1017300071E082E294E00E94B6254AE050E0612F19
:1017400082E294E00E9425266AE082E294E00E9410
:10175000B82564E0CE0101960E94851A8823F1F035
:10176000F6014081842F90E053E0959587955A9536
:10177000E1F78E0D9F1DFC01E354FF4F842F87700E
:1017800021E030E001C0220F8A95EAF720958081A0
:10179000282320834F5FF601408345C001E0F60116
:1017A000208144E0F4016081C7010E94FD17E82F09
:1017B000F0E08081F701EB53FF4F808341E0BE01F1
:1017C0006F5F7F4FC7010E94530AF701808585FD37
:1017D0001AC0F6012081822F90E033E0959587951D
:1017E0003A95E1F78E0D9F1DFC01E354FF4F822FC8
:1017F000877021E030E001C0220F8A95EAF720953A
:10180000808128232083F60180818F5F80830BC035
:10181000F701EC5BFF4F80818F5F808380E1F801EF
:1018200011928A95E9F70F900F900F900F900F90FB
:10183000DF91CF911F910F91FF90EF90DF90CF90AC
:10184000BF90AF909F908F907F900895CF93DF933C
:10185000EC0184E18E83FE01ED59FF4F80818F837F
:1018600080E1898720912401309125014091260152
:101870002A873B874C8734962081318142812D878E
:101880003E874F87188AB597A081B1811B968AE061
:10189000EAE1F1E001900D928A95E1F7CB5BDF4F31
:1018A000888181608883DF91CF910895FC01665F14
:1018B0006683DC01AF54BF4F8C9191E0980F9C93ED
:1018C000878380858062808780E1818720912401E1
:1018D0003091250140912601228733874487119654
:1018E0002D913D914C9125873687478781E0808BEC
:1018F000EB5BFF4F8081816080830895FC018AE06B
:10190000860F8683DF01AF54BF4F8C9191E0980F13
:101910009C93878380858062808780E18187209186
:101920002401309125014091260122873387448785
:1019300011962D913D914C912587368747876330CD
:1019400010F483E001C082E0808BEB5BFF4F80816D
:10195000816080830895AF92BF92CF92DF92EF9221
:10196000FF920F93CF93DF93EC01FC01EB5BFF4FF2
:10197000808180FD49C05E012BEAA20EB11CF501F9
:1019800080819E0123553F4F690181FF12C0E956B6
:10199000F10920813181255F3F4FF6014081319669
:1019A0006081CE010E94481C682FCE010E94560C17
:1019B0001BC082FF1DC0FE01EE5BFF4FE080F18087
:1019C000FBE0EF0EF11CF9010081FE01E055FF4F35
:1019D00020813197408131976081CE010E94781833
:1019E000682FCE010E947E0CF60180818F5F80837C
:1019F000C455DF4FF60190818881981305C08AE0B5
:101A0000F50111928A95E9F7DF91CF910F91FF903F
:101A1000EF90DF90CF90BF90AF900895FB01918140
:101A200086E78927818382E02081A82FB0E0AE0F6E
:101A3000BF1F821738F42C91945292279C938F5F8A
:101A4000922FF2CF8C91928189278C930895FB017C
:101A5000218186E728272183428132E05081832F2C
:101A600090E0351748F4DF01A80FB91F24528C917C
:101A700028272C933F5FF2CFE80FF91F808184273E
:101A8000808308950F931F93CF93DF93EC01888198
:101A90008823C9F00E9485030D811E812F8138851E
:101AA000601B710B820B930B09811A812B813C8186
:101AB000601771078207930740F0188219821A8213
:101AC0001B821C8203C081E001C080E0DF91CF91C6
:101AD0001F910F910895EF92FF920F931F93CF9351
:101AE000DF93EC010E94EC038E010D551F4F8823FC
:101AF00091F0D8016D917C91CE01895A9F4F0E943F
:101B00002814F80160817181DB018C91882319F020
:101B1000CE010E940E0DD801ED91FC9180818823A9
:101B200029F0CE018D599F4F0E94871DFE01EB5B6E
:101B3000FF4F808180FF04C0CE0101960E94EE1EFF
:101B4000FE01E555FF4F808180FF03C0CE010E945A
:101B5000AB0CFE01EB54FF4F808180FF03C0CE0130
:101B60000E94B20A8E0109551F4FF801808180FF43
:101B70000AC08FED93E00E94420D882321F0D80126
:101B80008C918E7F8C937E01B6ECEB0EF11CF701ED
:101B900080818E01025B1F4F80FF19C086ED93E0AC
:101BA0000E94420D882399F0D7018C918E7F8C93EF
:101BB00063E08AEF93E00E94851A882319F063E0BE
:101BC00070E002C062E070E0C8010E947020CE01A7
:101BD0008A5B9F4F0E94951ECE01885B9F4F0E949B
:101BE000CF15C8010E946221CE01865A9F4F0E94E4
:101BF000BB12CE018C5A9F4FDF91CF911F910F9155
:101C0000FF90EF900C94E61CCF92DF92EF92FF9240
:101C1000CF93DF93EC016A017B0181E0411551050F
:101C20006105710509F480E08883882351F00E94E2
:101C300085036D837E838F839887C982DA82EB82E6
:101C4000FC82DF91CF91FF90EF90DF90CF900895CD
:101C50000F931F93CF93DF93EC01FC01EA59FF4FE1
:101C60008081813039F4389680818A3019F43B972D
:101C7000808107C0FE01EC5BFF4F808191E0980FEF
:101C800090839AE19E838F8388858B7F888763E02A
:101C90008AEF93E00E94851A91E0811190E0888597
:101CA00090FB85F9888719862091240130912501C0
:101CB000409126012A873B874C872091FA03309177
:101CC000FB034091FC032D873E874F8760910601FF
:101CD000709107018E010E5B1F4FF8018081918189
:101CE00043E050E00A960E943127F801A081B181BB
:101CF0001D968AE0EAE1F1E001900D928A95E1F704
:101D000060910601709107016D5F7F4FF80180813E
:101D1000918144E050E047960E943127FE01EB5B41
:101D2000FF4F808181608083EF57FF4F808181600A
:101D3000808340E25EE460E070E086ED93E00E9424
:101D4000040E61E070E0CE01825B9F4FDF91CF9186
:101D50001F910F910C9470208F929F92AF92BF921F
:101D6000CF92DF92EF92FF920F931F93FC0180813D
:101D70008823B9F0C180D280E380F480858096808A
:101D8000A780B0840E9485038B019C01C501B4012A
:101D90006C0D7D1D8E1D9F1D601B710B820B930BA7
:101DA00003C060E070E0CB011F910F91FF90EF90B6
:101DB000DF90CF90BF90AF909F908F900895CF927B
:101DC000DF92EF92FF920F931F933E2DFC01A081B3
:101DD000B181C280D380E480F580C7019595879555
:101DE000E0FE0CC0FD01E80FF91F0190F081E02D2D
:101DF000EC0DFD1D0190F081E02D01C0F601E32EF8
:101E00008A0F9B1F09951F910F91FF90EF90DF9014
:101E1000CF9008956F927F928F929F92AF92BF92D0
:101E2000CF92DF92EF92FF920F931F93CF93DF93A6
:101E300000D0CDB7DEB76C015C0136E6A30EB11C55
:101E4000D5013C91332309F479C3313009F063C2E1
:101E50003C01BEE66B0E711CF3018081813009F0FC
:101E60004EC086010D551F4FD8014D915C91445FC6
:101E70005F4F7601BDE6EB0EF11CF7016081C601F4
:101E80000E94081AD8014D915C91445F5F4FF701A1
:101E90006081C6010E94501B96012B593F4F49019A
:101EA000882329F1D7014C91242F30E021503109AA
:101EB0005DE0529FC001539F900D1124FC01E15140
:101EC000FD4F2081222379F0F80100811181015F0B
:101ED0001F4F64E0E62ED3012C91F50160818A50FA
:101EE0009D4F0E94DF0ED4018C9185FDCCC1D401A1
:101EF0008C9185FF23C3C6010E949F091FC38230B6
:101F000069F4F601ED55FF4F40815181445F5F4F09
:101F1000F6976081C6010E94081AAFC1833011F59F
:101F2000860103591F4FF8016081C6010E942B1BD7
:101F3000F601E455FF4F80833596D601AC59BF4F6B
:101F40008C918083319613968D919D91AC91808375
:101F50009183A2833497D8018C91808333978081B9
:101F6000826080C0843009F086C07601B3EAEB0E4F
:101F7000F11CD701ED91FC91808983509601235982
:101F80003F4F5901860100551F4F823058F4AF0171
:101F9000445F5F4FD9016C91C6010E949819F80106
:101FA000808302C0D8011C92D701ED91FC91408939
:101FB000F5016081C6010E9422174601FCEA8F0EDE
:101FC000911CD4018C93F601EF54FF4FA854B10932
:101FD0008C918083319613968D919D91AC918083E5
:101FE0009183A283F501B080F601E255FF4FB082E4
:101FF000D701ED91FC918089F601E155FF4F808377
:10200000BBEACB0ED11CF601808184608083D801AD
:10201000FC9063E571E082E294E00E94B6254AE01C
:1020200050E06B2D82E294E00E94252669E571E084
:1020300082E294E00E94B6254AE050E06F2D82E2F1
:1020400094E00E9425266AE082E294E00E94B8258E
:10205000F80180818F3F49F0D4018C91882329F0C9
:10206000F60180818160808369C28AE0D6011D9279
:102070008A95E9F763C28530A1F5F601E359FF4F70
:102080006081FB96608335970190F081E02D808917
:10209000D601A755BF4F8C938350860106551F4F1D
:1020A000823048F4AF01445F5F4FC6010E94981927
:1020B000F801808302C0D8011C92F80180818F3F13
:1020C00009F4DBC0F601E955FF4F80818160808310
:1020D00040E25EE460E070E08FED93E00E94040E69
:1020E000CCC0863009F051C0F601E955FF4F808120
:1020F0008E7F80837601F8EAEF0EF11CD7018C9178
:10210000811109C0F601E655FF4F8081811103C09E
:10211000C6010E945618F7016081662309F4ADC01C
:10212000862F90E001972DE0289FF001299FF00D68
:102130001124E151FD4F8081882309F49EC0D6010E
:10214000A755BF4F8C91813051F403811481F60162
:10215000E655FF4F208141E0C6010E94C617D70116
:102160002C9130E0215031094DE0429FC001439F46
:10217000900D1124E12C00E010E026E040E061E049
:102180008A509D4F0E94DF0E78C0883009F07FC0D2
:10219000F601E955FF4F808180FF6FC03601B8EA34
:1021A0006B0E711CF3016081FB978081681365C021
:1021B0005601F3EAAF0EB11CD501ED91FC917F0100
:1021C000BCE0EB0EF11C00810A504601E9EA8E0EDC
:1021D000911CF601E655FF4F2081D4014C91C601B8
:1021E0000E943B17F3018081811147C0D4018C917B
:1021F000811143C010E000E0D501ED91FC91212F49
:1022000030E0808190E00A972817390734F5E20F13
:10221000F31F84858A3009F401E089836EE571E05B
:1022200082E294E00E94B6254AE050E0612F82E20B
:1022300094E00E94252660E671E082E294E00E942C
:10224000B625BE016F5F7F4F82E294E00E9499083D
:102250006AE00E94B8251E5FCFCF002371F0C6014F
:102260000E94561863E671E082E294E00E94B6256F
:102270006AE082E294E00E94B825F601EB59FF4F34
:10228000808185FF5BC1C6010E94250957C1893045
:1022900021F4C6010E94260C51C18A3091F4F60146
:1022A000ED55FF4F808191814AE06AE171E00C9623
:1022B0000E948319882309F441C1C6010E94280E97
:1022C0003DC18E3009F03AC1F601E359FF4F6081FC
:1022D000262F30E0215031094DE0429FC001439F3D
:1022E000900D1124FC01E151FD4F2081222369F062
:1022F000F601ED59FF4F20812B50860101591F4FE8
:10230000E22E2EE0462F61E015C120E040E0C6013C
:102310000E94C10913C1323009F042C0FC01E359E7
:10232000FF4F808181110DC0B897808180FF06C169
:102330007F969081F6018381981300C18FEF81838E
:10234000FDC0813041F4F601EB5BFF4F808180FFDF
:10235000F5C07E96EECF823009F4F0C0843009F4E7
:10236000EDC0803809F0EAC03093D4038091D503E2
:102370008F5F8093D503F601E954FF4F84ED93E01E
:102380009183808332963083319681E080833597C4
:102390008081D601AA54BF4F90E49C93806362CEA3
:1023A000313109F056C0FC01E359FF4F8081823082
:1023B00011F531962081422F50E0415051093DE006
:1023C000349FC001359F900D1124FC01E151FD4F58
:1023D0003081332309F4B2C0F601ED59FF4F30814B
:1023E0003B50E05CFF4F00811181045F1F4FE32EE3
:1023F00042E061E19FC0843009F0A0C0F601E259DB
:10240000FF4F808181119AC0C6010E94A116C601AA
:102410000E94DB16C6010E94561868E070E0C601F3
:10242000825B9F4F0E94702043E061E0C6010E94E2
:102430000E17F601EB59FF4F908195FF7FC08F3F3C
:1024400009F421CF20E040E060E0C6010E944A0983
:1024500075C0323109F472C03E3308F46FC08C018C
:102460003E3361F5FC01ED59FF4F80818F3031F52E
:102470000D551F4FD801ED91FC911197E58486858C
:1024800085876D917C91665F7F4FC6012A830E948C
:10249000E919F82E2A81882351F0F80140815181F1
:1024A000465F5F4F682FC6010E949819282FD801F8
:1024B000ED91FC91E586F11010C040C001561F4F10
:1024C000B801C6010E94E919F82E8823B9F1A801C4
:1024D000682FC6010E949819282F4F2D50E04150B7
:1024E00051098DE0849F4001859F900C1124F401D7
:1024F000E151FD4F8081882309F4C5CE0581168105
:1025000041816F2DC6010E94C617F601ED59FF4F9C
:1025100080818950E05CFF4F00811181065F1F4F71
:10252000D601A259BF4FF697E82E2C914081F501B4
:102530006081C4018A509D4F0E94DF0E0F900F9062
:10254000DF91CF911F910F91FF90EF90DF90CF908F
:10255000BF90AF909F908F907F906F900895089557
:10256000FC01718360838481897F84831582168254
:10257000178210860895CF93DF93EC0188EE93E0E5
:102580000E94420D882309F18C818670F1F082301F
:1025900019F40E94A80504C0843019F40E94B605FD
:1025A0008B8391E02B818A81281708F090E08C8141
:1025B00090FB80F98C834D815E816F81788588EEF8
:1025C00093E0DF91CF910C94040EDF91CF910895A9
:1025D0000F931F936370660FFC015481597F562B34
:1025E0005483058316832783308742831F910F917D
:1025F0000C94BB12FC018481817008950895CF93DF
:10260000DF931F92CDB7DEB769830E9478030E94E3
:10261000750389810E9463030F90DF91CF910C9421
:102620007A03CF93DF93EC0166E30E94FF126AE323
:10263000CE010E94FF1269E3CE01DF91CF910C948D
:10264000FF12EF92FF920F931F93CF93DF9300D06F
:102650001F92CDB7DEB7122F49836A837B830E9416
:1026600078030E9475034981842F806C0E94630364
:102670006A81062FE62E7B81F72E8E2D801B811717
:1026800038F480E00E946303F70181937F01F5CF66
:102690000F900F900F90DF91CF911F910F91FF90AE
:1026A000EF900C947A03EF92FF920F931F93CF93C6
:1026B000DF9300D01F92CDB7DEB7122F4A835B8322
:1026C00069830E9478030E9475036981862F806464
:1026D0000E9463034A81042FE42E5B81F52E8E2D28
:1026E000801B811730F4F70181917F010E94630301
:1026F000F6CF0F900F900F90DF91CF911F910F9118
:10270000FF90EF900C947A03CF93DF9300D0CDB776
:10271000DEB74A8369830E9478030E9475034A8169
:102720006981862F842B0E94630380E00E946303EB
:1027300089830E947A0389810F900F90DF91CF9156
:102740000895EF92FF920F931F93CF93DF931F9201
:10275000CDB7DEB77C018B0166E349830E94FF128F
:102760006AE3C7010E94FF126BE3C7010E94FF12D8
:1027700049814423C9F165E3C7010E94FF122FEF8D
:1027800086E791E0215080409040E1F700C00000D2
:10279000EFEFF6E721E0E150F0402040E1F700C024
:1027A00000008FEF96E7E1E081509040E040E1F7D4
:1027B00000C00000FFEF26E781E0F150204080409C
:1027C000E1F700C000009FEFE6E7F1E09150E04044
:1027D000F040E1F700C000002FEF86E791E02150C4
:1027E00080409040E1F704C0EFECF7E03197F1F75B
:1027F00000C00000F80120812F5FA8016FE3C7012E
:102800000E9453136AE3C7010E94FF1265E3C701E8
:102810000E94FF1218EC40EC65E3C7010E9484138C
:102820008D3069F040EC65E3C7010E948413833169
:1028300031F4FAE1FA95F1F700C0115061F781E047
:102840000F90DF91CF911F910F91FF90EF9008951E
:102850000F931F93CF93DF93EC018B0140EC6BE35D
:102860000E948413982F9F7761F187FD2AC040E86A
:102870006FE3CE010E948413F80180838D3310F53D
:10288000282F4FE3B8016F5F7F4FCE010E942113C5
:1028900040E86FE3CE010E94841387FD8095898311
:1028A00089818695885B898340E86FE3CE010E9429
:1028B0008413982F9F779A83881F8827881F88837F
:1028C00002C0F80110826AE3CE010E94FF1266E3A3
:1028D000CE010E94FF1264E3CE010E94FF126CE35E
:1028E000CE010E94FF12F8018081DF91CF911F91EC
:1028F0000F9108951F93CF93DF93EC010E9478030B
:102900000E9475030E947A0318EC40EC65E3CE0147
:102910000E9484138F3F31F064E3CE010E94FF12C6
:1029200018EC0DC08AE18A95F1F700C0115069F7E3
:10293000F3CF9AE19A95F1F700C0115041F040ECC5
:1029400068E3CE010E948413982F907591F386FB63
:10295000882780F9DF91CF911F910895CF93DF935E
:1029600000D0CDB7DEB74A8369830E9478030E9406
:10297000750389810E9463034A81842F0E94630347
:102980000F900F90DF91CF910C947A030F931F93C8
:10299000CF93DF93EC010E9456030E947A038DE0EF
:1029A0008A95F1F700000E9478039AE19A95F1F771
:1029B00000C00E947A03EDE6EA95F1F7000060E3BB
:1029C000CE010E94FF128FE19EE40197F1F700C053
:1029D000000009EB10E0F80131964491F801649190
:1029E000CE010E94AE140E5F1F4FF0E00D3E1F0798
:1029F00091F763E3CE010E94FF1240EC65E3CE0144
:102A00000E948413813029F082E08A95F1F700C09A
:102A1000F4CF40EC6EE3CE010E94AE1464E3CE012D
:102A20000E94FF126CE3CE01DF91CF911F910F91B5
:102A30000C94FF12FC0167708281887F862B828351
:102A40004483258308950895FC017183608308956C
:102A5000EF920F931F93CF93DF93EC01162F888192
:102A6000998164EF71E08C5A9F4F0E94B41C888159
:102A70009981825B9F4F0E9448211130D1F58A8154
:102A80008770813021F4888199810E94280E8A8183
:102A90008770823009F07DC08091EF02882309F4AD
:102AA00078C0A091F602B091F7024091F8025091DF
:102AB000F9026091FA027091FB02CB01959587951E
:102AC00060FF0CC0FD01E80FF91F0190F081E02DBF
:102AD000E40FF51F0190F081E02D01C0FA01E12C17
:102AE00000E010E020E041E060E08A0F9B1F0995C4
:102AF00050C0123009F44DC01330C9F48A81877078
:102B0000813041F4888199816AE070E0825B9F4F57
:102B10000E9470208A8187708230D9F588819981DE
:102B2000DF91CF911F910F91EF900C94280E1430EC
:102B300029F48881998160E070E022C0163049F55F
:102B40008881998160E070E0825B9F4F0E947020D5
:102B500008E120E040E060E0888199810E94FD1753
:102B6000888199810E94A116888199810E94DB1633
:102B7000888199810E9456188881998169E070E066
:102B8000825B9F4FDF91CF911F910F91EF900C943B
:102B90007020DF91CF911F910F91EF900895CF9307
:102BA000DF93EC018A81877009F4AEC06D818C815E
:102BB0000E9491038770880F880F880F9A81977CF5
:102BC000982B9A83892F8873803199F448EB5BE0C6
:102BD00060E070E081EF93E00E94040E88819981AB
:102BE0006CEA7DE08C5A9F4F0E94B41C8A818064FD
:102BF00032C096FF89C0883181F540ED57E060E032
:102C000070E081EF93E00E94040E8881998164EC6A
:102C100079E08C5A9F4F0E94B41C9A818B8197FF58
:102C200007C080FF02C065E00EC082608B830EC0CB
:102C300082FF04C08B7F8B8362E005C081FD06C0EC
:102C400084608B8361E0CE010E9428158B818E7F8A
:102C50008B838A818F778A8357C0811138C081EF37
:102C600093E00E94420D882391F1888199816CEA5A
:102C70007DE08C5A9F4F0E94B41C8A8187FF0DC053
:102C80004CE251E060E070E081EF93E00E94040EBE
:102C90008B8181608B8364E015C08B8148EB5BE0A6
:102CA00060E070E081FF06C081EF93E00E94040EB7
:102CB00066E008C081EF93E00E94040E8A8180687C
:102CC0008A8363E0CE01DF91CF910C9428158A812D
:102CD00088738830C9F481EF93E00E94420D882305
:102CE00099F08B8181FF08C08881998160E070E054
:102CF000825B9F4F0E9470209B818A819C7F9B7F7B
:102D00009B838F778F7BA7CFDF91CF910895CF9350
:102D1000DF9300D01F92CDB7DEB7209126019091AE
:102D200025018091240129839A838B8369817A818B
:102D30008B819C810F900F900F90DF91CF91089520
:102D40000895CF93C0E080910401C81788F484E00F
:102D5000C89FF0011124E65FFE4F618184E0689F07
:102D6000B0011124828193810E94DF04CF5FEBCFF9
:102D7000CF910895742F84E0689FF0011124EA5FD9
:102D8000FE4F82819381A90164E024E0729F800D4F
:102D9000911D11240E94D104089580910401861789
:102DA00040F084E0689FF0011124EA5FFE4F8181CA
:102DB000089580E00895CF93DF93C0E0D6E080913E
:102DC0000501C81740F58C2F90E0D89FF001D99FDE
:102DD000F00D1124E25FFE4F21812350223048F490
:102DE000E08124E0E29FF0011124EA5FFE4F21819F
:102DF00001C021E0D89FF001D99FF00D1124E25FBE
:102E0000FE4F6381269FB0011124848195810E9429
:102E1000DF04CF5FD4CFDF91CF910895909105016A
:102E2000EFE0F1E080E0891759F0DF0111972C9174
:102E3000261303C02081241721F08F5F3696F3CF2D
:102E40008FEF08950E940E178F3F99F096E0899FAB
:102E5000F0011124E25FFE4F238130E0220F331F87
:102E600080E08F5F121613061CF420513109F9CF50
:102E7000089580E008956F927F928F929F92AF9213
:102E8000BF92CF92DF92EF92FF920F931F93CF9357
:102E9000DF931F92CDB7DEB7162F29830E940E173E
:102EA00029818F3F09F44EC0112359F094E0199FF6
:102EB000D0011124AA5FBE4F11969C91291708F0EA
:102EC00041C096E0899FF0011124E25FFE4F8381AB
:102ED00064807580829F600C711C112410E06F016A
:102EE00083E0C80ED11C5F0192E0A90EB11C10173F
:102EF00040F5F6016081209108013091090180E0E0
:102F000090E0412F50E0D701A40FB51F782F86170E
:102F1000B0F4F5019080FC01E90DF11DE20FF31F03
:102F2000E4910196FC91EF13F1CF4F5F5F4F4E0D8F
:102F30005F1D61E0C301870F911D0E94D8041E5FD1
:102F4000D6CF01C080E00F90DF91CF911F910F91FC
:102F5000FF90EF90DF90CF90BF90AF909F908F90B9
:102F60007F906F900895662379F04350423060F46B
:102F700084E0689FF0011124EA5FFE4F81E09181B7
:102F8000291718F080E0089581E00895CF92DF922C
:102F9000EF92FF920F931F93CF93DF93EC01E62EF6
:102FA000D42EF22E0E940E17C82E8FEFC816D9F01D
:102FB0002F2D4D2D6E2DCE010E94B317882399F031
:102FC00086E0C89EF0011124E25FFE4F23818481D8
:102FD0009581A801622F2F9D800D911D11240E94C3
:102FE000D10481E001C080E0DF91CF911F910F916A
:102FF000FF90EF90DF90CF900895BF92CF92DF9235
:10300000EF92FF920F931F93CF93DF931F92CDB751
:10301000DEB77C01D62EC42E122F0E940E17B82EBA
:103020008FEFB816B9F1212F4C2D6D2DC7010E94DD
:10303000B317882379F186E0B89EF0011124E25F8E
:10304000FE4F84819581338160910801709109015F
:1030500040E050E0DF011296242F4317D0F4EC91AA
:103060007A01EE0EF11CF701E60FF71FE4914F5FB6
:103070005F4FE013F1CF319F800D911D1124AE0100
:103080004F5F5F4F61E0820F911D0E94D1048981E3
:1030900002C001C080E00F90DF91CF911F910F918E
:1030A000FF90EF90DF90CF90BF9008950F93CF9354
:1030B000DF93EC010AE020E040E060E00E94FD17B1
:1030C0008093FA030BE020E040E060E0CE010E9434
:1030D000FD178093FB030CE020E040E060E0CE01B0
:1030E0000E94FD178093FC03DF91CF910F9108950B
:1030F0006F927F929F92AF92BF92CF92DF92EF92A8
:10310000FF920F931F93CF93DF931F92CDB7DEB73C
:103110006C01B62EA42E122F37010E940E17F82E26
:103120002FEF821709F45EC0212F4A2D6B2DC601A7
:103130000E94B317882309F455C00295007F0695B5
:103140004F2D50E086E0F89EF0011124E25FFE4F23
:103150008381782F701B17162CF0D3011D921C92BF
:1031600082E041C078300CF078E096E0949FF00166
:10317000959FF00D1124E25FFE4FA280E480F58060
:10318000819FE00CF11C1124912CC72EDD24C7FC7B
:10319000D094B12C10E0E00EF11E892D90E08C153A
:1031A0009D05ECF49C012A0D3B1D200F311FE09181
:1031B0000801F0910901E20FF31FE491D301EC93B0
:1031C000A301B2E06B0E711C4F5F5F4F61E08E0D8B
:1031D0009F1D79830E94D10493947981DECF872F3C
:1031E000880F01C080E00F90DF91CF911F910F9168
:1031F000FF90EF90DF90CF90BF90AF909F907F9027
:103200006F900895862728E030E0AC0156954795E9
:1032100080FF06C0CA0161E0862760EA962701C0E8
:10322000CA012150310989F70895DF92EF92FF9288
:103230000F931F93CF93DF9300D000D0CDB7DEB7AD
:103240008C010E94D0041C821B82E090050186E064
:10325000E89E7001112480E090E0D12C2D2D30E00B
:103260002E153F0544F4F901E25FFE4F60810E9494
:103270000219D394F3CF9A838983AE014D5F5F4FD8
:1032800062E080E090E00E94D10429813A818B8144
:103290009C812817390771F0C8010E94A116C80146
:1032A0000E94DB16AE014F5F5F4F62E080E090E06E
:1032B0000E94D8048091240190912501892B39F432
:1032C00044E251E063E082E090E00E94D10480910A
:1032D0001A0190911B01892B39F44AE151E063E016
:1032E00082E090E00E94D104C8010E9456180F901D
:1032F0000F900F900F90DF91CF911F910F91FF9042
:10330000EF90DF90089550E00E943A2721E0892B4A
:1033100009F020E0822F0895CB0143E064E271E0E0
:103320000C948319CB0143E06AEF73E00C9483198A
:10333000BF92CF92DF92EF92FF920F931F93CF93A2
:10334000DF9300D000D0CDB7DEB77A01662381F1DC
:1033500080910401861770F1B12C84E0689F900180
:1033600011242A5F3E4F89010F5F1F4F6901E2E080
:10337000CE0ED11CF8018081B816E0F4F6018081F0
:103380009181AE014F5F5F4F64E0F4E0BF9E800D1E
:10339000911D11240E94D10444E0B701CE01019691
:1033A0000E948319811102C0B394E4CF8B2D03C016
:1033B00080E001C08FEF0F900F900F900F90DF9182
:1033C000CF911F910F91FF90EF90DF90CF90BF9022
:1033D0000895FF920F931F93CF93DF93EC018B011E
:1033E000FF24F394809104018F1548F0A8016F2DFC
:1033F000CE010E9498198F3F21F4F394F3CF80E01F
:1034000001C08F2DDF91CF911F910F91FF900895F3
:103410007F928F929F92AF92BF92CF92DF92EF9264
:10342000FF920F931F93CF93DF93CDB7DEB728970B
:103430000FB6F894DEBF0FBECDBF8A0180910401A4
:10344000861708F442C0FA0180819181A2818D83A0
:103450009E83AF8384818887712CF4E06F9FC001C5
:1034600011248A5F9E4F5C012FEFA21AB20A6C01F1
:10347000E2E0CE0ED11C4601F5018081781618F5E8
:10348000F4E07F9E70011124F60180819181AE01EC
:103490004F5F5F4F64E08E0D9F1D0E94D10444E09A
:1034A000B801CE0101960E948319811110C044E039
:1034B000BE016B5F7F4FCE0101960E94831981117F
:1034C00006C07394D9CF81E00CC080E00AC0F4013B
:1034D0008081918164E070E08E0D9F1D0E94DF0469
:1034E000F0CF28960FB6F894DEBF0FBECDBFDF91A8
:1034F000CF911F910F91FF90EF90DF90CF90BF90F1
:10350000AF909F908F907F900895662349F061500F
:10351000FC01E60FF11D20812223B9F380E008951C
:1035200081E00895CF92DF92EF92FF920F931F9365
:10353000CF93DF93EC017B018A01690163E0CA014B
:103540000E94851A811129C0B801CE010E948C19F0
:10355000882329F1B701CE010E949219811121C05F
:10356000B601CE010E94E91981111DC0B701CE013B
:103570000E948C19811119C0B801CE010E948C19CA
:10358000811102C085E712C063E08AEF93E00E94D8
:10359000851A8823B9F388E709C082E607C08CE65C
:1035A00005C08DE603C080E701C089E6DF91CF91B9
:1035B0001F910F91FF90EF90DF90CF900895CF92E1
:1035C000DF92EF92FF920F931F93CF93DF9300D080
:1035D00000D0CDB7DEB7662381F180910401861754
:1035E00060F1D12CC12C24E0629FB00111246A5FEC
:1035F0007E4F8B010F5F1F4F7B0182E0E80EF11CB5
:10360000F8018081D816B8F4F70180819181AE016C
:103610004F5F5F4F64E0F4E0DF9E800D911D112449
:103620000E94D10464E0CE0101960E94851A8111A6
:10363000C394D394E5CF8C2D01C080E00F900F9000
:103640000F900F90DF91CF911F910F91FF90EF900E
:10365000DF90CF900895CF93DF9320910401261738
:10366000D8F024E0629FF0011124EA5FFE4FC1818F
:10367000D0E00E94DF1A9E01281B31092F5F3F4FC7
:10368000220F331F220F331F80E0121613062CF473
:10369000205131098F5FF9CF80E0DF91CF910895FC
:1036A0004F925F926F927F928F929F92AF92BF9252
:1036B000CF92DF92EF92FF920F931F93CF93DF93FE
:1036C00000D000D0CDB7DEB76C01E62E8A01809124
:1036D0000401861710F480E0C6C0C6010E94981944
:1036E0008F3F11F0F8011382F8012081318142816E
:1036F00029833A834B8384818C83AE014F5F5F4F74
:103700006E2DC6010E9498198F3F11F0F8011482A6
:1037100077247394F8018381811101C0712CF80121
:103720008481882319F0F72DF2607F2E812C912C53
:10373000F12C21E0E21AF108EE0CFF1CEE0CFF1C4C
:10374000C701865F9E4F6C01EFEFCE1ADE0A5C0167
:10375000F2E0AF0EB11CF60180818816B8F4F501D5
:1037600080819181AE014F5F5F4F64E0F4E08F9EF6
:10377000800D911D11240E94D10464E0CE010196B8
:103780000E94851A811193948394E5CFF801938167
:103790008481992331F08823D9F0F1E0F91518F0EC
:1037A0009ACF811115C0612CC701865F9E4F5C01C5
:1037B0002FEFA21AB20A7C01E2E0EE0EF11C4424C3
:1037C000439452E0552E4801F4E08F0E911C1BC02B
:1037D000992009F480CFE7CF24E0629E6001112494
:1037E000F70180819181AE014F5F5F4F64E08C0DE6
:1037F0009D1D0E94D10464E0CE0101960E94851AAD
:10380000811106C06394F5018081681628F305C014
:1038100070FC05C071FC10C0F5CF81E024C0742499
:10382000F70180819181A80164E08C0D9D1D0E94AB
:10383000D804F8016582E6CF7524F7018081918173
:10384000A80163E08C0D9D1D0E94D804F7018081C2
:1038500091810396A40161E08C0D9D1D0E94D80406
:10386000F8016682CFCF0F900F900F900F90DF91ED
:10387000CF911F910F91FF90EF90DF90CF90BF906D
:10388000AF909F908F907F906F905F904F90089532
:103890008F929F92BF92CF92DF92EF92FF920F93FF
:1038A0001F93CF93DF931F92CDB7DEB7B42E49019C
:1038B00080910401861708F43FC0D12CC12C20E070
:1038C00034E0639FB00111246A5F7E4F8B010F5F6C
:1038D0001F4F7B0182E0E80EF11CF8018081D816B1
:1038E00018F5F70180819181A40164E0F4E0DF9E86
:1038F000800D911D112429830E94D10464E0C4012C
:103900000E94851A298181110DC02C5FCB1006C041
:103910002031A0F434E0830E911C04C0203110F05B
:10392000C39420E0D394D9CFF40110821182128283
:10393000138284E0820F03C080E001C0822F0F90C9
:10394000DF91CF911F910F91FF90EF90DF90CF907B
:10395000BF909F908F9008950895FC0171836083BC
:103960008281887F82830895CF92DF92EF92FF92C7
:103970006B01E12CF12C8DEF93E00E94AC0EC6168A
:10398000D706E806F90650F0B701A6018DEF93E0DF
:10399000FF90EF90DF90CF900C94040EFF90EF908B
:1039A000DF90CF900895CF93DF93EC0167708A8109
:1039B000887F862B8A830E943C030E94470560ED26
:1039C00077E0CE01DF91CF910C94B41CCF93DF93BD
:1039D000EC018A81877009F47BC08DEF93E00E942F
:1039E000420D882309F474C00E943D03811170C008
:1039F00088819981FC01EB5BFF4F208120FD68C02D
:103A0000EA59FF4F208120FD63C03497208120FDBB
:103A10005FC07F96208120FD5BC0EC57F1092081BB
:103A200026FD56C02A8127702130D9F4895A9F4F2C
:103A30000E947A149A8180FB95F99A839872903249
:103A400019F48A8188600CC0983231F48A81877FAA
:103A50008A8364EF71E037C0983019F48A81877FD8
:103A60008A8388819981895A9F4F0E941113888186
:103A7000998160E070E0825B9F4F0E947020F89413
:103A80008A818F70813011F40E9410058A818F70B5
:103A9000893011F40E9402058A818770823011F406
:103AA0000E9410058A818770833011F40E941E05E0
:103AB00078940E942C058A818770843011F00E94CE
:103AC000410566E070E0CE01DF91CF910C94B41C0B
:103AD000DF91CF91089508950F931F93CF93DF93B4
:103AE000EC018B010E940C0364E071E082E294E03F
:103AF0000E949125FE01EE5BFF4F118300833297F8
:103B0000D183C083DF91CF911F910F9108956F9260
:103B10007F928F929F92AF92BF92CF92DF92EF925D
:103B2000FF920F931F93CF93DF93EC018C01005C06
:103B30001F4FD801ED91FC91808190E00A974CF0E5
:103B40002C813D814E812CAF3DAF4EAF82858F736E
:103B50008FAF7E01B2E4EB0EF11C9E01245C3F4F5F
:103B6000AE01495F5F4FBE016C5F7F4FF7018081FF
:103B700091810E94921A782ED801CD90DC90F601A6
:103B800060806394682F82E294E00E94B82561E02F
:103B900071E082E294E00E94912500E010E0A62C02
:103BA000B12C061578F54601D6016C9170E084E0E1
:103BB000759567958A95E1F76A30710514F0695C2F
:103BC00001C0605D82E294E00E94B8250F5F1F4F44
:103BD000BFEFCB1ADB0AF40160816F70862F90E093
:103BE0000A9714F0695C01C0605D82E294E00E9473
:103BF000B8250A151B05ACF660E282E294E00E944B
:103C0000B825CFCF60E282E294E00E94B82568E256
:103C100082E294E00E94B8250E948503AB01BC01BA
:103C20002AE030E082E294E00E94182669E282E213
:103C300094E00E94B8256AE082E294E00E94B825F0
:103C4000FCE67F16C9F085E77816B1F09A81888185
:103C500096FF0BC090910604981307C06DEE70E0BC
:103C600082E294E00E94912507C080930604D70168
:103C70008D919C910E940A0F1882DF91CF911F9124
:103C80000F91FF90EF90DF90CF90BF90AF909F90FB
:103C90008F907F906F9008950895FC0171836083E9
:103CA0000895DF92EF92FF920F931F93CF93DF93CC
:103CB000D62EE62FF0E031975DE05E9FE0015F9F3A
:103CC000D00D1124FE01E151FD4F60834183CA50A4
:103CD000DD4FD90112964D915D916D917C911597B3
:103CE0004A835B836C837D832D913C913983288348
:103CF00014830383F682E58220E041E06D2DFC0110
:103D0000808191810E94C617E12C00E010E026E03E
:103D100040E061E0CE010E94DF0EDF91CF911F9164
:103D20000F91FF90EF90DF900895EF920F931F9304
:103D3000CF93DF93C0E0DDE080910401C817A8F4C1
:103D4000DC9FC0011124FC01E151FD4F20812223A1
:103D500051F0E12C00E010E020E040E060E08A500B
:103D60009D4F0E94DF0ECF5FE7CFDF91CF911F9174
:103D70000F91EF900895CF93DF93EC0168E20E94DA
:103D8000B8250E948503AB01BC012AE030E0CE01DA
:103D90000E94182669E2CE010E94B825CE01DF916B
:103DA000CF91089508950F931F93CF93DF93EC0164
:103DB0008B010E940C036DE171E082E294E00E94AD
:103DC00091251C830B83FE01EF5BFF4F2596D1836A
:103DD000C083DF91CF911F910F9108956F927F92D1
:103DE0009F92AF92BF92CF92DF92EF92FF920F938A
:103DF0001F93CF93DF931F92CDB7DEB73C01DC0159
:103E000011968C91119781110CC017968C91179770
:103E100085FF04C083E011968C9303C081E0F30119
:103E20008183D3019C9111968C91981730F487E08F
:103E300094E00E94420D81110EC0D3019C91119615
:103E40008C91981708F468C087E094E00E94420DB6
:103E5000811101C161C0F301878180688783EC5BB8
:103E6000FF4F80818D7F8083D30116968C911697AA
:103E700012968C9312978C918F5F8C9343E064E23F
:103E800071E0C3010C960E94831983010F5B1F4FE1
:103E9000F30123813481882309F47AC0F801608119
:103EA0007181F901ED55FF4FDB014C9150E04F5FFF
:103EB0005F4F808191810E9447278FEFF3018083BC
:103EC00069E171E082E294E00E949125F30183812F
:103ED0009481825B9F4FDC012C9120FD04C064E043
:103EE00070E00E947020D801ED91FC919080939435
:103EF0007F0100E010E0C92CD12C091508F47BC02B
:103F000060E282E294E00E94B82582E294E00E949E
:103F1000BB1E6AE00E94B825F30180818F3F09F043
:103F2000C6C0EC5BFF4F8081D3011C9211961C929E
:103F30008D7F8E7F808340E050E0BA0187E094E07F
:103F40000E94040EF3018381948164E670E08C5A30
:103F50009F4F0E94B41CD30113968D919C9114978E
:103F6000825B9F4FFC01208120FDA1C065E070E0D5
:103F70000F90DF91CF911F910F91FF90EF90DF9005
:103F8000CF90BF90AF909F907F906F900C947020D7
:103F9000D30117964C9142954170F801608171816F
:103FA000C90149830E94270D0E946F03D8016D91BA
:103FB0007C91F301838194814981895A9F4F0E94AA
:103FC000A1130E946903D8016D917C91F301838153
:103FD00094810E940E0DD30117968C9185FF08C025
:103FE0004CE251E060E070E087E094E00E94040E53
:103FF00065E171E067CF5701F701608170E084E00F
:10400000759567958A95E1F76A30710514F0695CDA
:1040100001C0605D82E294E00E94B8250F5F1F4FEF
:10402000FFEFEF1AFF0AD5016C916F70862F90E0B9
:104030000A9714F0695C01C0605D82E294E00E941E
:10404000B8250C151D050CF058CF60E282E294E013
:104050000E94B82552CFD3011C9211961C92119741
:10406000F301EC5BFF4F80818E7F808317969C91DC
:1040700095FF1DC082608083F3018381948164E693
:1040800070E08C5A9F4F0E94B41CD30113968D91FF
:104090009C91149766E070E0825B9F4F0E947020B5
:1040A00069E071E082E294E00E94912529CF0F90AF
:1040B000DF91CF911F910F91FF90EF90DF90CF9004
:1040C000BF90AF909F907F906F9008950895FC01EE
:1040D00052834183637085818C7F862B858308950D
:1040E0000F931F93CF93DF93EC018B018D8183702E
:1040F00009F4C9C080E00E94220380E00E942F03DF
:104100000130110571F42D81237030E02150310907
:1041100047E0429FC001439F900D112481519E4F63
:1041200098C00230110571F42D81237030E02150C8
:10413000310947E0429FC001439F900D11248F51E8
:104140009E4F87C00330110571F42D81237030E03C
:104150002150310947E0429FC001439F900D112437
:104160008D529E4F76C00430110571F42D8123705D
:1041700030E02150310947E0429FC001439F900D3C
:1041800011248B539E4F65C00530110571F42D81AC
:10419000237030E02150310947E0429FC001439F26
:1041A000900D112489549E4F54C00630110571F4AE
:1041B0002D81237030E02150310947E0429FC0013A
:1041C000439F900D112487559E4F43C00730110522
:1041D00071F42D81237030E02150310947E0429F76
:1041E000C001439F900D112485569E4F32C0083068
:1041F000110571F42D81237030E02150310947E021
:10420000429FC001439F900D112483579E4F21C0B0
:104210000930110571F42D81237030E021503109EE
:1042200047E0429FC001439F900D112481589E4F4B
:1042300010C00A30110579F42D81237030E021502F
:10424000310947E0429FC001439F900D11248F58D0
:104250009E4F9C838B838881816088838D8183704E
:1042600080628D83EB81FC818081877011F0012B4E
:1042700051F440E050E0BA0180E194E00E94040E65
:1042800088818E7F8883DF91CF911F910F91089550
:10429000FC0185818370A9F080E00E9422038FE3F6
:1042A0009CE90197F1F700C0000081E00E94220321
:1042B000EFE3FCE93197F1F700C0000080E00C94D7
:1042C00022030895CF93DF93EC01888180FF7AC0A9
:1042D00080E194E00E94420D882309F473C0EB81D1
:1042E000FC818D81869586958770E80FF11D41814F
:1042F0008AE0489FA0011124662757FD6095762F1C
:1043000080E194E00E94040EEB81FC81808186FFB5
:104310000DC08D81869586958770E80FF11D91817E
:10432000992321F0809581700E942203EB81FC810A
:10433000808187FF0DC08D81869586958770E80FF7
:10434000F11D9181992321F0809581700E942F03A6
:104350006D81462F469546954F5F4770842F880F95
:10436000880F637E682B6D83EB81FC8150E0908128
:10437000292F277030E04217530724F1892F8873C3
:1043800011F4637E16C0462F429546954770242F40
:1043900030E09695969596959770892F90E028171E
:1043A00039074CF481E0840F8295880F807E63701A
:1043B000682B6D8307C060E070E0CE01DF91CF9184
:1043C0000C947020DF91CF910895DC0113967C93BB
:1043D0006E93129715965C934E93149717963C9391
:1043E0002E9316976115710511F0FB01099408953C
:1043F0000F93FC01808560FB80F9808722873387DB
:1044000044875587018744EF51E060E070E089E11F
:1044100094E00F910C94040ECF93DF93EC018D89FF
:104420009E890E9487162227362F472F582FED8905
:10443000FE89EC5BFF4F8081282B6DE67EE486ECE5
:1044400091E40E94B726675C7F4C8F4F9F4F682F87
:1044500070E080E090E060527E4F8F4F9F4FDF9181
:10446000CF9108950F931F93CF93DF93EC0189E1D0
:1044700094E00E94420D882309F468C0888580FD7D
:104480003EC08E8580FD16C081608E8744EF51E06E
:1044900060E070E089E194E00E94040EEC81FD810F
:1044A000309709F009958F85888BEE81FF81808197
:1044B000898B4CC08E7F8E870A851B852C853D8518
:1044C000011511052105310561F4CE010E940C2270
:1044D0009B01AC01AAEFB0E00E942027AB01BC0118
:1044E00002C0B901A801445F51406109710989E125
:1044F00094E00E94040E8F858F5F8F871AC04989D0
:1045000050E0298530E0EE81FF81808190E0BA01A2
:10451000620F731F86179707CCF0421B530B481787
:104520005907A4F08F8591E0980F9F87888B808131
:10453000898B9E01205F3F4F41E06C898D899E8968
:10454000DF91CF911F910F910C94250ADF91CF91AC
:104550001F910F910895FC012389428964898589FF
:1045600096890C94C109611104C041110AC00C94D0
:104570003222613031F4263021F02E3011F40C94C7
:10458000AB220895BF92CF92DF92EF92FF920F93EA
:104590001F93CF93DF9300D000D000D0CDB7DEB70C
:1045A0006C01B62EC901F601368B258B03EB12E2A6
:1045B00020E030E00B831C832D833E83DA82C982A6
:1045C0007601FFEFEF1AFF0A86019E012F5F3F4F32
:1045D0008A5B9F4F0E94511EF601B48A26960FB641
:1045E000F894DEBF0FBECDBFDF91CF911F910F9129
:1045F000FF90EF90DF90CF90BF900895833081F0CF
:1046000028F4813099F08230A1F008958730A9F024
:104610008830B9F08430D1F4809180008F7D03C060
:10462000809180008F7780938000089584B58F7784
:1046300002C084B58F7D84BD08958091B0008F77CE
:1046400003C08091B0008F7D8093B00008950F93D8
:104650001F93CF93DF931F92CDB7DEB7282F30E0A3
:10466000F901EE5DFE4F8491F901EA5CFE4F149171
:10467000F901E65BFE4F04910023C9F0882321F085
:1046800069830E94FE226981E02FF0E0EE0FFF1F98
:10469000E25AFE4FA591B4919FB7F8948C916111A5
:1046A00003C01095812301C0812B8C939FBF0F9075
:1046B000DF91CF911F910F910895FC01818D228D83
:1046C00090E0805C9F4F821B910960E470E00E9443
:1046D000DB260895FC01918D828D981731F0828D33
:1046E000E80FF11D858D90E008958FEF9FEF0895FD
:1046F000FC01918D828D981761F0828DDF01A80FEA
:10470000B11D5D968C91928D9F5F9F73928F90E00B
:1047100008958FEF9FEF089586EF94E2892B49F07B
:104720008AEE92E0892B29F00E94F62481110C94E4
:10473000EA020895FC01848DDF01A80FB11DA35A80
:10474000BF4F2C91848D90E001968F739927848FB1
:10475000A689B7892C93A089B1898C9180648C93A8
:10476000938D848D981306C00288F389E02D808193
:104770008F7D80830895CF93DF93EC01888D88230C
:10478000C9F0EA89FB89808185FD05C0A889B989BE
:104790008C9186FD0FC00FB607FCF5CF808185FF99
:1047A000F2CFA889B9898C9185FFEDCFCE010E9407
:1047B0009A23E7CFDF91CF910895CF92DF92FF92B6
:1047C0000F931F93CF93DF931F92CDB7DEB76C018A
:1047D000DC015B969C915B975C968C915C9798133F
:1047E00007C05096ED91FC915197808185FD32C0B4
:1047F000F601038D10E00F5F1F4F0F731127F02E8E
:10480000F601848DF81211C00FB607FCF9CFD6015E
:104810005096ED91FC915197808185FFF1CFC601B3
:1048200069830E949A236981EBCF838DE80FF11D84
:10483000E35AFF4F6083D6015B960C935B975296C9
:10484000ED91FC91539780818062808381E058963E
:104850008C930DC0D6015696ED91FC9157976083CD
:104860005096ED91FC91519780818064808381E026
:1048700090E00F90DF91CF911F910F91FF90DF900B
:10488000CF900895BF92CF92DF92EF92FF92CF9395
:10489000DF93EC016A017B01B22E60E874E88EE1DF
:1048A00090E0A70196010E94EF26215031094109AD
:1048B00051095695479537952795E889F98982E0FA
:1048C0008083211580E1380798F0E889F989108202
:1048D00060E472E48FE090E0A70196010E94EF2669
:1048E000215031094109510956954795379527952A
:1048F000EC85FD853083EE85FF852083188EEC895D
:10490000FD89B082EA89FB89808180618083EA89A0
:10491000FB89808188608083EA89FB898081806847
:104920008083EA89FB8980818F7D8083DF91CF91AD
:10493000FF90EF90DF90CF90BF9008951F920F925D
:104940000FB60F9211242F938F939F93EF93FF93A2
:10495000E0913204F09133048081E0913804F091C9
:10496000390482FD12C0908180913B048F5F8F7368
:1049700020913C04821751F0E0913B04F0E0EE5DA1
:10498000FB4F958F80933B0401C08081FF91EF9195
:104990009F918F912F910F900FBE0F901F901895A0
:1049A0001F920F920FB60F9211242F933F934F93A4
:1049B0005F936F937F938F939F93AF93BF93EF9387
:1049C000FF9382E294E00E949A23FF91EF91BF91BE
:1049D000AF919F918F917F916F915F914F913F9197
:1049E0002F910F900FBE0F901F90189582E294E0C8
:1049F0000E945D2321E0892B09F420E0822F089595
:104A0000109225041092240488EE93E0A0E0B0E018
:104A10008093260490932704A0932804B09329043C
:104A200081E092E0909323048093220485EC90E04F
:104A300090932F0480932E0484EC90E090933104A3
:104A40008093300480EC90E09093330480933204A0
:104A500081EC90E0909335048093340482EC90E0F4
:104A6000909337048093360486EC90E09093390459
:104A70008093380410923B0410923C0410923D0441
:104A800010923E04089508950E947C260E944325BA
:104A90000E943801CCE8D3E20E94DE012097E1F3C6
:104AA0000E948C23F9CFCF92DF92EF92FF920F9367
:104AB0001F93CF93DF936C017A01EB01E60EF71E93
:104AC00000E010E0CE15DF0561F06991D601ED91AF
:104AD000FC910190F081E02DC6010995080F191F86
:104AE000F1CFC801DF91CF911F910F91FF90EF900F
:104AF000DF90CF9008956115710581F0DB010D9075
:104B00000020E9F7AD0141505109461B570BDC016C
:104B1000ED91FC910280F381E02D099480E090E01A
:104B20000895EF92FF920F931F93CF93DF938C0121
:104B3000FB01C0E0D0E064917F018FEFE81AF80A32
:104B4000662361F0D801ED91FC910190F081E02D98
:104B5000C8010995C80FD91FF701EDCFCE01DF912C
:104B6000CF911F910F91FF90EF9008950C947B25AA
:104B7000DC01ED91FC910190F081E02D09948F9280
:104B80009F92AF92BF92CF92DF92EF92FF920F93DC
:104B90001F93CF93DF93CDB7DEB7A1970FB6F894ED
:104BA000DEBF0FBECDBF7C01C42EE52FCB01D22EC0
:104BB00019A221E02D1510F02AE0D22E8E010F5DF2
:104BC0001F4F8D2C912CA12CB12C6C2D7E2FA5016B
:104BD00094010E94EF268C2DD29E80191124015041
:104BE00011098A3014F4805D01C0895CF80180836A
:104BF000211531054105510521F0C22EE32FCA01CF
:104C0000E4CFB801C7010E947B25A1960FB6F894A6
:104C1000DEBF0FBECDBFDF91CF911F910F91FF90EF
:104C2000EF90DF90CF90BF90AF909F908F900895BE
:104C30002115310541F4DC01ED91FC910190F081E9
:104C4000E02D642F09940C94BF259A01462F50E063
:104C500060E070E00C9418269A01AB0160E070E00F
:104C60000C9418261F920F920FB60F9211242F93B7
:104C70003F938F939F93AF93BF938091C004909184
:104C8000C104A091C204B091C3043091BF0426E0D6
:104C9000230F2D3720F40296A11DB11D05C029E870
:104CA000230F0396A11DB11D2093BF048093C00460
:104CB0009093C104A093C204B093C3048091C40430
:104CC0009091C504A091C604B091C7040196A11D9E
:104CD000B11D8093C4049093C504A093C604B093FF
:104CE000C704BF91AF919F918F913F912F910F90EA
:104CF0000FBE0F901F901895789484B5826084BD84
:104D000084B5816084BD85B5826085BD85B58160CF
:104D100085BDEEE6F0E0808181608083E1E8F0E02F
:104D20001082808182608083808181608083E0E85E
:104D3000F0E0808181608083E1EBF0E0808184603D
:104D40008083E0EBF0E0808181608083EAE7F0E03F
:104D500080818460808380818260808380818160A3
:104D600080838081806880831092C1000895DB0178
:104D70008F939F930E942027BF91AF91A29F800D98
:104D8000911DA39F900DB29F900D11240895AA1B11
:104D9000BB1B51E107C0AA1FBB1FA617B70710F026
:104DA000A61BB70B881F991F5A95A9F78095909558
:104DB000BC01CD01089597FB072E16F4009407D08F
:104DC00077FD09D00E94C72607FC05D03EF49095D8
:104DD00081959F4F0895709561957F4F0895A1E249
:104DE0001A2EAA1BBB1BFD010DC0AA1FBB1FEE1F65
:104DF000FF1FA217B307E407F50720F0A21BB30BB0
:104E0000E40BF50B661F771F881F991F1A9469F72B
:104E100060957095809590959B01AC01BD01CF0187
:104E20000895A29FB001B39FC001A39F700D811D83
:104E30001124911DB29F700D811D1124911D0895A3
:104E40000E941127A59F900DB49F900DA49F800DE7
:104E5000911D11240895EE0FFF1F0590F491E02D90
:104E60000994FB01DC0102C005900D9241505040B5
:104E7000D8F70895FB01DC0104C08D9101908019E1
:104E800021F441505040C8F7881B990B0895FB014D
:104E9000DC0102C001900D9241505040D8F70895B6
:104EA000DC01CB01FC01F999FECF06C0F2BDE1BDEA
:104EB000F89A319600B40D9241505040B8F70895D9
:104EC000DC01CB0103C02D910E946B274150504063
:104ED000D0F70895262FF999FECF1FBA92BD81BD54
:104EE00020BD0FB6F894FA9AF99A0FBE019608956C
:044EF000F894FFCF64
:104EF400010000000102B200AC0001061A0000002B
:104F040000050F00010405011400746C7532303083
:104F1400313233360202066C75782F3132383A203A
:104F240000696E6974207468310A00000000000F83
:104F340006E205B705BF05D205E105613A20002068
:104F44006D2000636E6C3A200020733A20007800D4
:104F5400203A006E6577206D617374657269640A26
:104F64000042141400000000421414000000004E1B
:104F74000A0A320A32648E0A0A320A32645E0A0A61
:104F84000A0A0A645E0A0A0A0A0A645E320A0A0AF9
:104F94000A645E320A0A0A0A640000000000000083
:104FA4004A0A0100000000000000000000008A0519
:104FB40001000000004A050100000000CA050100CC
:104FC4000000005A050A000000004AC80000000062
:104FD400004AC800000000008AC800000000004227
:104FE400323200000000C232320000000000000033
:0E4FF40000DD2353255D2378236A23BB2300B1
:00000001FF
