:100000000C94C4000C94EC000C94EC000C94E703EA
:100010000C941A040C944D040C94191C0C94EC00D0
:100020000C94EC000C94EC000C94EC000C94EC00A0
:100030000C94EC000C94EC000C94431C0C94EC001D
:100040000C940F260C94EC000C947B240C94AD249F
:100050000C94EC000C94EC000C94EC000C94EC0070
:100060000C945E060C94EC00636F6E6669677572A3
:10007000652E2E2E0A00706F776572206F6E2E2E01
:100080002E0A00636869702069643A2000484D496F
:10009000443A20002C204D4149443A20000A0A00ED
:1000A00041736B53696E2D4C6962205620302E329D
:1000B0002E320A0041736B73696E4E65772054656A
:1000C00073740A0001020A0B0C0110003D70030159
:1000D0000041532E0A00002E0206030D04E905CA52
:1000E000063D070C0B060D210E650F5010C811932D
:1000F000120315341601181819161B432156250032
:1001000026112D353EC320207265706561746564CB
:10011000206D6573736167650A003E200052562E9C
:100120000A00202074696D6564206F7574003C2D91
:1001300020003C692000534E2E0A000000000800F9
:10014000020100000304070000000000000000019D
:10015000020408102040800102040810200102045B
:10016000081020040404040404040402020202022D
:100170000203030303030300000000250028002BF3
:100180000000FA017C05DD2411241FBECFEFD8E06A
:10019000DEBFCDBF12E0A0E0B1E0EEEAFEE402C0B7
:1001A00005900D92AE30B107D9F724E0AEE0B2E091
:1001B00001C01D92A83CB207E1F711E0C8E8D1E008
:1001C00004C02297FE010E940A27C238D107C9F74E
:1001D0000E9421250C9455270C940000DF92EF9289
:1001E000FF920F931F93CF93DF93EC018B01D12CE0
:1001F000D80112968C91D816C0F5ED2CF12CD801AF
:10020000ED91FC91EE0DFF1D208130E084E03595ED
:1002100027958A95E1F72A30310514F067E301C08C
:1002200060E3620FCE010E949525D801ED91FC910B
:10023000EE0DFF1D60816F70862F90E00A9714F01D
:10024000695C01C0605DCE010E949525BFEFEB1A8D
:10025000FB0AF801828190E0E816F90624F460E2D6
:10026000CE010E949525D394C3CFCE01DF91CF91CB
:100270001F910F91FF90EF90DF900895DC01ED91B9
:10028000FC910190F081E02D09940F931F93CF937F
:10029000DF9300D000D000D0CDB7DEB71DBA1092EA
:1002A0007A0004E610E0F80180818F6E80831AB82E
:1002B00017B814B81BB818B815B80E944E030E949E
:1002C000D803F80180818F7D808380818B7F80833C
:1002D00080818F7780830E94821B64EB70E082E2D2
:1002E00094E00E946E2560EA70E082E294E00E9451
:1002F0006E25FFE728E381E0F15020408040E1F7E0
:1003000000C0000086E292E00E94B90720E040E0D1
:1003100061E08EE692E00E94F31346E252E062E072
:1003200084E792E00E94872069E070E084E792E031
:100330000E94902060E08AE792E00E94F31C20EC8B
:1003400037E249E050E06BE180E892E00E94F8116A
:1003500026E232E044E061E08FE092E00E949F22DA
:100360002DEE32E04AE052E061E772E08FE092E089
:100370000E94C22100E020E030E0A90160E08FE0AF
:1003800092E00E94D521789484EF93E09A83898348
:1003900023E02B8384E291E09D838C832E836DE8A0
:1003A00070E082E294E00E946E25BE016C5F7F4F98
:1003B00082E294E00E94EE008C0164E970E00E9409
:1003C0006E25BE016F5F7F4FC8010E94EE006DE990
:1003D00070E00E946E2526960FB6F894DEBF0FBE21
:1003E000CDBFDF91CF911F910F91089586E292E0EA
:1003F0000C943A0C1092F7021092F6021092F90245
:100400001092F8021092FB021092FA0286E292E039
:100410000C948B07CF93DF9369E370E08EE093E059
:100420000E94640564E870E08EE093E00E943E0163
:100430008EE093E00E94790542E050E069E370E0CD
:100440008EE093E00E9457058EE093E00E94B10495
:10045000EC018EE093E00E94B10420E030E0382F00
:10046000C22BD32B8EE093E00E94A904892B29F0A4
:100470008EE093E00E94B104F5CF95E0D695C79544
:100480009A95E1F7C093ED0267E271E082E294E0B1
:100490000E9493254AE050E0BE0182E294E00E946F
:1004A000092660E282E294E00E94952568E282E2F9
:1004B00094E00E9495250E94F11BAB01BC012AE04B
:1004C00030E082E294E00E94F52569E282E294E065
:1004D0000E9495256AE082E294E0DF91CF910C942E
:1004E0009525CF9361E085E00E9404238EE093E0A0
:1004F0000E94400569E370E08EE093E00E9464058D
:100500006AE870E08EE093E00E943E018EE093E0A6
:100510000E94790541E050E069E370E08EE093E0ED
:100520000E9457058EE093E00E94A904892B41F1B7
:100530008EE093E00E94B104C82F63E870E082E28D
:1005400094E00E946E25C07F6C2F70E024E07595CA
:1005500067952A95E1F76A30710514F0695C01C06E
:10056000605D82E294E00E94952560E382E294E07F
:100570000E9495256AE082E294E00E949525D2CF00
:1005800066E770E082E294E00E946E2569E370E025
:100590008EE093E00E94640560E870E08EE093E0F6
:1005A0000E943E0163E070E08EE093E00E943E0115
:1005B0008EE093E00E94790568E670E082E294E0C4
:1005C0000E946E2582E08093EE0269E370E08EE087
:1005D00093E00E94640561E870E08EE093E00E9481
:1005E0003E016091EE028EE093E00E9401058EE0F4
:1005F00093E00E94790561E371E082E294E0CF919B
:100600000C94932582E294E00E943A23892BD9F03E
:1006100082E294E00E9455238A3039F410920E024F
:1006200090916B02916090936B02982F9F7D9154F3
:10063000963018F080538A3028F780910E028F5F31
:1006400080930E02DFCF0895579A5F9841980895DE
:10065000229A239A2498259A529880E58CBDE8E640
:10066000F0E080818460808308958EBD0DB407FE24
:10067000FDCF8EB50895EDE6F0E080818460808343
:100680000895EDE6F0E080818B7F808308952C99BA
:10069000FECF08952A9808952A9A0895549A549A54
:1006A0000895813011F45C9A0895811102C05C981C
:1006B00008958BB190E189278BB90895813011F4A9
:1006C0005C9A0895811102C05C9808958BB190E105
:1006D00089278BB9089582E1ECEFF2E0DF011D92EA
:1006E0008A95E9F708958F929F92AF92BF92CF9229
:1006F000DF92EF92FF920F931F93CF93DF93C62E5B
:10070000E82EF12C96E0899FE0011124C450DD4FC2
:10071000D88001E010E0062E01C0000F0A94EAF72D
:10072000D02289818023D816E1F00E94F11B8A80B3
:100730009B80AC80BD80681979098A099B09653066
:1007400071058105910568F0DD2029F08981802BF4
:10075000898383E016C0898100950823098382E09C
:1007600010C086E08E9DF0018F9DF00D1124E450A5
:10077000FD4F808190E002C095958795CA94E2F77D
:100780008170DF91CF911F910F91FF90EF90DF90DB
:10079000CF90BF90AF909F908F90089562E082E0DD
:1007A0000E94730391E0823009F090E0892F089550
:1007B0002098289A0E946B03E8E6F0E0808181602F
:1007C0008083EBE6F0E080818160808308951F9252
:1007D0000F920FB60F9211242F933F934F935F9375
:1007E0006F937F938F939F93AF93BF93EF93FF93F9
:1007F000ECEFF2E080818093FD0283B180830E9460
:10080000F11B6093FE027093FF02809300039093AC
:100810000103FF91EF91BF91AF919F918F917F91D4
:100820006F915F914F913F912F910F900FBE0F905D
:100830001F9018951F920F920FB60F9211242F93AD
:100840003F934F935F936F937F938F939F93AF9358
:10085000BF93EF93FF93E2E0F3E080818093030383
:1008600086B180830E94F11B60930403709305039B
:100870008093060390930703FF91EF91BF91AF918F
:100880009F918F917F916F915F914F913F912F91A8
:100890000F900FBE0F901F9018951F920F920FB6DA
:1008A0000F9211242F933F934F935F936F937F93F6
:1008B0008F939F93AF93BF93EF93FF93E8E0F3E0A1
:1008C00080818093090389B180830E94F11B60932A
:1008D0000A0370930B0380930C0390930D03FF9115
:1008E000EF91BF91AF919F918F917F916F915F91A8
:1008F0004F913F912F910F900FBE0F901F90189521
:10090000399857980895813011F40C94240357981E
:10091000419A0895CF93DF930E9480040E9424039C
:1009200081EC0E949A1CEC0180E00E9483049E01ED
:10093000ACE4B4E00E94EE262FEE33E440E050E059
:100940000E94CC26822FDF91CF910895089580E0F8
:10095000089580913E0390E020913F03821B91090E
:10096000089520913F0380913E03281750F4E22F11
:10097000F0E0E05CFC4F808190E02F5F20933F032C
:1009800008958FEF9FEF0895E0913F0380913E031C
:10099000E81730F4F0E0E05CFC4F808190E00895CF
:1009A0008FEF9FEF08950895CF92DF92EF92FF921D
:1009B0000F931F93CF93DF937C01CB018A0120918A
:1009C0001A03222389F0EB016B01C40ED51ECC154E
:1009D000DD0569F06991D701ED91FC910190F081FD
:1009E000E02DC7010995F3CF642F0E943506C80199
:1009F000DF91CF911F910F91FF90EF90DF90CF90FB
:100A00000895CF93DF931F92CDB7DEB7698320910E
:100A10001A032223D1F020911B03203240F021E061
:100A200030E0FC013383228380E090E015C08091A8
:100A30001C03E82FF0E0E35EFC4F998190838F5F09
:100A400080931C0380931B0305C061E0CE010196D7
:100A50000E94350681E090E00F90DF91CF910895DC
:100A6000FC011382128248EE53E060E070E04483A0
:100A70005583668377838FE391E091838083089524
:100A800010923F0310923E0310921C0310921B031E
:100A90000C948005862F413208F040E260E473E058
:100AA0000E949E0510923F0380933E03089521E02B
:100AB0000C944A0581E080931A0360933D031092E1
:100AC0001C0310921B0308950C945A050F93062FD4
:100AD00021E040911B036DE173E080913D030E9492
:100AE000E20510921C0310921B0310921A030F913F
:100AF000089561E00C9466058EE093E00C94300557
:100B00001092CD0381E08093CB031092CA0361E081
:100B100082E10E94042361E083E10E940423E9EB67
:100B2000F0E080818E7F808380818D7F808380E272
:100B30008093B80085E48093BC000895413208F0AA
:100B40003FC09091CD039111FCCF91E09093CD03E4
:100B50002093CB032FEF209360031092A503240F63
:100B60002093A4039093CC039091CC03880F892BFE
:100B70008093CC038091CA03813041F41092CA0360
:100B80008091CC038093BB0085EC01C085EE8093FF
:100B9000BC008091CD038130E1F38091A5038417DF
:100BA00010F44091A50326EA33E0FB01D9018A2F16
:100BB000821B841718F48D918193F9CF842F0895A7
:100BC00080E008950F93413208F046C09091CD0324
:100BD0009111FCCF92E09093CD030093CB039FEF54
:100BE000909360031092A5034093A403FB0166EA6F
:100BF00073E0DB019A2F961B941718F491919D9343
:100C0000F9CF1092CC039091CC03880F892B80935D
:100C1000CC038091CA03813041F41092CA038091C1
:100C2000CC038093BB0085EC01C085EE8093BC00B3
:100C3000222321F08091CD038230E1F38091600383
:100C40008F3F61F080916003803251F080916003AA
:100C5000803341F483E007C081E005C080E003C039
:100C600082E001C084E00F910895613298F42091F0
:100C7000CD03243089F460938203FC0184E893E07F
:100C8000DC012A2F281B261718F421912D93F9CF68
:100C900080E0089581E0089582E0089585ED8093D5
:100CA000BC008091BC0084FDFCCF1092CD03089560
:100CB00085EC8093BC001092CD0308951F920F9293
:100CC0000FB60F9211242F933F934F935F936F931F
:100CD0007F938F939F93AF93BF93EF93FF938091F5
:100CE000B900887F803609F49CC068F5883209F421
:100CF0005BC090F4803109F454C038F4882309F4BF
:100D0000F5C0883009F44DC0F5C0883109F44CC0F5
:100D1000803209F45DC0EEC0803409F468C048F444
:100D2000803309F455C0883309F0E4C08093600330
:100D3000A8C0803509F44FC0883509F45DC08834F7
:100D400009F0D8C0D5C0883909F4C6C0A8F48837DE
:100D500009F467C038F4883609F463C0803709F4B1
:100D600060C0C8C0883809F4B7C0803909F45FC0D2
:100D7000803809F0BFC05BC0803B09F485C038F4FF
:100D8000803A09F466C0883A09F47EC0B3C0803C5A
:100D900009F4A6C0883C09F4A3C0883B09F489C0C3
:100DA000A9C08091CC0310C09091A5038091A403A9
:100DB000981770F5E091A50381E08E0F8093A5034D
:100DC000F0E0EA55FC4F80818093BB0085EC85C044
:100DD000809360038DC0E091A50381E08E0F809326
:100DE000A5038091BB00F0E0EA55FC4F8083909111
:100DF000A5038091A4036DC0E091A50381E08E0F4F
:100E00008093A5038091BB00F0E0EA55FC4F8083FE
:100E10008091CB0381116CC081E08093CA0384EA86
:100E200060C083E08093CD0310926103CFCF8091A7
:100E30006103803208F050C0E091610381E08E0FC1
:100E4000809361038091BB00F0E0EE59FC4F8083FA
:100E5000BDCF80916103803230F4E0916103F0E016
:100E6000EE59FC4F10820E944E066091610370E0C3
:100E7000E091C603F091C70382E693E009951092D2
:100E800061030E94580636C084E08093CD0310921F
:100E9000830310928203E091C803F091C90309957E
:100EA00080918203811105C081E0809382031092BA
:100EB0008403E091830381E08E0F80938303F0E04D
:100EC000EC57FC4F80818093BB009091830380910D
:100ED0008203981708F47ACF85E88093BC000AC093
:100EE00085EC8093BC001092CD0304C01092600387
:100EF0000E944E06FF91EF91BF91AF919F918F910C
:100F00007F916F915F914F913F912F910F900FBE05
:100F10000F901F901895CF93DF93EC010E947915E5
:100F2000CE0101960E94F21ECE018A5B9F4F0E9465
:100F30006C1ECE01885B9F4F0E94FC13CE01825B2A
:100F40009F4F0E948620CE018C5A9F4F0E94CC1C3E
:100F5000CE01895A9F4F0E940412CE01865A9F4F9C
:100F60000E94CA11CE018D599F4FDF91CF910C94F1
:100F70008B1DCF93DF93EC010E94821B61ED70E02B
:100F800082E294E00E946E25CE010E94EE17CE010F
:100F9000895A9F4F0E949F13BE01CE0101960E9465
:100FA000F31EBE01CE018D599F4F0E948C1DBE01C4
:100FB000CE018A5B9F4F0E946D1EBE01CE01885BF1
:100FC0009F4F0E94FD13BE01CE018C5A9F4F0E947D
:100FD000CD1CBE01CE01865A9F4F0E94CB110E94AC
:100FE000E81BDF91CF910C943B03FC01DC01AB5972
:100FF000BF4F8C9185FF1DC08AE0868311978C912D
:10100000878382E0818720912401309125014091DE
:10101000260122873387448713962D913D914C9169
:10102000258736874787108AEB5BFF4F8081816079
:1010300080830895CF92DF92EF920F931F93CF9307
:10104000DF931F92CDB7DEB78C01FC01EB59FF4F48
:10105000808185FF3BC08EE0F8018683EC59FF4F0D
:101060008081F801878390859F7D908782E08187CA
:10107000C0902401D0902501E0902601C286D3863D
:10108000E486E959FF4FC080D180E280F801C5862F
:10109000D686E78681E0808B618B428BC801865AB9
:1010A0009F4F29830E940012F0E88F9FC0011124F6
:1010B0002981822BF801838BE85AFF4F8081F80148
:1010C000848BEB5BFF4F8081816080830F90DF9189
:1010D000CF911F910F91EF90DF90CF900895FC0179
:1010E0008AE08683DF01AD59BF4F8C91878382E010
:1010F000818720912401309125014091260122878A
:101100003387448714962D913D914C9125873687DE
:10111000478780E8808BEB5BFF4F80818160808315
:101120000895AF92BF92CF92DF92EF921F93CF9329
:10113000DF9300D0CDB7DEB75C01162F8EE0F5014E
:101140008683EA59FF4F8081813039F43896808157
:101150008E3019F43A97808107C0F501EC5BFF4FA0
:10116000808191E0980F9083F501878363E084EF9D
:1011700093E02A8349830E945E1991E02A81498184
:10118000811190E0F501808590FB85F9808780E1F1
:101190008187C0902401D0902501E0902601C2866D
:1011A000D386E486C090F403D090F503E090F60374
:1011B000C586D686E78686E0808B118B428B238B93
:1011C000E85AFF4F8081F501848BEB5BFF4F8081F4
:1011D000816080830F900F90DF91CF911F91EF90EE
:1011E000DF90CF90BF90AF9008950F931F93CF9350
:1011F000DF93EC01FC01E954FF4F318320833296E9
:1012000083E08083319660838E010B541F4FF80179
:10121000808140FB84F9808363E084EF93E00E9447
:101220005E1991E0811190E0F801808190FB85F9D1
:10123000CA54DF4F91E4988381608083DF91CF911E
:101240001F910F910895FF920F931F93CF93DF93F8
:10125000EC01F42E8C0107541F4FF8018081875F49
:101260008E83E557F10980818F838885EF58FF4F82
:10127000908195FB992790F9846090FB85F9709691
:10128000908190FB84F988873F978081898720919E
:10129000240130912501409126012A873B874C8704
:1012A000FB012081318142812D873E874F87FE01DE
:1012B000E654FF4F8081888BCE01865A9F4F0E9453
:1012C0000012F0E88F9FC00111242889822B888B9F
:1012D000FE01EE5BFF4F80819181F801408150E07B
:1012E0003297608171810B960E942427FA82CB5B32
:1012F000DF4F888181608883DF91CF911F910F91AB
:10130000FF9008957F928F929F92AF92BF92CF925B
:10131000DF92EF92FF920F931F93CF93DF9300D052
:1013200000D01F92CDB7DEB77C018C010B541F4F4C
:10133000F801808185FF02C023E001C021E0470160
:10134000F5E48F0E911CF401808180FD3BC15701B3
:10135000FCEBAF0EB11CF501808181111CC067014F
:10136000FAEBCF0ED11CF6016081C7012D830E94DC
:10137000A615782EF5018083F6016081C7010E94D1
:10138000B8192D81781207C0422F64EF73E0C701AE
:101390000E9423090CC16701FBEBCF0ED11CF601A3
:1013A0004081F50180814817E8F0F8019081892F8C
:1013B00086958F5F8770382F330F917F932B9083A3
:1013C00090E0422F50E0841795070CF0F0C068E0E1
:1013D000C70183549F4F0E945E198111E8C0F60136
:1013E0001082F0C04423F1F0F401808181FD1AC025
:1013F0002FEF240F822F90E0E3E095958795EA95F3
:10140000E1F78E0D9F1DFC01E354FF4F822F877083
:1014100021E030E001C0220F8A95EAF72095808113
:1014200028232083F80130813E70842F90E0542FD0
:101430005770311115C09C0173E0359527957A9549
:10144000E1F72E0D3F1DF901E354FF4F21E030E09D
:10145000052E01C0220F0A94EAF73081322B308327
:1014600063E0959587956A95E1F78E0D9F1DFC01C8
:10147000E354FF4F21E030E08081882311F020E029
:1014800030E002C0359527955A95E2F7232B09F0F5
:1014900050C04701FAEB8F0E911C9E012F5F3F4F0A
:1014A000F4016081C7010E949315F5011081F601D6
:1014B00000816BE471E082E294E00E9493254AE0AF
:1014C00050E0602F82E294E00E9402266FE471E017
:1014D00082E294E00E9493254AE050E0612F82E28C
:1014E00094E00E9402266AE082E294E00E94952540
:1014F00064E0CE0101960E945E198823F1F0F601A6
:101500004081842F90E053E0959587955A95E1F7B7
:101510008E0D9F1DFC01E354FF4F842F877021E047
:1015200030E001C0220F8A95EAF7209580812823B8
:1015300020834F5FF601408345C001E0F601208122
:1015400044E0F4016081C7010E94D616E82FF0E064
:101550008081F701EB53FF4F808341E0BE016F5F55
:101560007F4FC7010E942309F701808585FD1AC0BE
:10157000F6012081822F90E033E0959587953A958A
:10158000E1F78E0D9F1DFC01E354FF4F822F877002
:1015900021E030E001C0220F8A95EAF72095808192
:1015A00028232083F60180818F5F80830BC0F701A1
:1015B000EC5BFF4F80818F5F808380E1F8011192A7
:1015C0008A95E9F70F900F900F900F900F90DF9191
:1015D000CF911F910F91FF90EF90DF90CF90BF9030
:1015E000AF909F908F907F900895CF93DF93EC0101
:1015F00084E18E83FE01ED59FF4F80818F8380E16E
:1016000089872091240130912501409126012A8764
:101610003B874C8734962081318142812D873E87DC
:101620004F87188AB597A081B1811B968AE0EAE1BD
:10163000F1E001900D928A95E1F7CB5BDF4F888155
:1016400081608883DF91CF910895FC01665F668396
:10165000DC01AF54BF4F8C9191E0980F9C9387832E
:1016600080858062808780E181872091240130918C
:1016700025014091260122873387448711962D91B9
:101680003D914C9125873687478781E0808BEB5BC6
:10169000FF4F8081816080830895FC018AE0860F7E
:1016A0008683DF01AF54BF4F8C9191E0980F9C93DC
:1016B000878380858062808780E1818720912401F3
:1016C0003091250140912601228733874487119666
:1016D0002D913D914C91258736874787633010F4D3
:1016E00083E001C082E0808BEB5BFF4F80818160F3
:1016F00080830895AF92BF92CF92DF92EF92FF92D4
:101700000F93CF93DF93EC01FC01EB5BFF4F8081E4
:1017100080FD49C05E012BEAA20EB11CF50180815B
:101720009E0123553F4F690181FF12C0E956F1091F
:1017300020813181255F3F4FF601408131966081E4
:10174000CE010E941E1B682FCE010E94250B1BC0DC
:1017500082FF1DC0FE01EE5BFF4FE080F180FBE0E9
:10176000EF0EF11CF9010081FE01E055FF4F2081D1
:101770003197408131976081CE010E945117682FC7
:10178000CE010E944D0BF60180818F5F8083C4558E
:10179000DF4FF60190818881981305C08AE0F5013A
:1017A00011928A95E9F7DF91CF910F91FF90EF9019
:1017B000DF90CF90BF90AF900895FB01918186E7B5
:1017C0008927818382E02081A82FB0E0AE0FBF1F60
:1017D000821738F42C91945292279C938F5F922F0A
:1017E000F2CF8C91928189278C930895FB012181FE
:1017F00086E728272183428132E05081832F90E0C1
:10180000351748F4DF01A80FB91F24528C912827FF
:101810002C933F5FF2CFE80FF91F808184278083EC
:1018200008950F931F93CF93DF93EC018881882352
:10183000C9F00E94F11B0D811E812F813885601B2C
:10184000710B820B930B09811A812B813C816017EC
:1018500071078207930740F0188219821A821B824F
:101860001C8203C081E001C080E0DF91CF911F9115
:101870000F910895EF92FF920F931F93CF93DF93F1
:10188000EC010E94CE038E010D551F4F882391F06D
:10189000D8016D917C91CE01895A9F4F0E9401130E
:1018A000F80160817181DB018C91882319F0CE01F0
:1018B0000E94DD0BD801ED91FC918081882329F0F5
:1018C000CE018D599F4F0E94A71DFE01EB5BFF4F7C
:1018D000808180FF04C0CE0101960E940E1FFE0190
:1018E000E555FF4F808180FF03C0CE010E947A0B37
:1018F000FE01EB54FF4F808180FF03C0CE010E94A8
:1019000082098E0109551F4FF801808180FF0AC0AE
:1019100089ED93E00E94110C882321F0D8018C916D
:101920008E7F8C937E01B6ECEB0EF11CF70180816B
:101930008E01025B1F4F80FF19C080ED93E00E9473
:10194000110C882399F0D7018C918E7F8C9363E0E2
:1019500084EF93E00E945E19882319F063E070E041
:1019600002C062E070E0C8010E949020CE018A5B54
:101970009F4F0E94B51ECE01885B9F4F0E94A81406
:10198000C8010E943F21CE01865A9F4F0E94D61166
:10199000CE018C5A9F4FDF91CF911F910F91FF90F5
:1019A000EF900C94061DCF92DF92EF92FF92CF93AF
:1019B000DF93EC016A017B0181E04115510561056E
:1019C000710509F480E08883882351F00E94F11B9F
:1019D0006D837E838F839887C982DA82EB82FC8253
:1019E000DF91CF91FF90EF90DF90CF9008950F930C
:1019F0001F93CF93DF93EC01FC01EA59FF4F8081E5
:101A0000813039F4389680818A3019F43B9780818F
:101A100007C0FE01EC5BFF4F808191E0980F90833F
:101A20009AE19E838F8388858B7F888763E084EF2C
:101A300093E00E945E1991E0811190E0888590FB0F
:101A400085F98887198620912401309125014091DC
:101A500026012A873B874C872091F4033091F503B8
:101A60004091F6032D873E874F8760910601709164
:101A700007018E010E5B1F4FF8018081918143E0C9
:101A800050E00A960E940E27F801A081B1811D96B0
:101A90008AE0EAE1F1E001900D928A95E1F7609128
:101AA0000601709107016D5F7F4FF8018081918180
:101AB00044E050E047960E940E27FE01EB5BFF4F8B
:101AC000808181608083EF57FF4F808181608083B8
:101AD00040E25EE460E070E080ED93E00E94D30CB1
:101AE00061E070E0CE01825B9F4FDF91CF911F914B
:101AF0000F910C9490208F929F92AF92BF92CF92B1
:101B0000DF92EF92FF920F931F93FC018081882355
:101B1000B9F0C180D280E380F48085809680A78070
:101B2000B0840E94F11B8B019C01C501B4016C0DB6
:101B30007D1D8E1D9F1D601B710B820B930B03C0BF
:101B400060E070E0CB011F910F91FF90EF90DF906C
:101B5000CF90BF90AF909F908F900895CF92DF92DB
:101B6000EF92FF920F931F933E2DFC01A081B18154
:101B7000C280D380E480F580C70195958795E0FE0B
:101B80000CC0FD01E80FF91F0190F081E02DEC0D74
:101B9000FD1D0190F081E02D01C0F601E32E8A0FBA
:101BA0009B1F09951F910F91FF90EF90DF90CF90B1
:101BB00008954F925F926F927F928F929F92AF9211
:101BC000BF92CF92DF92EF92FF920F931F93CF932A
:101BD000DF931F92CDB7DEB72C016C013DE6C30E3B
:101BE000D11CD6016C915C01B8EAAB0EB11CF501B9
:101BF00010814C01F6E68F0E911CD4013C913323E9
:101C000009F4B6C3313009F096C2FF24FA94F60EF7
:101C10003C01BEE66B0E711CF3018081813009F03E
:101C200052C082010D551F4FD8014D915C91445F08
:101C30005F4FC2010E94E118F80140815181445F69
:101C40005F4FD6016C91C2010E94291AF201EB5933
:101C5000FF4F5F018823F9F0FDE0FF9EC0011124D2
:101C6000FC01E151FD4F2081222389F0D8010D9123
:101C70001C91015F1F4F74E0E72EF3012081D60114
:101C80004C91F40160818A509D4F0E94AE0DF50188
:101C9000808185FDD2C1D5018C9185FF69C3C201C8
:101CA0000F90DF91CF911F910F91FF90EF90DF90F8
:101CB000CF90BF90AF909F908F907F906F905F90EC
:101CC0004F900C946F08823059F4F201ED55FF4F9C
:101CD00040815181445F5F4FC2010E94E118A7C15A
:101CE0008330E9F4C2010E94041AF201E455FF4F67
:101CF00080833596D201AC59BF4F8C918083319649
:101D000013968D919D91AC9180839183A28334979A
:101D1000D6018C9180833397808182607AC0843031
:101D200009F080C07201B3EAEB0EF11CD701ED910E
:101D3000FC9180898350820100551F4F823048F406
:101D4000AF01445F5F4FC2010E947118F8018083A8
:101D500002C0D8011C92D701ED91FC914089F60197
:101D60006081C2010E94FB155201FCEAAF0EB11C5A
:101D7000D5018C93F201EF54FF4FA854B1098C9117
:101D80008083319613968D919D91AC918083918340
:101D9000A283F601D080F201E255FF4FD082D70135
:101DA000ED91FC918089F201E155FF4F8083BBEA00
:101DB0004B0E511CF201808184608083D801FC901D
:101DC00063E571E082E294E00E9493254AE050E0EE
:101DD0006D2D82E294E00E94022669E571E082E2C4
:101DE00094E00E9493254AE050E06F2D82E294E057
:101DF0000E9402266AE082E294E00E949525F801A2
:101E000080818F3F49F0D5018C91882329F0F20120
:101E1000808181608083ACC28AE0D2011D928A9564
:101E2000E9F7A6C2853091F5F5016083F201ED5521
:101E3000FF4F0190F081E02D8089D201A755BF4F5F
:101E40008C938350820106551F4F823048F4AF01B6
:101E5000445F5F4FC2010E947118D8018C9302C089
:101E6000F8011082D8018C918F3F09F4E0C0F20193
:101E7000E955FF4F80818160808340E25EE460E04D
:101E800070E089ED93E00E94D30CD1C0863009F058
:101E900042C0F201E955FF4F80818E7F808311118E
:101EA00007C033968081811103C0C2010E942F17A1
:101EB000F5016081662309F4BAC01150E12EF12CBE
:101EC0002DE0129FF0011124E151FD4F8081882304
:101ED00009F4ADC0D201A755BF4F8C91813051F4A8
:101EE00003811481F201E655FF4F208141E0C201D8
:101EF0000E949F162DE02E9DC0012F9D900D112454
:101F0000E12C00E010E026E040E061E08A509D4FC7
:101F10000E94AE0D8CC0883009F0A3C0F201E955D3
:101F2000FF4F808180FF83C0161381C0620133EAB6
:101F3000C30ED11CF601A081B1817D01FCE0EF0E42
:101F4000F11C0C910A50420129EA820E911CF20107
:101F5000E655FF4F2081D4014C91612FC2010E94B0
:101F60001416F5018081811162C0D4018C91811118
:101F70005EC010E000E0D601ED91FC91212F30E031
:101F8000808190E00A97281739070CF040C0E20FD3
:101F9000F31FF484BAE0FB1201C001E06EE571E0CA
:101FA00082E294E00E9493254AE050E0612F82E2B1
:101FB00094E00E94022660E671E082E294E00E94D2
:101FC00093258F2D90E064E0959587956A95E1F7CC
:101FD0008A30910514F067E301C060E3680F82E284
:101FE00094E00E9495256F2D6F70862F90E00A97E0
:101FF00014F0695C01C0605D82E294E00E94952566
:102000006AE082E294E00E9495251E5FB4CF00232F
:1020100071F0C2010E942F1763E671E082E294E042
:102020000E9493256AE082E294E00E949525F201E5
:10203000EB59FF4F808185FF9BC1C2010F90DF915B
:10204000CF911F910F91FF90EF90DF90CF90BF90B5
:10205000AF909F908F907F906F905F904F900C9477
:10206000F5078930A1F4C2010F90DF91CF911F9144
:102070000F91FF90EF90DF90CF90BF90AF909F9027
:102080008F907F906F905F904F900C94F50A8A30FC
:1020900011F5F201ED55FF4F808191814AE06AE12F
:1020A00071E00C960E945C18882309F461C1C2019A
:1020B0000F90DF91CF911F910F91FF90EF90DF90E4
:1020C000CF90BF90AF909F908F907F906F905F90D8
:1020D0004F900C94F70C8E3009F04AC1BDE0FB9E86
:1020E000C0011124FC01E151FD4F2081222369F040
:1020F000F201ED59FF4F20812B50820101591F4FF2
:10210000E22E2EE0462F61E02FC120E040E0C20128
:102110000F90DF91CF911F910F91FF90EF90DF9083
:10212000CF90BF90AF909F908F907F906F905F9077
:102130004F900C949108323009F040C061110FC0EB
:10214000FC01EB5BFF4F808180FF12C17F96908185
:10215000F201838198130CC18FEF818309C1613033
:1021600041F4FC01EB5BFF4F808180FF01C17E9653
:10217000EECF623009F4FCC0643009F4F9C0603875
:1021800009F0F6C03093CE038091CF038F5F809328
:10219000CF03F201E954FF4F8EEC93E091838083EB
:1021A00032963083319681E0808335978081D201E9
:1021B000AA54BF4F90E49C9380632BCE313109F039
:1021C00064C0623021F5FC01E259FF4F2081422FAB
:1021D00050E0415051093DE0349FC001359F900DC2
:1021E0001124FC01E151FD4F3081332309F4C0C0BB
:1021F000F201ED59FF4F30813B50E05CFF4F008111
:102200001181045F1F4FE32E42E061E1ADC06430F5
:1022100009F0AEC0FC01E259FF4F80818111A8C0D6
:10222000C2010E947A15C2010E94B415C2010E9427
:102230002F1768E070E0C201825B9F4F0E949020E0
:1022400043E061E0C2010E94E715F201EB59FF4F44
:10225000908195FF8DC08F3F09F4EFCE20E040E0E4
:1022600060E0C2010F90DF91CF911F910F91FF901D
:10227000EF90DF90CF90BF90AF909F908F907F9026
:102280006F905F904F900C941A08323109F470C02F
:102290003E3308F46DC08C013E3361F5FC01ED590D
:1022A000FF4F80818F3031F50D551F4FD801ED91D3
:1022B000FC911197E584868585876D917C91665F99
:1022C0007F4FC20129830E94C218F82E29818823DA
:1022D00051F0F80140815181465F5F4F682FC20184
:1022E0000E947118282FD801ED91FC91E586F1101C
:1022F00010C03EC001561F4FB801C2010E94C21853
:10230000F82E8823A9F1A801682FC2010E94711834
:10231000282F4F2D50E0415051098DE0849F5001EE
:10232000859FB00C1124F501E151FD4F8081882378
:1023300009F483CE0581168141816F2DC2010E946F
:102340009F16F201ED59FF4F80818950E05CFF4FED
:1023500000811181065F1F4FF597E82E2081F6015D
:102360004081D4016C91C5018A509D4F0E94AE0DF1
:102370000F90DF91CF911F910F91FF90EF90DF9021
:10238000CF90BF90AF909F908F907F906F905F9015
:102390004F9008950895FC01718360838481897F43
:1023A000848315821682178210860895CF93DF9357
:1023B000EC0182EE93E00E94110C8823B1F00E94A0
:1023C0008A048B8391E02A81821708F090E08C8147
:1023D00090FB80F98C834D815E816F81788582EEE0
:1023E00093E0DF91CF910C94D30CDF91CF910895BE
:1023F000FC01258336834783508762830C94D61172
:10240000FC018481817008950895CF93DF931F921A
:10241000CDB7DEB769830E944A030E9447038981D2
:102420000E9435030F90DF91CF910C944C03CF9312
:10243000DF93EC0166E30E9405126AE3CE010E947D
:10244000051269E3CE01DF91CF910C940512EF9252
:10245000FF920F931F93CF93DF9300D01F92CDB7BE
:10246000DEB7122F49836A837B830E944A030E944E
:1024700047034981842F806C0E9435036A81062FAF
:10248000E62E7B81F72E8E2D801B811738F480E09D
:102490000E943503F70181937F01F5CF0F900F90D4
:1024A0000F90DF91CF911F910F91FF90EF900C94BF
:1024B0004C03EF92FF920F931F93CF93DF9300D0C3
:1024C0001F92CDB7DEB7122F4A835B8369830E94C8
:1024D0004A030E9447036981862F80640E94350366
:1024E0004A81042FE42E5B81F52E8E2D801B8117EF
:1024F00030F4F70181917F010E943503F6CF0F90F0
:102500000F900F90DF91CF911F910F91FF90EF905F
:102510000C944C03CF93DF9300D0CDB7DEB74A8342
:1025200069830E944A030E9447034A816981862F7A
:10253000842B0E94350380E00E94350389830E942A
:102540004C0389810F900F90DF91CF910895EF9206
:10255000FF920F931F93CF93DF931F92CDB7DEB7F8
:102560007C018B0166E349830E9405126AE3C7017F
:102570000E9405126BE3C7010E94051249814423A2
:1025800061F065E3C7010E9405122FEF89EC98E026
:10259000215080409040E1F704C0EFECF7E0319724
:1025A000F1F700C00000F80120812F5FA8016FE360
:1025B000C7010E9459126AE3C7010E94051265E330
:1025C000C7010E94051218EC40EC65E3C7010E94A8
:1025D0008A128D3069F040EC65E3C7010E948A12CF
:1025E000833131F4FAE1FA95F1F700C0115061F747
:1025F00081E00F90DF91CF911F910F91FF90EF90AD
:1026000008950F931F93CF93DF93EC018B0140EC60
:102610006BE30E948A12982F9F7761F187FD2AC091
:1026200040E86FE3CE010E948A12F80180838D3367
:1026300010F5282F4FE3B8016F5F7F4FCE010E9446
:10264000271240E86FE3CE010E948A1287FD809531
:10265000898389818695885B898340E86FE3CE0111
:102660000E948A12982F9F779A83881F8827881F35
:10267000888302C0F80110826AE3CE010E9405122D
:1026800066E3CE010E94051264E3CE010E940512AA
:102690006CE3CE010E940512F8018081DF91CF9199
:1026A0001F910F9108951F93CF93DF93EC010E9428
:1026B0004A030E9447030E944C0318EC40EC65E378
:1026C000CE010E948A128F3F31F064E3CE010E9456
:1026D000051218EC0DC08AE18A95F1F700C011507F
:1026E00069F7F3CF9AE19A95F1F700C0115041F0E4
:1026F00040EC68E3CE010E948A12982F907591F306
:1027000086FB882780F9DF91CF911F910895CF93A1
:10271000DF9300D0CDB7DEB74A8369830E944A03B6
:102720000E94470389810E9435034A81842F0E94B9
:1027300035030F900F90DF91CF910C944C030F93C2
:102740001F93CF93DF93EC010E9428030E944C0358
:102750008DE08A95F1F700000E944A039AE19A956C
:10276000F1F700C00E944C03EDE6EA95F1F7000096
:1027700060E3CE010E9405128FE19EE40197F1F71C
:1027800000C0000006ED10E0F80131964491F80118
:102790006491CE010E9487130E5F1F4FF1E0063057
:1027A0001F0791F763E3CE010E94051240EC65E339
:1027B000CE010E948A12813029F082E08A95F1F7D9
:1027C00000C0F4CF40EC6EE3CE010E94871364E3B7
:1027D000CE010E9405126CE3CE01DF91CF911F91D3
:1027E0000F910C940512FC0167708281887F862B03
:1027F00082834483258308950895FC017183608357
:102800000895EF920F931F93CF93DF93EC01162F50
:102810008881998164EF71E08C5A9F4F0E94D41C8B
:1028200088819981825B9F4F0E9425211130D1F5CB
:102830008A818770813021F4888199810E94F70C08
:102840008A818770823009F07DC08091EF028823F1
:1028500009F478C0A091F602B091F7024091F80215
:102860005091F9026091FA027091FB02CB019595AB
:10287000879560FF0CC0FD01E80FF91F0190F08102
:10288000E02DE40FF51F0190F081E02D01C0FA0169
:10289000E12C00E010E020E041E060E08A0F9B1FA7
:1028A000099550C0123009F44DC01330C9F48A8123
:1028B0008770813041F4888199816AE070E0825BA1
:1028C0009F4F0E9490208A8187708230D9F588813D
:1028D0009981DF91CF911F910F91EF900C94F70C9C
:1028E000143029F48881998160E070E022C01630AC
:1028F00049F58881998160E070E0825B9F4F0E947A
:10290000902008E120E040E060E0888199810E9409
:10291000D616888199810E947A15888199810E94B2
:10292000B415888199810E942F178881998169E067
:1029300070E0825B9F4FDF91CF911F910F91EF90DD
:102940000C949020DF91CF911F910F91EF900895FB
:10295000CF93DF93EC018A81877009F4AEC06D815B
:102960008C810E9473038770880F880F880F9A816B
:10297000977C982B9A83892F8873803199F448EB40
:102980005BE060E070E08BEE93E00E94D30C888106
:1029900099816CEA7DE08C5A9F4F0E94D41C8A81F9
:1029A000806432C096FF89C0883181F540ED57E0E0
:1029B00060E070E08BEE93E00E94D30C88819981F7
:1029C00064EC79E08C5A9F4F0E94D41C9A818B81D1
:1029D00097FF07C080FF02C065E00EC082608B8356
:1029E0000EC082FF04C08B7F8B8362E005C081FD37
:1029F00006C084608B8361E0CE010E9401148B814C
:102A00008E7F8B838A818F778A8357C0811138C0EC
:102A10008BEE93E00E94110C882391F188819981BB
:102A20006CEA7DE08C5A9F4F0E94D41C8A8187FFFC
:102A30000DC04CE251E060E070E08BEE93E00E944C
:102A4000D30C8B8181608B8364E015C08B8148EB54
:102A50005BE060E070E081FF06C08BEE93E00E94D7
:102A6000D30C66E008C08BEE93E00E94D30C8A8101
:102A700080688A8363E0CE01DF91CF910C940114CA
:102A80008A8188738830C9F48BEE93E00E94110C20
:102A9000882399F08B8181FF08C08881998160E04B
:102AA00070E0825B9F4F0E9490209B818A819C7F77
:102AB0009B7F9B838F778F7BA7CFDF91CF910895EB
:102AC000CF93DF9300D01F92CDB7DEB720912601C0
:102AD000909125018091240129839A838B836981B8
:102AE0007A818B819C810F900F900F90DF91CF9115
:102AF00008950895CF93C0E080910401C81788F429
:102B000084E0C89FF0011124E65FFE4F618184E0FC
:102B1000689FB0011124828193810E94771CCF5F4E
:102B2000EBCFCF910895742F84E0689FF0011124BA
:102B3000EA5FFE4F82819381A90164E024E0729FE5
:102B4000800D911D11240E94691C0895809104013B
:102B5000861740F084E0689FF0011124EA5FFE4F81
:102B60008181089580E00895CF93DF93C0E0D6E09F
:102B700080910501C81740F58C2F90E0D89FF00197
:102B8000D99FF00D1124E25FFE4F218123502230A6
:102B900048F4E08124E0E29FF0011124EA5FFE4F57
:102BA000218101C021E0D89FF001D99FF00D1124AF
:102BB000E25FFE4F6381269FB001112484819581DD
:102BC0000E94771CCF5FD4CFDF91CF910895909171
:102BD0000501EFE0F1E080E0891759F0DF0111977E
:102BE0002C91261303C02081241721F08F5F369685
:102BF000F3CF8FEF08950E94E7158F3F99F096E08D
:102C0000899FF0011124E25FFE4F238130E0220F03
:102C1000331F80E08F5F121613061CF42051310918
:102C2000F9CF089580E008956F927F928F929F92DE
:102C3000AF92BF92CF92DF92EF92FF920F931F93CA
:102C4000CF93DF931F92CDB7DEB7162F29830E9453
:102C5000E71529818F3F09F44EC0112359F094E004
:102C6000199FD0011124AA5FBE4F11969C9129177C
:102C700008F041C096E0899FF0011124E25FFE4F09
:102C8000838164807580829F600C711C112410E028
:102C90006F0183E0C80ED11C5F0192E0A90EB11C48
:102CA000101740F5F601608120910801309109016B
:102CB00080E090E0412F50E0D701A40FB51F782F9E
:102CC0008617B0F4F5019080FC01E90DF11DE20FCB
:102CD000F31FE4910196FC91EF13F1CF4F5F5F4F2B
:102CE0004E0D5F1D61E0C301870F911D0E94701C96
:102CF0001E5FD6CF01C080E00F90DF91CF911F9172
:102D00000F91FF90EF90DF90CF90BF90AF909F908A
:102D10008F907F906F900895662379F043504230F2
:102D200060F484E0689FF0011124EA5FFE4F81E0C7
:102D30009181291718F080E0089581E00895CF92DD
:102D4000DF92EF92FF920F931F93CF93DF93EC01EB
:102D5000E62ED42EF22E0E94E715C82E8FEFC8164D
:102D6000D9F02F2D4D2D6E2DCE010E948C1688236B
:102D700099F086E0C89EF0011124E25FFE4F2381A6
:102D800084819581A801622F2F9D800D911D1124B2
:102D90000E94691C81E001C080E0DF91CF911F910A
:102DA0000F91FF90EF90DF90CF900895BF92CF9258
:102DB000DF92EF92FF920F931F93CF93DF931F92B7
:102DC000CDB7DEB77C01D62EC42E122F0E94E71598
:102DD000B82E8FEFB816B9F1212F4C2D6D2DC701EC
:102DE0000E948C16882379F186E0B89EF0011124A8
:102DF000E25FFE4F8481958133816091080170917B
:102E0000090140E050E0DF011296242F4317D0F46F
:102E1000EC917A01EE0EF11CF701E60FF71FE49139
:102E20004F5F5F4FE013F1CF319F800D911D112453
:102E3000AE014F5F5F4F61E0820F911D0E94691CE0
:102E4000898102C001C080E00F90DF91CF911F9176
:102E50000F91FF90EF90DF90CF90BF9008950F9368
:102E6000CF93DF93EC010AE020E040E060E00E94B5
:102E7000D6168093F4030BE020E040E060E0CE0142
:102E80000E94D6168093F5030CE020E040E060E05D
:102E9000CE010E94D6168093F603DF91CF910F9159
:102EA00008956F927F929F92AF92BF92CF92DF92DE
:102EB000EF92FF920F931F93CF93DF931F92CDB7A3
:102EC000DEB76C01B62EA42E122F37010E94E71533
:102ED000F82E2FEF821709F45EC0212F4A2D6B2D9B
:102EE000C6010E948C16882309F455C00295007F04
:102EF00006954F2D50E086E0F89EF0011124E25F28
:102F0000FE4F8381782F701B17162CF0D3011D9272
:102F10001C9282E041C078300CF078E096E0949FFB
:102F2000F001959FF00D1124E25FFE4FA280E48036
:102F3000F580819FE00CF11C1124912CC72EDD241B
:102F4000C7FCD094B12C10E0E00EF11E892D90E06A
:102F50008C159D05ECF49C012A0D3B1D200F311FA3
:102F6000E0910801F0910901E20FF31FE491D30110
:102F7000EC93A301B2E06B0E711C4F5F5F4F61E0F9
:102F80008E0D9F1D79830E94691C93947981DECFF9
:102F9000872F880F01C080E00F90DF91CF911F91A4
:102FA0000F91FF90EF90DF90CF90BF90AF909F90E8
:102FB0007F906F900895862728E030E0AC01569509
:102FC000479580FF06C0CA0161E0862760EA962720
:102FD00001C0CA012150310989F70895DF92EF92AB
:102FE000FF920F931F93CF93DF9300D000D0CDB704
:102FF000DEB78C010E94681C1C821B82E0900501D8
:1030000086E0E89E7001112480E090E0D12C2D2D07
:1030100030E02E153F0544F4F901E25FFE4F608178
:103020000E94DB17D394F3CF9A838983AE014D5F5F
:103030005F4F62E080E090E00E94691C29813A8144
:103040008B819C812817390771F0C8010E947A157D
:10305000C8010E94B415AE014F5F5F4F62E080E08F
:1030600090E00E94701C8091240190912501892B91
:1030700039F444E251E063E082E090E00E94691C90
:1030800080911A0190911B01892B39F44AE151E09A
:1030900063E082E090E00E94691CC8010E942F1743
:1030A0000F900F900F900F90DF91CF911F910F9184
:1030B000FF90EF90DF90089550E00E94172721E0E5
:1030C000892B09F020E0822F0895CB0143E064E2D0
:1030D00071E00C945C18CB0143E064EF73E00C9456
:1030E0005C18BF92CF92DF92EF92FF920F931F93E3
:1030F000CF93DF9300D000D0CDB7DEB77A0166233F
:1031000081F180910401861770F1B12C84E0689FF1
:10311000900111242A5F3E4F89010F5F1F4F690103
:10312000E2E0CE0ED11CF8018081B816E0F4F60181
:1031300080819181AE014F5F5F4F64E0F4E0BF9EFC
:10314000800D911D11240E94691C44E0B701CE013D
:1031500001960E945C18811102C0B394E4CF8B2DBC
:1031600003C080E001C08FEF0F900F900F900F9081
:10317000DF91CF911F910F91FF90EF90DF90CF9053
:10318000BF900895FF920F931F93CF93DF93EC01AD
:103190008B01FF24F394809104018F1548F0A8015E
:1031A0006F2DCE010E9471188F3F21F4F394F3CF5D
:1031B00080E001C08F2DDF91CF911F910F91FF9083
:1031C00008957F928F929F92AF92BF92CF92DF929B
:1031D000EF92FF920F931F93CF93DF93CDB7DEB79C
:1031E00028970FB6F894DEBF0FBECDBF8A0180913D
:1031F0000401861708F442C0FA0180819181A281FE
:103200008D839E83AF8384818887712CF4E06F9FC8
:10321000C00111248A5F9E4F5C012FEFA21AB20AEF
:103220006C01E2E0CE0ED11C4601F50180817816DA
:1032300018F5F4E07F9E70011124F60180819181E0
:10324000AE014F5F5F4F64E08E0D9F1D0E94691CB1
:1032500044E0B801CE0101960E945C18811110C0B3
:1032600044E0BE016B5F7F4FCE0101960E945C1867
:10327000811106C07394D9CF81E00CC080E00AC0F0
:10328000F4018081918164E070E08E0D9F1D0E94A9
:10329000771CF0CF28960FB6F894DEBF0FBECDBFD7
:1032A000DF91CF911F910F91FF90EF90DF90CF9022
:1032B000BF90AF909F908F907F900895662349F0C4
:1032C0006150FC01E60FF11D20812223B9F380E05B
:1032D000089581E00895CF92DF92EF92FF920F93CD
:1032E0001F93CF93DF93EC017B018A01690163E0B7
:1032F000CA010E945E19811129C0B801CE010E9445
:103300006518882329F1B701CE010E946B1881113D
:1033100021C0B601CE010E94C21881111DC0B701A3
:10332000CE010E946518811119C0B801CE010E941A
:103330006518811102C085E712C063E084EF93E055
:103340000E945E198823B9F388E709C082E607C0A6
:103350008CE605C08DE603C080E701C089E6DF91F9
:10336000CF911F910F91FF90EF90DF90CF90089534
:10337000CF92DF92EF92FF920F931F93CF93DF9341
:1033800000D000D0CDB7DEB7662381F18091040173
:10339000861760F1D12CC12C24E0629FB00111246A
:1033A0006A5F7E4F8B010F5F1F4F7B0182E0E80E4B
:1033B000F11CF8018081D816B8F4F7018081918161
:1033C000AE014F5F5F4F64E0F4E0DF9E800D911D22
:1033D00011240E94691C64E0CE0101960E945E19CE
:1033E0008111C394D394E5CF8C2D01C080E00F9060
:1033F0000F900F900F90DF91CF911F910F91FF9041
:10340000EF90DF90CF900895CF93DF932091040148
:103410002617D8F024E0629FF0011124EA5FFE4FE6
:10342000C181D0E00E94B8199E01281B31092F5F8D
:103430003F4F220F331F220F331F80E01216130657
:103440002CF4205131098F5FF9CF80E0DF91CF91CB
:1034500008954F925F926F927F928F929F92AF9258
:10346000BF92CF92DF92EF92FF920F931F93CF9371
:10347000DF9300D000D0CDB7DEB76C01E62E8A0115
:1034800080910401861710F480E0C3C0C6010E9439
:1034900071188F3F11F0F8011382F80120813181FA
:1034A000428129833A834B8384818C83AE014F5FB1
:1034B0005F4F6E2DC6010E9471188F3F11F0F80109
:1034C000148277247394F8018381811101C0712CD7
:1034D000F8018481882319F0F72DF2607F2E812C6A
:1034E000912CEA9424E0E29E70011124C701865FCA
:1034F0009E4F6C01EFEFCE1ADE0A5C01F2E0AF0ED8
:10350000B11CF60180818816B8F4F50180819181A3
:10351000AE014F5F5F4F64E0F4E08F9E800D911D20
:1035200011240E94691C64E0CE0101960E945E197C
:10353000811193948394E5CFF80193818481992339
:1035400031F08823D9F0F1E0F91518F09DCF811101
:1035500015C0612CC701865F9E4F5C012FEFA21A38
:10356000B20A7C01E2E0EE0EF11C4424439452E0E6
:10357000552E4801F4E08F0E911C1BC0992009F4D0
:1035800083CFE7CF24E0629E60011124F7018081A0
:103590009181AE014F5F5F4F64E08C0D9D1D0E94D5
:1035A000691C64E0CE0101960E945E19811106C07B
:1035B0006394F5018081681628F305C070FC05C08E
:1035C00071FC10C0F5CF81E024C07424F701808124
:1035D0009181A80164E08C0D9D1D0E94701CF80172
:1035E0006582E6CF7524F70180819181A80163E0AF
:1035F0008C0D9D1D0E94701CF701808191810396A6
:10360000A40161E08C0D9D1D0E94701CF801668272
:10361000CFCF0F900F900F900F90DF91CF911F9110
:103620000F91FF90EF90DF90CF90BF90AF909F9061
:103630008F907F906F905F904F9008958F929F92A0
:10364000BF92CF92DF92EF92FF920F931F93CF938F
:10365000DF931F92CDB7DEB7B42E490180910401EC
:10366000861708F43FC0D12CC12C20E034E0639FC2
:10367000B00111246A5F7E4F8B010F5F1F4F7B01EA
:1036800082E0E80EF11CF8018081D81618F5F701E8
:1036900080819181A40164E0F4E0DF9E800D911DA2
:1036A000112429830E94691C64E0C4010E945E19F0
:1036B000298181110DC02C5FCB1006C02031A0F4F0
:1036C00034E0830E911C04C0203110F0C39420E03C
:1036D000D394D9CFF401108211821282138284E034
:1036E000820F03C080E001C0822F0F90DF91CF9145
:1036F0001F910F91FF90EF90DF90CF90BF909F9020
:103700008F900895809164008D7F809364008091F4
:10371000C10084FD12C026E040E051EE60E070E0A0
:1037200082E294E00E941F242FEF84E39CE021506A
:1037300080409040E1F700C000000895E0E6F0E02E
:1037400080818861808381E4808380E290E090932F
:10375000FC038093FB030895E0E6F0E0808188613C
:10376000808384E4808380E091E09093FC038093E5
:10377000FB030895E0E6F0E080818861808381E6C4
:10378000808380E090E29093FC038093FB03089594
:1037900010927A00E4E6F0E090818FEF808383B7A7
:1037A000816083BF80E685BF80E485BF889583B74D
:1037B0008E7F83BF909364000895E0E6F0E08081FF
:1037C0008F7B8083089583B7817F846083BF089552
:1037D00082E084BD93E095BD80936E008DE787BD48
:1037E00008952FB7F8946091F7037091F8038091D2
:1037F000F9039091FA032FBF08950F931F934FB7CA
:10380000F8940091F7031091F8032091F903309197
:10381000FA03600F711F821F931F6093F703709369
:10382000F8038093F9039093FA034FBF1F910F9110
:1038300008951F920F920FB60F9211242F933F936A
:103840004F935F936F937F938F939F93AF93BF93A8
:10385000EF93FF936091FB037091FC0380E090E095
:103860000E94FD1BFF91EF91BF91AF919F918F91AE
:103870007F916F915F914F913F912F910F900FBE6C
:103880000F901F9018951F920F920FB60F92112450
:103890008F939F93AF93BF938091F7039091F80319
:1038A000A091F903B091FA030196A11DB11D809377
:1038B000F7039093F803A093F903B093FA03BF9131
:1038C000AF919F918F910F900FBE0F901F90189501
:1038D00008959C01CA01462F50E0B9010C942D2790
:1038E0009C01CA01462F50E0B9010C943D27EF928C
:1038F000FF920F931F93CF93DF931F92CDB7DEB745
:103900007B011982E80EF91E8C010E151F0551F07E
:1039100041E050E0B801CE0101960E943D270F5FC3
:103920001F4FF3CF0F90DF91CF911F910F91FF9019
:10393000EF90089550916400909164009E7F909361
:10394000640080937C0086E880937A0040E080E009
:1039500090E020917A00206420937A0020917A00F0
:1039600026FDFCCF483230F020917800309179006C
:10397000820F931F4F5F4C3361F720917A002F77AE
:1039800020937A005093640010927A0064E170E012
:103990000E94A426CB0108950895FC0171836083E1
:1039A0008281887F82830895CF92DF92EF92FF9287
:1039B0006B01E12CF12C8DEF93E00E947B0DC6167C
:1039C000D706E806F90650F0B701A6018DEF93E09F
:1039D000FF90EF90DF90CF900C94D30CFF90EF907E
:1039E000DF90CF900895CF93DF93EC0167708A81C9
:1039F000887F862B8A830E94A6040E94E31B60EDC9
:103A000077E0CE01DF91CF910C94D41CCF93DF935C
:103A1000EC018A81877009F47BC08DEF93E00E94EE
:103A2000110C882309F474C00E94A704811170C08E
:103A300088819981FC01EB5BFF4F208120FD68C0EC
:103A4000EA59FF4F208120FD63C03497208120FD7B
:103A50005FC07F96208120FD5BC0EC57F10920817B
:103A600026FD56C02A8127702130D9F4895A9F4FEC
:103A70000E9453139A8180FB95F99A839872903231
:103A800019F48A8188600CC0983231F48A81877F6A
:103A90008A8364EF71E037C0983019F48A81877F98
:103AA0008A8388819981895A9F4F0E941712888141
:103AB000998160E070E0825B9F4F0E949020F894B3
:103AC0008A818F70813011F40E94AC1B8A818F70C3
:103AD000893011F40E949E1B8A818770823011F414
:103AE0000E94AC1B8A818770833011F40E94BA1B3C
:103AF00078940E94C81B8A818770843011F00E94DC
:103B0000DD1B66E070E0CE01DF91CF910C94D41CF8
:103B1000DF91CF91089508950F931F93CF93DF9373
:103B2000EC018B010E94821B6DE171E082E294E066
:103B30000E946E25FE01EE5BFF4F118300833297DA
:103B4000D183C083DF91CF911F910F9108956F9220
:103B50007F928F929F92AF92BF92CF92DF92EF921D
:103B6000FF920F931F93CF93DF93EC018C01005CC6
:103B70001F4FD801ED91FC91808190E00A974CF0A5
:103B80002C813D814E812CAF3DAF4EAF82858F732E
:103B90008FAF7E01B2E4EB0EF11C9E01245C3F4F1F
:103BA000AE01495F5F4FBE016C5F7F4FF7018081BF
:103BB00091810E946B19782ED801CD90DC90F6018E
:103BC00060806394682F82E294E00E9495256AE108
:103BD00071E082E294E00E946E2500E010E0A62CE5
:103BE000B12C061578F54601D6016C9170E084E0A1
:103BF000759567958A95E1F76A30710514F0695CEF
:103C000001C0605D82E294E00E9495250F5F1F4F26
:103C1000BFEFCB1ADB0AF40160816F70862F90E052
:103C20000A9714F0695C01C0605D82E294E00E9432
:103C300095250A151B05ACF660E282E294E00E942D
:103C40009525CFCF60E282E294E00E94952568E25C
:103C500082E294E00E9495250E94F11BAB01BC0119
:103C60002AE030E082E294E00E94F52569E282E2F7
:103C700094E00E9495256AE082E294E00E949525F6
:103C8000FCE67F16C9F085E77816B1F09A81888145
:103C900096FF0BC090910604981307C066E071E090
:103CA00082E294E00E946E2507C080930604D7014B
:103CB0008D919C910E94D90D1882DF91CF911F9117
:103CC0000F91FF90EF90DF90CF90BF90AF909F90BB
:103CD0008F907F906F9008950895FC0171836083A9
:103CE0000895DF92EF92FF920F931F93CF93DF938C
:103CF000D62EE62FF0E031975DE05E9FE0015F9FFA
:103D0000D00D1124FE01E151FD4F60834183CA5063
:103D1000DD4FD90112964D915D916D917C91159772
:103D20004A835B836C837D832D913C913983288307
:103D300014830383F682E58220E041E06D2DFC01CF
:103D4000808191810E949F16E12C00E010E026E026
:103D500040E061E0CE010E94AE0DDF91CF911F9156
:103D60000F91FF90EF90DF900895EF920F931F93C4
:103D7000CF93DF93C0E0DDE080910401C817A8F481
:103D8000DC9FC0011124FC01E151FD4F2081222361
:103D900051F0E12C00E010E020E040E060E08A50CB
:103DA0009D4F0E94AE0DCF5FE7CFDF91CF911F9166
:103DB0000F91EF900895CF93DF93EC0168E20E949A
:103DC00095250E94F11BAB01BC012AE030E0CE0139
:103DD0000E94F52569E2CE010E949525CE01DF9172
:103DE000CF91089508950F931F93CF93DF93EC0124
:103DF0008B010E94821B66E371E082E294E00E94E4
:103E00006E251C830B83FE01EF5BFF4F2596D1834C
:103E1000C083DF91CF911F910F9108956F927F9290
:103E20009F92AF92BF92CF92DF92EF92FF920F9349
:103E30001F93CF93DF931F92CDB7DEB73C01DC0118
:103E400011968C91119781110CC017968C91179730
:103E500085FF04C083E011968C9303C081E0F301D9
:103E60008183D3019C9111968C91981730F487E04F
:103E700094E00E94110C81110EC0D3019C91119607
:103E80008C91981708F468C087E094E00E94110CA8
:103E9000811101C161C0F301878180688783EC5B78
:103EA000FF4F80818D7F8083D30116968C9116976A
:103EB00012968C9312978C918F5F8C9343E064E2FF
:103EC00071E0C3010C960E945C1883010F5B1F4FC9
:103ED000F30123813481882309F47AC0F8016081D9
:103EE0007181F901ED55FF4FDB014C9150E04F5FBF
:103EF0005F4F808191810E9424278FEFF30180839F
:103F000062E371E082E294E00E946E25F301838116
:103F10009481825B9F4FDC012C9120FD04C064E002
:103F200070E00E949020D801ED91FC9190809394D4
:103F30007F0100E010E0C92CD12C091508F47BC0EA
:103F400060E282E294E00E94952582E294E00E9481
:103F5000DB1E6AE00E949525F30180818F3F09F006
:103F6000C6C0EC5BFF4F8081D3011C9211961C925E
:103F70008D7F8E7F808340E050E0BA0187E094E03F
:103F80000E94D30CF3018381948164E670E08C5A23
:103F90009F4F0E94D41CD30113968D919C9114972E
:103FA000825B9F4FFC01208120FDA1C065E070E095
:103FB0000F90DF91CF911F910F91FF90EF90DF90C5
:103FC000CF90BF90AF909F907F906F900C94902077
:103FD000D30117964C9142954170F801608171812F
:103FE000C90149830E94F60B0E944103D8016D91DB
:103FF0007C91F301838194814981895A9F4F0E946A
:10400000A7120E943B03D8016D917C91F30183813B
:1040100094810E94DD0BD30117968C9185FF08C017
:104020004CE251E060E070E087E094E00E94D30C45
:104030006EE271E067CF5701F701608170E084E0C4
:10404000759567958A95E1F76A30710514F0695C9A
:1040500001C0605D82E294E00E9495250F5F1F4FD2
:10406000FFEFEF1AFF0AD5016C916F70862F90E079
:104070000A9714F0695C01C0605D82E294E00E94DE
:1040800095250C151D050CF058CF60E282E294E0F6
:104090000E94952552CFD3011C9211961C92119724
:1040A000F301EC5BFF4F80818E7F808317969C919C
:1040B00095FF1DC082608083F3018381948164E653
:1040C00070E08C5A9F4F0E94D41CD30113968D919F
:1040D0009C91149766E070E0825B9F4F0E94902055
:1040E00062E271E082E294E00E946E2529CF0F9097
:1040F000DF91CF911F910F91FF90EF90DF90CF90C4
:10410000BF90AF909F907F906F9008950895FC01AD
:1041100052834183637085818C7F862B85830895CC
:104120000F931F93CF93DF93EC018B018D818370ED
:1041300009F486C080E00E94510380E00E945E0383
:104140008D81837081500130110539F427E0829F01
:10415000C001112481519E4F59C00230110539F41C
:1041600027E0829FC00111248F519E4F4FC0033022
:10417000110539F427E0829FC00111248D529E4F12
:1041800045C00430110539F427E0829FC001112495
:104190008B539E4F3BC00530110539F427E0829FB9
:1041A000C001112489549E4F31C00630110539F4E5
:1041B00027E0829FC001112487559E4F27C00730FA
:1041C000110539F427E0829FC001112485569E4FC6
:1041D0001DC00830110539F427E0829FC001112469
:1041E00083579E4F13C00930110539F427E0829F91
:1041F000C001112481589E4F09C00A30110541F4B5
:1042000027E0829FC00111248F589E4F9C838B838F
:104210008881816088838D81837080628D83EB814A
:10422000FC818081877011F0012B51F440E050E057
:10423000BA0180E194E00E94D30C88818E7F88834C
:10424000DF91CF911F910F910895FC0185818370BB
:10425000A9F080E00E9451038FE39CE90197F1F7F8
:1042600000C0000081E00E945103EFE3FCE93197B8
:10427000F1F700C0000080E00C9451030895CF9343
:10428000DF93EC01888180FF7AC080E194E00E9496
:10429000110C882309F473C0EB81FC818D81869514
:1042A00086958770E80FF11D41818AE0489FA00143
:1042B0001124662757FD6095762F80E194E00E94D7
:1042C000D30CEB81FC81808186FF0DC08D818695AA
:1042D00086958770E80FF11D9181992321F08095D3
:1042E00081700E945103EB81FC81808187FF0DC0AA
:1042F0008D81869586958770E80FF11D91819923B0
:1043000021F0809581700E945E036D81462F469555
:1043100046954F5F4770842F880F880F637E682B08
:104320006D83EB81FC8150E09081292F277030E074
:104330004217530724F1892F887311F4637E16C046
:10434000462F429546954770242F30E096959695D6
:1043500096959770892F90E0281739074CF481E0E3
:10436000840F8295880F807E6370682B6D8307C0F1
:1043700060E070E0CE01DF91CF910C949020DF914E
:10438000CF910895DC0113967C936E931297159646
:104390005C934E93149717963C932E931697611542
:1043A000710511F0FB01099408950F93FC018085BC
:1043B00060FB80F980872287338744875587018790
:1043C00044EF51E060E070E089E194E00F910C94DB
:1043D000D30CCF93DF93EC018D899E890E946015E9
:1043E0002227362F472F582FED89FE89EC5BFF4F90
:1043F0008081282B6DE67EE486EC91E40E94942671
:10440000675C7F4C8F4F9F4F682F70E080E090E09B
:1044100060527E4F8F4F9F4FDF91CF9108950F9342
:104420001F93CF93DF93EC0189E194E00E94110C7C
:10443000882309F468C0888580FD3EC08E8580FD94
:1044400016C081608E8744EF51E060E070E089E142
:1044500094E00E94D30CEC81FD81309709F009951E
:104460008F85888BEE81FF818081898B4CC08E7F08
:104470008E870A851B852C853D8501151105210533
:10448000310561F4CE010E94E9219B01AC01AAEF44
:10449000B0E00E94FD26AB01BC0102C0B901A80139
:1044A000445F51406109710989E194E00E94D30C95
:1044B0008F858F5F8F871AC0498950E0298530E04A
:1044C000EE81FF81808190E0BA01620F731F861731
:1044D0009707CCF0421B530B48175907A4F08F8560
:1044E00091E0980F9F87888B8081898B9E01205F48
:1044F0003F4F41E06C898D899E89DF91CF911F915B
:104500000F910C94F508DF91CF911F910F910895B1
:10451000FC01238942896489858996890C949108D4
:10452000611104C041110AC00C940F22613031F4B2
:10453000263021F02E3011F40C9488220895BF9279
:10454000CF92DF92EF92FF920F931F93CF93DF935F
:1045500000D000D000D0CDB7DEB76C01B62EC901B7
:10456000F601368B258B00E912E220E030E00B8368
:104570001C832D833E83DA82C9827601FFEFEF1A16
:10458000FF0A86019E012F5F3F4F8A5B9F4F0E946B
:10459000711EF601B48A26960FB6F894DEBF0FBEE0
:1045A000CDBFDF91CF911F910F91FF90EF90DF90E2
:1045B000CF90BF900895833081F028F4813099F036
:1045C0008230A1F008958730A9F08830B9F08430A6
:1045D000D1F4809180008F7D03C0809180008F771F
:1045E00080938000089584B58F7702C084B58F7D55
:1045F00084BD08958091B0008F7703C08091B00092
:104600008F7D8093B00008950F931F93CF93DF9316
:104610001F92CDB7DEB7282F30E0F901E55CFE4FE1
:104620008491F901E15BFE4F1491F901ED59FE4FC0
:1046300004910023C9F0882321F069830E94DB22C2
:104640006981E02FF0E0EE0FFF1FE958FE4FA591C2
:10465000B4919FB7F8948C91611103C01095812398
:1046600001C0812B8C939FBF0F90DF91CF911F9141
:104670000F910895FC01818D228D90E0805C9F4F09
:10468000821B910960E470E00E94B8260895FC0145
:10469000918D828D981731F0828DE80FF11D858DF7
:1046A00090E008958FEF9FEF0895FC01918D828D2A
:1046B000981761F0828DDF01A80FB11D5D968C9176
:1046C000928D9F5F9F73928F90E008958FEF9FEF81
:1046D000089583ED94E2892B49F082E093E0892BE1
:1046E00029F00E94D32481110C9402030895FC0147
:1046F000848DDF01A80FB11DA35ABF4F2C91848D6B
:1047000090E001968F739927848FA689B7892C939F
:10471000A089B1898C9180648C93938D848D98133A
:1047200006C00288F389E02D80818F7D8083089503
:10473000CF93DF93EC01888D8823C9F0EA89FB8948
:10474000808185FD05C0A889B9898C9186FD0FC03F
:104750000FB607FCF5CF808185FFF2CFA889B98914
:104760008C9185FFEDCFCE010E947723E7CFDF91BB
:10477000CF910895CF92DF92FF920F931F93CF9323
:10478000DF931F92CDB7DEB76C01DC015B969C9185
:104790005B975C968C915C97981307C05096ED914F
:1047A000FC915197808185FD32C0F601038D10E0A8
:1047B0000F5F1F4F0F731127F02EF601848DF81233
:1047C00011C00FB607FCF9CFD6015096ED91FC91C0
:1047D0005197808185FFF1CFC60169830E947723BD
:1047E0006981EBCF838DE80FF11DE35AFF4F6083A2
:1047F000D6015B960C935B975296ED91FC91539783
:1048000080818062808381E058968C930DC0D601B0
:104810005696ED91FC91579760835096ED91FC91DF
:10482000519780818064808381E090E00F90DF91D8
:10483000CF911F910F91FF90DF90CF900895BF927D
:10484000CF92DF92EF92FF92CF93DF93EC016A0158
:104850007B01B22E60E874E88EE190E0A70196013A
:104860000E94CC262150310941095109569547959E
:1048700037952795E889F98982E08083211580E1C1
:10488000380798F0E889F989108260E472E48FE0D3
:1048900090E0A70196010E94CC26215031094109E0
:1048A00051095695479537952795EC85FD853083B9
:1048B000EE85FF852083188EEC89FD89B082EA8918
:1048C000FB89808180618083EA89FB89808188609F
:1048D0008083EA89FB89808180688083EA89FB89FB
:1048E00080818F7D8083DF91CF91FF90EF90DF906B
:1048F000CF90BF9008951F920F920FB60F92112480
:104900002F938F939F93EF93FF93E0913204F09155
:1049100033048081E0913804F091390482FD12C0A3
:10492000908180913B048F5F8F7320913C048217AC
:1049300051F0E0913B04F0E0EE5DFB4F958F8093EA
:104940003B0401C08081FF91EF919F918F912F9146
:104950000F900FBE0F901F9018951F920F920FB6D9
:104960000F9211242F933F934F935F936F937F93F5
:104970008F939F93AF93BF93EF93FF9382E294E063
:104980000E947723FF91EF91BF91AF919F918F91FB
:104990007F916F915F914F913F912F910F900FBE3B
:1049A0000F901F90189582E294E00E943A2321E034
:1049B000892B09F420E0822F08951092250410928B
:1049C000240488EE93E0A0E0B0E080932604909366
:1049D0002704A0932804B093290481E092E09093E7
:1049E00023048093220485EC90E090932F0480931D
:1049F0002E0484EC90E0909331048093300480EC9A
:104A000090E0909333048093320481EC90E0909393
:104A100035048093340482EC90E0909337048093C3
:104A2000360486EC90E09093390480933804109219
:104A30003B0410923C0410923D0410923E040895F1
:104A400008950E9459260E9420250E944501C9E62A
:104A5000D3E20E94F6012097E1F30E946923F9CF87
:104A6000CF92DF92EF92FF920F931F93CF93DF933A
:104A70006C017A01EB01E60EF71E00E010E0CE15A6
:104A8000DF0561F06991D601ED91FC910190F08113
:104A9000E02DC6010995080F191FF1CFC801DF915C
:104AA000CF911F910F91FF90EF90DF90CF900895DD
:104AB0006115710581F0DB010D900020E9F7AD0172
:104AC00041505109461B570BDC01ED91FC910280CE
:104AD000F381E02D099480E090E00895EF92FF9239
:104AE0000F931F93CF93DF938C01FB01C0E0D0E0C5
:104AF00064917F018FEFE81AF80A662361F0D8010C
:104B0000ED91FC910190F081E02DC8010995C80F4D
:104B1000D91FF701EDCFCE01DF91CF911F910F91FA
:104B2000FF90EF9008950C945825DC01ED91FC91D5
:104B30000190F081E02D09948F929F92AF92BF92E5
:104B4000CF92DF92EF92FF920F931F93CF93DF9359
:104B5000CDB7DEB7A1970FB6F894DEBF0FBECDBFBD
:104B60007C01C42EE52FCB01D22E19A221E02D15F8
:104B700010F02AE0D22E8E010F5D1F4F8D2C912C4C
:104B8000A12CB12C6C2D7E2FA50194010E94CC2666
:104B90008C2DD29E80191124015011098A3014F4F1
:104BA000805D01C0895CF8018083211531054105D4
:104BB000510521F0C22EE32FCA01E4CFB801C7018D
:104BC0000E945825A1960FB6F894DEBF0FBECDBF48
:104BD000DF91CF911F910F91FF90EF90DF90CF90D9
:104BE000BF90AF909F908F9008952115310541F4AB
:104BF000DC01ED91FC910190F081E02D642F09948E
:104C00000C949C259A01462F50E060E070E00C94D3
:104C1000F5259A01AB0160E070E00C94F5251F9238
:104C20000F920FB60F9211242F933F938F939F9360
:104C3000AF93BF938091C0049091C104A091C2042E
:104C4000B091C3043091BF0426E0230F2D3720F428
:104C50000296A11DB11D05C029E8230F0396A11DD1
:104C6000B11D2093BF048093C0049093C104A0930E
:104C7000C204B093C3048091C4049091C504A09170
:104C8000C604B091C7040196A11DB11D8093C40450
:104C90009093C504A093C604B093C704BF91AF918D
:104CA0009F918F913F912F910F900FBE0F901F906A
:104CB0001895789484B5826084BD84B5816084BD84
:104CC00085B5826085BD85B5816085BDEEE6F0E085
:104CD000808181608083E1E8F0E0108280818260E1
:104CE0008083808181608083E0E8F0E08081816062
:104CF0008083E1EBF0E0808184608083E0EBF0E092
:104D0000808181608083EAE7F0E080818460808335
:104D100080818260808380818160808380818068DF
:104D200080831092C1000895DB018F939F930E94AE
:104D3000FD26BF91AF91A29F800D911DA39F900D65
:104D4000B29F900D11240895AA1BBB1B51E107C00F
:104D5000AA1FBB1FA617B70710F0A61BB70B881F0B
:104D6000991F5A95A9F780959095BC01CD0108959A
:104D700097FB072E16F4009407D077FD09D00E9408
:104D8000A42607FC05D03EF4909581959F4F089589
:104D9000709561957F4F0895A1E21A2EAA1BBB1B47
:104DA000FD010DC0AA1FBB1FEE1FFF1FA217B307F7
:104DB000E407F50720F0A21BB30BE40BF50B661F0D
:104DC000771F881F991F1A9469F7609570958095D1
:104DD00090959B01AC01BD01CF010895A29FB00148
:104DE000B39FC001A39F700D811D1124911DB29F1F
:104DF000700D811D1124911D08950E94EE26A59F1E
:104E0000900DB49F900DA49F800D911D11240895C5
:104E1000EE0FFF1F0590F491E02D0994FB01DC01DA
:104E200002C005900D9241505040D8F70895FB0103
:104E3000DC0104C08D910190801921F44150504053
:104E4000C8F7881B990B0895FB01DC0102C0019093
:104E50000D9241505040D8F70895DC01CB01FC0180
:104E6000F999FECF06C0F2BDE1BDF89A319600B4C3
:104E70000D9241505040B8F70895DC01CB0103C0BA
:104E80002D910E94482741505040D0F70895262F79
:104E9000F999FECF1FBA92BD81BD20BD0FB6F8941F
:0E4EA000FA9AF99A0FBE01960895F894FFCF82
:104EAE00010000000102CA00C40001061A00000041
:104EBE0000050F00010405011400746C75323030CA
:104ECE00313233360202066C75782F3132383A2081
:104EDE0000696E6974207468310A000000000001D8
:104EEE0005D404A904B104C404D304613A200020FB
:104EFE006D2000636E6C3A200020733A200078001B
:104F0E00203A006E6577206D617374657269640A6C
:104F1E000042141400000000421414000000004E61
:104F2E000A0A320A32648E0A0A320A32645E0A0AA7
:104F3E000A0A0A645E0A0A0A0A0A645E320A0A0A3F
:104F4E000A645E320A0A0A0A6400000000000000C9
:104F5E004A0A0100000000000000000000008A055F
:104F6E0001000000004A050100000000CA05010012
:104F7E000000005A050A000000004AC800000000A8
:104F8E00004AC800000000008AC80000000000426D
:104F9E00323200000000C232320000000000000079
:0E4FAE0000BA2330253A2355234723982300C9
:00000001FF
