:100000000C9481000C945B130C94A9000C94FD13C8
:100010000C9430140C9463140C94D5140C94A90013
:100020000C94A9000C94A9000C94A9000C94A900AC
:100030000C94A9000C94A9000C947F130C94A900B3
:100040000C946D1C0C94A9000C94E81A0C941A1BC7
:100050000C94A9000C94A9000C94A9000C94A9007C
:100060000C94A9000C94A9004D61696E0A00020568
:100070000A0B0C120802030405060708090A0B0CF8
:1000800082838485868788898A8B8C15006C1041D1
:100090000100002E012E0206030D04E905CA063DEB
:1000A000070C0B060D210E650F6A10C81193120381
:1000B000153416011730181819161B432156250040
:1000C00026112D353EC3202072657065617465640C
:1000D000206D6573736167650A003E200052562EDD
:1000E0000A00202074696D6564206F7574003C2DD2
:1000F00020003C692000534E2E0A00000301031526
:100100004A1B11241FBECFEFD8E0DEBFCDBF11E0E8
:10011000A0E0B1E0E6E1FBE302C005900D92AE374E
:10012000B107D9F723E0AEE7B1E001C01D92A734D3
:10013000B207E1F710E0C2E0D1E004C02297FE016F
:100140000E943E1DCC3FD107C9F70E948E1B0C9424
:10015000891D0C9400000E94FD1268E670E081EA9F
:1001600092E00E94DB1B10927A00E4E6F0E08081CE
:100170008F6E80838FEF8AB987B984B91BB818B89E
:1001800015B880818B7F808380818F7D8083808183
:100190008D7F8083549A569A2098289AE8E6F0E05A
:1001A000808181608083EBE6F0E0808181608083E4
:1001B0008BE991E00E947B0120E040E062E083EE69
:1001C00091E00E948A0B2BE931E043E061E08FE788
:1001D00091E00E94EF0C4BE951E062E088EE91E083
:1001E0000E94CA1869E070E088EE91E00E94CF1882
:1001F00061E08FEE91E00E942F15789408958BE9CD
:1002000091E00C94F60410925F0210925E0210923C
:1002100061021092600210926302109262028BE9F6
:1002200091E00C944D0181EA92E00E94A719892B7C
:1002300099F181EA92E00E94C2198A3039F4109251
:100240007E019091E00191609093E0019FE9980F09
:10025000963010F4875509C09FEB980F963010F434
:10026000875303C080538A30F0F690917E01292F86
:100270002695E091DE01F091DF01E20FF11D90FD86
:1002800004C08295807F808303C02081282B208337
:100290009F5F90937E01C7CF0895CF93DF93EC01CA
:1002A0000E942B0DCE0101960E941D17CE018A5B84
:1002B0009F4F0E94D916CE01885B9F4F0E94930BDF
:1002C000CE01835B9F4F0E94C918CE018C5A9F4F6D
:1002D0000E941115CE01895A9F4F0E949B09CE01A1
:1002E000865A9F4F0E949A09CE01845A9F4FDF91F0
:1002F000CF910C94BC15CF93DF93EC010E94890F32
:10030000CE01895A9F4F0E94390BBE01CE01019642
:100310000E941E17BE01CE01845A9F4F0E94BD1538
:10032000BE01CE018A5B9F4F0E94DA16BE01CE014C
:10033000885B9F4F0E94940BBE01CE018C5A9F4F49
:100340000E9412150E946A13E89ADF91CF910895D6
:10035000FC018AE08783DF01A35ABF4F8C9180871D
:1003600082E0828720912C0130912D0140912E0155
:1003700023873487458713962D913D914C9126878D
:100380003787408B118AEB5BFF4F808181608083D0
:100390000895CF92DF92EF92FC018EE08783DF0118
:1003A000A35ABF4F8C91808782E08287C0902C0136
:1003B000D0902D01E0902E01C386D486E586139659
:1003C000CD90DD90EC901297C686D786E08A81E0CA
:1003D000818B628B438B248B18978C91858BEB5B85
:1003E000FF4F808181608083EF90DF90CF900895F0
:1003F000FC018AE08783DF01A45ABF4F8C9180877C
:1004000082E0828720912C0130912D0140912E01B4
:1004100023873487458714962D913D914C912687EB
:100420003787408B80E8818BEB5BFF4F8081816059
:1004300080830895CF92DF92EF92FC018EE0878354
:10044000DF01A15ABF4F8C91813039F418968C91FD
:100450008E3019F41A978C9104C0818191E0980F25
:100460009183808781858062818780E18287C090C7
:100470002C01D0902D01E0902E01C386D486E58614
:10048000DF01A05ABF4FCD90DD90EC901297C68649
:10049000D786E08A86E0818B628B438B248B18970A
:1004A0008C91858BEB5BFF4F808181608083EF9027
:1004B000DF90CF9008956F927F928F929F92AF922C
:1004C000BF92CF92DF92EF92FF920F93CF93DF9381
:1004D00000D000D0CDB7DEB77C015C0125E4A20ED0
:1004E000B11CF501808180FD3BC14701F1EB8F0E0E
:1004F000911CF4018081811107C032976081C7018E
:100500000E94580DF40180836701F0EBCF0ED11CDF
:10051000F6014081F4018081970126553F4F490142
:100520004817C0F0F9019081892F86958F5F8770F9
:10053000282F220F917F922B908390E003970CF04D
:1005400003C168E0C7018E549F4F0E94F9108111CA
:10055000FBC004C1842F90E04423F9F0F501208111
:1005600021FD1BC0BC01615071099B01E3E0359581
:100570002795EA95E1F72E0D3F1DF901EE54FF4F47
:100580006770772721E030E0062E01C0220F0A9421
:10059000EAF72095308123232083F40130813E70D7
:1005A000542F5770311115C09C0173E03595279574
:1005B0007A95E1F72E0D3F1DF901EE54FF4F21E032
:1005C00030E0052E01C0220F0A94EAF73081322B69
:1005D000308363E0959587956A95E1F78E0D9F1DB1
:1005E000FC01EE54FF4F21E030E08081882311F0C0
:1005F00020E030E002C0359527955A95E2F7232B8D
:1006000069F53701FFEA6F0E711C9E012F5F3F4FA6
:10061000F3016081C7010E94450D64E0CE0101969F
:100620000E94F9108823F1F0F6014081842F90E0B8
:1006300053E0959587955A95E1F78E0D9F1DFC0126
:10064000EE54FF4F842F877021E030E001C0220F6D
:100650008A95EAF720958081282320834F5FF60151
:1006600040837EC001E0F601208144E0F301608117
:10067000C7010E94E30DE82FF0E08081D701A65466
:10068000BF4F8C93B70162557F4FFB018081875F1D
:10069000F7018783818180878185F401908195FBB3
:1006A000992790F9846090FB85F99C9190FB84F9DF
:1006B000F70181871F978C91828780912C019091FF
:1006C0002D01A0912E0183879487A58729813A81E6
:1006D0004B8126873787408BD701AD5BBF4F8D910C
:1006E0009C91FB01408150E03297608171810A96B4
:1006F0000E94581D81E0F7018383F50180818160AC
:100700008083F701818585FD1AC0F6012081822F43
:1007100090E033E0959587953A95E1F78E0D9F1D12
:10072000FC01EE54FF4F822F877021E030E001C0C2
:10073000220F8A95EAF72095808128232083F601ED
:1007400080818F5F80830CC0F70181818F5F8183FF
:1007500080E1F40111928A95E9F702C0F601108256
:100760000F900F900F900F90DF91CF910F91FF900E
:10077000EF90DF90CF90BF90AF909F908F907F9041
:100780006F900895CF93DF93EC0184E18F83FE0196
:10079000E45AFF4F8081888780E18A8720912C016D
:1007A00030912D0140912E012B873C874D87349647
:1007B0002081318142812E873F87488B198A7D971E
:1007C000A081B1811B968AE0E2E2F1E001900D92F6
:1007D0008A95E1F7CB5BDF4F888181608883DF9169
:1007E000CF910895FC01665F6783DC01AA55BF4F76
:1007F0008C9191E0980F9C9380878185806281879E
:1008000080E1828720912C0130912D0140912E01B1
:1008100023873487458711962D913D914C912687EA
:100820003787408B81E0818BEB5BFF4F808181605C
:1008300080830895FC01665F6783DC01AA55BF4F82
:100840008C9191E0980F9C9380878185806281874D
:1008500080E1828720912C0130912D0140912E0161
:1008600023873487458711962D913D914C9126879A
:100870003787408B82E0818BEB5BFF4F808181600B
:1008800080830895AF92BF92CF92DF92EF92FF9252
:100890000F93CF93DF93EC01FC01EB5BFF4F808163
:1008A00080FD49C05E0120EAA20EB11CF5018081E5
:1008B0009E012E553F4F690181FF12C0ED55F10990
:1008C00020813181255F3F4FF60140813196608163
:1008D000CE010E949912682FCE010E94F2031BC024
:1008E00082FF1DC0FE01ED5BFF4FE080F180FBE069
:1008F000EF0EF11CF9010081FE01EB55FF4F208145
:100900003197408131976081CE010E94730E682F2C
:10091000CE010E941A04F60180818F5F8083CF553B
:10092000DF4FF60190818881981305C08AE0F501B8
:1009300011928A95E9F7DF91CF910F91FF90EF9097
:10094000DF90CF90BF90AF900895FB01918186E733
:100950008927818382E02081A82FB0E0AE0FBF1FDE
:10096000821738F42C91945292279C938F5F922F88
:10097000F2CF8C91928189278C930895FB0121817C
:1009800086E728272183428132E05081832F90E03F
:10099000351748F4DF01A80FB91F24528C9128277E
:1009A0002C933F5FF2CFE80FF91F8081842780836B
:1009B00008950F931F93CF93DF93EC0188818823D1
:1009C00079F00E94731309811A812B813C81601791
:1009D00071078207930710F0188202C080E001C0FF
:1009E00081E0DF91CF911F910F910895EF92FF92D7
:1009F0000F931F93CF93DF93EC010E9451138E014D
:100A000008561F4F882391F0D8016D917C91CE013B
:100A1000895A9F4F0E94A00AF80160817181DB0111
:100A20008C91882319F0CE010E94A504D801ED9184
:100A3000FC918081882329F0CE01845A9F4F0E9427
:100A4000D415FE01EB5BFF4F808180FF04C0CE0117
:100A500001960E943917FE01E056FF4F808180FF0A
:100A600003C0CE010E944204FE01E655FF4F808183
:100A700080FF03C0CE010E945B028E0104561F4F0F
:100A8000F801808180FF0AC08BE692E00E94D904C1
:100A9000882321F0D8018C918E7F8C937E01BBEB53
:100AA000EB0EF11CF70180818E01035B1F4F80FF6D
:100AB00019C086E692E00E94D904882399F0D701F4
:100AC0008C918E7F8C9363E085E792E00E94F91011
:100AD000882319F063E070E002C062E070E0C801B2
:100AE0000E94CF18CE018A5B9F4F0E94DE16CE0176
:100AF000885B9F4F0E94280CC8010E942A19CE01D2
:100B00008C5A9F4FDF91CF911F910F91FF90EF90E3
:100B10000C943D15CF92DF92EF92FF92CF93DF932B
:100B2000EC016A017B0181E0411551056105710508
:100B300009F480E08883882351F00E9473136C0DC0
:100B40007D1D8E1D9F1D69837A838B839C83DF911E
:100B5000CF91FF90EF90DF90CF9008950F931F9368
:100B6000CF93DF93EC01FC01E15AFF4F808181308C
:100B700039F4389680818A3019F43B97808104C01B
:100B8000898191E0980F99839AE19F83888789856D
:100B90008460898763E085E792E00E94F910811103
:100BA00003C08985806289871A8620912C01309143
:100BB0002D0140912E012B873C874D872091750296
:100BC00030917602409177022E873F87488B609163
:100BD0000801709109018E010D5B1F4FF8018081A2
:100BE000918143E050E00A960E94421DF801A081E5
:100BF000B1811D968AE0E2E2F1E001900D928A95C2
:100C0000E1F760910801709109016D5F7F4FF80174
:100C10008081918144E050E047960E94421DFE0190
:100C2000EB5BFF4F808181608083EA58FF4F8081BA
:100C30008160808340E25EE460E070E086E692E0FE
:100C40000E948A0561E070E0CE01835B9F4FDF91D7
:100C5000CF911F910F910C94CF18CF93DF93FC018C
:100C60002081222341F0C181D2810E947313CE01E1
:100C7000861B970B02C080E090E0DF91CF91089532
:100C8000CF92DF92EF92FF920F931F933E2DFC01C4
:100C9000A081B181C280D380E480F580C7019595A1
:100CA0008795E0FE0CC0FD01E80FF91F0190F0816F
:100CB000E02DEC0DFD1D0190F081E02D01C0F6014D
:100CC000E32E8A0F9B1F09951F910F91FF90EF90C4
:100CD000DF90CF9008958F929F92AF92BF92CF9264
:100CE000DF92EF92FF920F931F93CF93DF93EC016C
:100CF0006C012FE5C20ED11CD6012C91222309F4E0
:100D00000CC3213009F018C24C01B7E68B0E911CC0
:100D1000F4018081813009F059C07E01F8E9EF0EBD
:100D2000F11CD7014D915C91445F5F4F8E010A59D0
:100D30001F4FF8016081CE010E947C10D7014D91B8
:100D40005C91445F5F4FF8016081CE010E94BD114C
:100D50009E01225A3F4F5901882329F1D8014C9115
:100D6000242F30E0215031095DE0529FC001539F94
:100D7000900D1124FC01E95AFD4F2081222379F0C6
:100D8000F70100811181015F1F4FA4E0EA2ED40119
:100D90002C91F6016081825A9D4F0E944006F50118
:100DA000808185FD55C1D5018C9185FFB6C2CE01EC
:100DB000DF91CF911F910F91FF90EF90DF90CF9037
:100DC000BF90AF909F908F900C94F801823069F49F
:100DD000FE01E856FF4F40815181445F5F4FF2971B
:100DE0006081CE010E947C102DC1833019F58E01E7
:100DF0000A591F4FF8016081CE010E949811FE012F
:100E0000EF55FF4F80833596DE01A35ABF4F8C917B
:100E10008083319613962D913D914C91208331839F
:100E200042833497D8018C918083C056DF4F8881EC
:100E300082605CC0843009F062C07E01B8E9EB0ECC
:100E4000F11CF70140815181445F5F4F6E01F6E66E
:100E5000CF0ED11CD6016C91CE010E940C108E01D8
:100E60000B551F4FF8018083D701ED91FC9140890C
:100E7000F6016081CE010E945A0EFE01EF55FF4F30
:100E800080839E012A553F4FCE01835A9F4FDC013C
:100E90008C91D9018C93BE0169557F4FCE01805A48
:100EA0009F4FDC012D913D914C91DB012D933D93A2
:100EB0004C939E012D553F4FD6018C91D9018C93B7
:100EC000D7018D919C91DC0150968C91DE01AC553F
:100ED000BF4F8C93C056DF4F888184608883D801D0
:100EE0009C919F3F31F09081992319F08160888314
:100EF00014C28AE0FE0111928A95E9F70EC285308C
:100F000089F58E0108561F4FD8014D915C91445FC1
:100F10005F4F7E01B6E6EB0EF11CF7016081CE015A
:100F20000E940C10FE01E156FF4F8083D7019C9177
:100F300032979083D801ED91FC919089FE01E256A1
:100F4000FF4F90838F3F09F47DC03297808181608D
:100F5000808340E25EE460E070E08BE692E00E9415
:100F60008A0570C0863009F04CC0FE01E456FF4F80
:100F700080818E7F80837E01BDE9EB0EF11CF7013D
:100F80008081811107C032968081811103C0CE011A
:100F90000E94380ED7012C91222309F453C0822FCE
:100FA00090E001973DE0389FF001399FF00D11244A
:100FB000E95AFD4F8081882309F444C0213059F457
:100FC00003811481FE01E156FF4F208141E061E081
:100FD000CE010E94AD0DF701208130E02150310992
:100FE0004DE0429FC001439F900D1124E12C00E091
:100FF00010E026E040E061E0825A9D4F0E944006EA
:1010000021C08830A1F5FE01E456FF4F808180FFAA
:1010100019C031966081F7978081681313C0F296EA
:101020000190F081E02D7F012CE0E20EF11C0081A7
:101030000A50FE01E156FF4F208131974081CE01D9
:101040000E94FE0EFE01E25AFF4F808185FF65C1BE
:10105000CE01DF91CF911F910F91FF90EF90DF9024
:10106000CF90BF90AF909F908F900C94A801893043
:1010700079F4CE01DF91CF911F910F91FF90EF9006
:10108000DF90CF90BF90AF909F908F900C94C20351
:101090008A30E9F4FE01E856FF4F808191814AE0F1
:1010A00062E271E00C960E94F70F882309F435C1C3
:1010B000CE01DF91CF911F910F91FF90EF90DF90C4
:1010C000CF90BF90AF909F908F900C94AE058E30D4
:1010D00009F023C1FE01EA59FF4F6081262F30E05D
:1010E000215031094DE0429FC001439F900D1124D2
:1010F000FC01E95AFD4F2081222369F0FE01E45AE8
:10110000FF4F20812B508E0108591F4FE22E2EE0F9
:10111000462F61E0FEC020E040E0CE01DF91CF919C
:101120001F910F91FF90EF90DF90CF90BF90AF9005
:101130009F908F900C941A02223009F042C0FC015B
:10114000EA59FF4F808181110CC0B197808180FFE7
:10115000E4C0789690818C819813DFC08FEF8A83EA
:10116000DCC0813041F4FE01EB5BFF4F808180FFEA
:10117000D4C07796EFCF823009F4CFC0843009F421
:10118000CCC0803809F0C9C0209364028091650208
:101190008F5F80936502FE01E455FF4F84E692E085
:1011A0009183808332962083319681E080833597C6
:1011B0008081C555DF4F90E4988380638160808390
:1011C000ACC0213109F061C0FC01EA59FF4F8081B8
:1011D000823011F531962081422F50E04150510963
:1011E0003DE0349FC001359F900D1124FC01E95A68
:1011F000FD4F3081332309F490C0FE01E45AFF4FC4
:1012000030813B50C856DF4F08811981045F1F4F62
:10121000E32E42E061E17DC0843009F07EC0FE0132
:10122000E959FF4F8081811178C0CE010E942C0DB9
:10123000CE010E94660DCE010E94380E68E070E07B
:10124000CE01835B9F4F0E94CF1843E061E0CE0147
:101250000E94990DFE01E25AFF4F908195FF5DC0FB
:101260008F3F09F4F5CE20E040E060E0CE01DF9151
:10127000CF911F910F91FF90EF90DF90CF90BF9093
:10128000AF909F908F900C94C901223109F445C012
:101290002E3308F442C08C01005A1F4FB8010E943F
:1012A0005D10982E8823C9F1282F30E02150310994
:1012B0008DE0829F5001839FB00C1124C501895A93
:1012C0009D4F7C01DC018C91882309F4C1CEA801DB
:1012D000692DCE010E940C10F701058116816FEF78
:1012E000690D282F4181CE010E94AD0DFE01E45A07
:1012F000FF4F80818950FC9600811181065F1F4F4E
:10130000F197CA59DF4FE82E20814881D6016C91B0
:10131000C501825A9D4F0E944006DF91CF911F91D7
:101320000F91FF90EF90DF90CF90BF90AF909F9084
:101330008F90089508950895862F2A982C99FECFAE
:101340000E944B132A9A0895CF93DF93EC0166E332
:101350000E949C096AE3CE010E949C0969E3CE01C8
:10136000DF91CF910C949C09EF92FF920F931F9302
:10137000CF93DF9300D0CDB7DEB7122F2A982C99E8
:10138000FECF842F806C69837A830E944B1369811E
:10139000062FE62E7A81F72E8E2D801B811738F4CA
:1013A00080E00E944B13F70181937F01F5CF2A9AC9
:1013B0000F900F90DF91CF911F910F91FF90EF90C1
:1013C0000895EF92FF920F931F93CF93DF9300D076
:1013D000CDB7DEB7122F2A982C99FECF862F8064C6
:1013E00049835A830E944B134981042FE42E5A816A
:1013F000F52E8E2D801B811730F4F70181917F012E
:101400000E944B13F6CF2A9A0F900F90DF91CF9145
:101410001F910F91FF90EF9008952A982C99FECF7D
:10142000862F842B0E944B1380E00E944B132A9A34
:101430000895EF92FF920F931F93CF93DF931F9224
:10144000CDB7DEB77C018B0166E349830E949C091E
:101450006AE3C7010E949C096BE3C7010E949C09D3
:1014600049814423C9F165E3C7010E949C092FEF1C
:1014700086E791E0215080409040E1F700C00000F5
:10148000EFEFF6E721E0E150F0402040E1F700C047
:1014900000008FEF96E7E1E081509040E040E1F7F7
:1014A00000C00000FFEF26E781E0F15020408040BF
:1014B000E1F700C000009FEFE6E7F1E09150E04067
:1014C000F040E1F700C000002FEF86E791E02150E7
:1014D00080409040E1F704C0EFECF7E03197F1F77E
:1014E00000C00000F80120812F5FA8016FE3C70151
:1014F0000E94E1096AE3C7010E949C0965E3C701F4
:101500000E949C0918EC40EC65E3C7010E940D0A9B
:101510008D3069F040EC65E3C7010E940D0A83310C
:1015200031F4FAE1FA95F1F700C0115061F781E06A
:101530000F90DF91CF911F910F91FF90EF90089541
:101540000F931F93CF93DF93EC018B0140EC6BE380
:101550000E940D0A982F9F7761F187FD2AC040E80D
:101560006FE3CE010E940D0AF80180838D3310F5E0
:10157000282F4FE3B8016F5F7F4FCE010E94B4095F
:1015800040E86FE3CE010E940D0A87FD80958983B4
:1015900089818695885B898340E86FE3CE010E944C
:1015A0000D0A982F9F779A83881F8827881F888322
:1015B00002C0F80110826AE3CE010E949C0966E332
:1015C000CE010E949C0964E3CE010E949C096CE359
:1015D000CE010E949C09F8018081DF91CF911F917B
:1015E0000F9108951F93CF93DF93EC012A982C99C4
:1015F000FECF2A9A18EC40EC65E3CE010E940D0A5A
:101600008F3F31F064E3CE010E949C0918EC0DC0BD
:101610008AE18A95F1F700C0115069F7F3CF9AE19A
:101620009A95F1F700C0115041F040EC68E3CE010B
:101630000E940D0A982F907591F386FB882780F9F8
:10164000DF91CF911F910895CF93DF931F92CDB774
:10165000DEB7862F2A982C99FECF49830E944B1320
:101660004981842F0E944B132A9A0F90DF91CF91CA
:1016700008950F931F93CF93DF93EC010E943D13C6
:101680002A9A8DE08A95F1F700002A989AE19A95B6
:10169000F1F700C02A9AEDE6EA95F1F7000060E361
:1016A000CE010E949C098FE19EE40197F1F700C0F2
:1016B000000002E910E0F80131964491F8016491CC
:1016C000CE010E94240B0E5F1F4FF0E0063C1F0767
:1016D00091F763E3CE010E949C0940EC65E3CE01E3
:1016E0000E940D0A813029F082E08A95F1F700C04E
:1016F000F4CF40EC6EE3CE010E94240B64E3CE01F4
:101700000E949C096CE3CE01DF91CF911F910F9154
:101710000C949C09FC0167708281887F862B8283F0
:101720004383248308950895FC01718360830895A1
:10173000EF920F931F93CF93DF93EC01162F8881C5
:10174000998164EF71E08C5A9F4F0E9419151130F6
:10175000E1F58A8180648A838770813021F48881F1
:1017600099810E94AE058A818770823009F06AC033
:1017700080915702882309F465C0A0915E02B09160
:101780005F0240916002509161026091620270912B
:101790006302CB019595879560FF0CC0FD01E80FB2
:1017A000F91F0190F081E02DE40FF51F0190F08109
:1017B000E02D01C0FA01E12C00E010E020E041E062
:1017C00060E08A0F9B1F09953DC0123019F48A8191
:1017D0008F7B15C0133079F48A8180688A83877083
:1017E000823081F588819981DF91CF911F910F918E
:1017F000EF900C94AE05143021F48A8180648A83C2
:1018000021C01530F9F48A818F7B8F778A8308E1B4
:1018100020E040E060E0888199810E94E30D811121
:1018200011C0888199810E942C0D888199810E9424
:10183000660D88819981DF91CF911F910F91EF9073
:101840000C94380EDF91CF911F910F91EF90089576
:10185000CF93DF93EC018A81877009F474C06C81A7
:101860008B810E94A4138770880F880F880F9A813C
:10187000977C982B9A83987309F580E792E00E94F1
:10188000D9048823D9F048EB5BE060E070E080E7A2
:1018900092E00E948A05888199816CEA7DE08C5AE9
:1018A0009F4F0E9419158A8187FF02C064E001C022
:1018B00063E0CE01DF91CF910C94980B8A818873FD
:1018C000883059F480E792E00E94D904882329F0F7
:1018D0008A818F7B8F778A8336C08A81982F98730D
:1018E000903169F448EB5BE060E070E080E792E003
:1018F0000E948A05888199816CEA7DE01EC098313A
:1019000011F5982F907C903C11F465E007C086FF9C
:1019100002C062E003C087FD04C061E0CE010E9406
:10192000980B48EE53E060E070E080E792E00E94A0
:101930008A05888199816CED75E08C5A9F4FDF9103
:10194000CF910C941915DF91CF910895FC01208D52
:10195000DB014C91618D828D938D0C94C901FC014A
:10196000208D4789618D828D938D0C941A02FC0124
:10197000828D938D6E3319F06054623028F4208D7F
:101980004789618D0C94C9010C94A801EF920F93C3
:101990001F93662301F1613019F4263061F41BC0F6
:1019A000613181F44230B9F44E2DB8011F910F918D
:1019B000EF900C94A60C2E3071F41F910F91EF90C4
:1019C0000C94AF0C6E3338F02E2DA8011F910F919F
:1019D000EF900C94B70C1F910F91EF900895BF9268
:1019E000CF92DF92EF92FF920F931F93CF93DF93EB
:1019F00000D000D000D0CDB7DEB76C01B62EC90143
:101A0000F601338F228F06EC1CE020E030E00B83E0
:101A10001C832D833E83DA82C9827601FFEFEF1AA1
:101A2000FF0A86019E012F5F3F4F8A5B9F4F0E94F6
:101A30009716F601B18E26960FB6F894DEBF0FBE4C
:101A4000CDBFDF91CF911F910F91FF90EF90DF906D
:101A5000CF90BF9008950895CF93C0E08091060184
:101A6000C81788F484E0C89FF0011124E45FFE4F9A
:101A7000618184E0689FB0011124828193810E947A
:101A80001A13CF5FEBCFCF910895742F84E0689F36
:101A9000F0011124E85FFE4F82819381A90164E087
:101AA00024E0729F800D911D11240E940C13089553
:101AB00080910601861740F084E0689FF0011124B0
:101AC000E85FFE4F8181089580E00895CF93DF9312
:101AD000C0E0D6E080910701C81740F58C2F90E058
:101AE000D89FF001D99FF00D1124E05FFE4F2181B6
:101AF0002350223048F4E08124E0E29FF0011124D9
:101B0000E85FFE4F218101C021E0D89FF001D99FFD
:101B1000F00D1124E05FFE4F6381269FB001112478
:101B2000848195810E941A13CF5FD4CFDF91CF912A
:101B3000089590910701E1E1F1E080E0891759F003
:101B4000DF0111972C91261303C02081241721F067
:101B50008F5F3696F3CF8FEF0895FF920F931F9309
:101B6000CF93DF931F92CDB7DEB7F62E29830E9465
:101B7000990D29818F3FF9F0FF2051F094E0F99EF3
:101B8000D0011124A85FBE4F11969C91291798F49B
:101B900096E0899FF0011124E05FFE4F338184813C
:101BA0009581A801632F329F800D911D11240E9401
:101BB0000C1381E001C080E00F90DF91CF911F9165
:101BC0000F91FF900895EF92FF920F931F93CF9381
:101BD000DF9300D0CDB7DEB7162F2A830E94990D70
:101BE0002A818F3FD9F1112351F094E0199FD00140
:101BF0001124A85FBE4F11969C91291778F596E0A5
:101C0000899FF0011124E05FFE4F8481958113814B
:101C100060910A0170910B0140E050E0DF011296E3
:101C2000342F4117D0F4EC917A01EE0EF11CF7013C
:101C3000E60FF71FE4914F5F5F4FE013F1CF129F64
:101C4000800D911D1124AE014F5F5F4F61E0830F46
:101C5000911D0E940C13898102C001C080E00F9089
:101C60000F90DF91CF911F910F91FF90EF9008950A
:101C70000F93CF93DF93EC010AE020E040E060E0B7
:101C80000E94E30D809375020BE020E040E060E0ED
:101C9000CE010E94E30D809376020CE020E040E04C
:101CA00060E0CE010E94E30D80937702DF91CF9137
:101CB0000F9108950E94990D8F3F99F096E0899FAA
:101CC000F0011124E05FFE4F238130E0220F331F2B
:101CD00080E08F5F121613061CF420513109F9CFF2
:101CE000089580E008956F927F929F92AF92BF9285
:101CF000CF92DF92EF92FF920F931F93CF93DF93D8
:101D00001F92CDB7DEB7162F370129830E94990D98
:101D100029818F3F09F462C0112359F094E0199F83
:101D2000D0011124A85FBE4F11969C91291708F08D
:101D300055C00295007F0695482F50E0A6E08A9F87
:101D4000F0011124E05FFE4F8381782F701B17167E
:101D50002CF0F3011182108282E041C078300CF047
:101D600078E096E0949FF001959FF00D1124E05FDC
:101D7000FE4FA280E480F580829FE00CF11C1124CC
:101D8000912CC72EDD24C7FCD094B12C10E0E00EBE
:101D9000F11E892D90E08C159D05ECF49C012A0D17
:101DA0003B1D200F311FE0910A01F0910B01E20F62
:101DB000F31FE491D301EC93A301B2E06B0E711C0D
:101DC0004F5F5F4F61E08E0D9F1D79830E940C1362
:101DD00093947981DECF872F880F01C080E00F9028
:101DE000DF91CF911F910F91FF90EF90DF90CF90F7
:101DF000BF90AF909F907F906F9008956F927F9269
:101E00008F929F92AF92BF92CF92DF92EF92FF920A
:101E10000F931F93CF93DF931F92CDB7DEB7162F8B
:101E200029830E94990D29818F3F09F44EC0112307
:101E300059F094E0199FD0011124A85FBE4F11966C
:101E40009C91291708F041C096E0899FF001112468
:101E5000E05FFE4F838164807580829F600C711CFF
:101E6000112410E06F0183E0C80ED11C5F0192E0E5
:101E7000A90EB11C101740F5F601608120910A01EE
:101E800030910B0180E090E0412F50E0D701A40F8A
:101E9000B51F782F8617B0F4F5019080FC01E90D8D
:101EA000F11DE20FF31FE4910196FC91EF13F1CFC6
:101EB0004F5F5F4F4E0D5F1D61E0C301870F911DA6
:101EC0000E9413131E5FD6CF01C080E00F90DF91F8
:101ED000CF911F910F91FF90EF90DF90CF90BF9027
:101EE000AF909F908F907F906F900895862728E005
:101EF00030E0AC015695479580FF06C0CA0161E00D
:101F0000862760EA962701C0CA012150310989F766
:101F10000895DF92EF92FF920F931F93CF93DF9379
:101F200000D000D0CDB7DEB78C010E940B131C820D
:101F30001B82E090070186E0E89E7001112480E09A
:101F400090E0D12C2D2D30E02E153F0544F4F90101
:101F5000E05FFE4F60810E94760FD394F3CF9A83A7
:101F60008983AE014D5F5F4F62E080E090E00E94A8
:101F70000C1329813A818B819C812817390771F0D4
:101F8000C8010E942C0DC8010E94660DAE014F5F72
:101F90005F4F62E080E090E00E94131380912C017B
:101FA00090912D01892B39F44CE251E063E082E0FD
:101FB00090E00E940C138091220190912301892BC3
:101FC00039F442E251E063E082E090E00E940C13B9
:101FD000C8010E94380E0F900F900F900F90DF9164
:101FE000CF911F910F91FF90EF90DF90089550E0F7
:101FF0000E944B1D21E0892B09F020E0822F0895DB
:10200000CB0143E06CE271E00C94F70FCB0143E0AD
:1020100065E772E00C94F70FBF92CF92DF92EF92D8
:10202000FF920F931F93CF93DF9300D000D0CDB7D3
:10203000DEB77A01662381F180910601861750F19F
:10204000B12C84E0689F90011124285F3E4F8901E4
:102050000F5F1F4F6901E2E0CE0ED11C17C0F601E1
:1020600080819181AE014F5F5F4F64E0F4E0BF9EDD
:10207000800D911D11240E940C1344E0B701CE0184
:1020800001960E94F70F811109C0B394F801808175
:10209000B81628F38FEF03C080E001C08B2D0F909E
:1020A0000F900F900F90DF91CF911F910F91FF90A4
:1020B000EF90DF90CF90BF900895FF920F931F9302
:1020C000CF93DF93EC018B01FF24F3948091060101
:1020D0008F1548F0A8016F2DCE010E940C108F3F84
:1020E00021F4F394F3CF80E001C08F2DDF91CF91E5
:1020F0001F910F91FF9008957F928F929F92AF92C0
:10210000BF92CF92DF92EF92FF920F931F93CF93E4
:10211000DF93CDB7DEB728970FB6F894DEBF0FBEBA
:10212000CDBF8A0180910601861708F442C0FA01EA
:1021300080819181A2818D839E83AF8384818887F2
:10214000712CF4E06F9FC0011124885F9E4F5C01E9
:102150002FEFA21AB20A6C01E2E0CE0ED11C4601AA
:10216000F5018081781618F5F4E07F9E7001112446
:10217000F60180819181AE014F5F5F4F64E08E0D6B
:102180009F1D0E940C1344E0B801CE0101960E94ED
:10219000F70F811110C044E0BE016B5F7F4FCE018D
:1021A00001960E94F70F811106C07394D9CF81E088
:1021B0000CC080E00AC0F4018081918164E070E08D
:1021C0008E0D9F1D0E941A13F0CF28960FB6F8941B
:1021D000DEBF0FBECDBFDF91CF911F910F91FF905A
:1021E000EF90DF90CF90BF90AF909F908F907F90B7
:1021F0000895662349F06150FC01E60FF11D20812E
:102200002223B9F380E0089581E00895EF92FF92D0
:102210000F931F93CF93DF93EC017B018A0163E05F
:10222000CA010E94F910811129C0B801CE010E9493
:102230000010882329F1B701CE010E9406108111F8
:1022400021C0B701CE010E945D1081111DC0B701F0
:10225000CE010E940010811119C0B801CE010E9468
:102260000010811102C085E712C063E085E792E0AB
:102270000E94F9108823B9F388E709C082E607C0F5
:102280008CE605C08DE603C080E701C089E6DF91DA
:10229000CF911F910F91FF90EF900895CF92DF9211
:1022A000EF92FF920F931F93CF93DF9300D000D054
:1022B000CDB7DEB780910601861760F1D12CC12C15
:1022C00024E0629FB0011124685F7E4F8B010F5F95
:1022D0001F4F7B0182E0E80EF11CF8018081D816C7
:1022E000B8F4F70180819181AE014F5F5F4F64E0E8
:1022F000F4E0DF9E800D911D11240E940C1364E018
:10230000CE0101960E94F9108111C394D394E5CFB8
:102310008C2D01C080E00F900F900F900F90DF91F7
:10232000CF911F910F91FF90EF90DF90CF90089584
:10233000CF93DF93209106012617D8F024E0629F07
:10234000F0011124E85FFE4FC181D0E00E944E11E0
:102350009E01281B31092F5F3F4F220F331F220F91
:10236000331F80E0121613062CF4205131098F5FC1
:10237000F9CF80E0DF91CF9108954F925F926F92F5
:102380007F928F929F92AF92BF92CF92DF92EF9205
:10239000FF920F931F93CF93DF9300D000D0CDB760
:1023A000DEB78A0180910601861710F480E0ACC088
:1023B00077247394FA018381811101C0712CF80193
:1023C0008481882319F0F72DF2607F2E812C912CC7
:1023D000E62EF12C21E0E21AF108EE0CFF1CEE0CC7
:1023E000FF1CC701845F9E4F6C01EFEFCE1ADE0A1F
:1023F0005C01F2E0AF0EB11CF60180818816B8F4E2
:10240000F50180819181AE014F5F5F4F64E0F4E0A0
:102410008F9E800D911D11240E940C1364E0CE014B
:1024200001960E94F910811193948394E5CFF801ED
:1024300093818481992331F08823D9F0F1E0F91553
:1024400018F0B4CF811115C0612CC701845F9E4F75
:102450005C012FEFA21AB20A7C01E2E0EE0EF11C41
:102460004424439452E0552E4801F4E08F0E911C11
:102470001BC0992009F49ACFE7CF24E0629E600147
:102480001124F70180819181AE014F5F5F4F64E0BD
:102490008C0D9D1D0E940C1364E0CE0101960E94DC
:1024A000F910811106C06394F5018081681628F344
:1024B00005C070FC05C071FC10C0F5CF81E024C0E0
:1024C0007424F70180819181A80164E08C0D9D1D29
:1024D0000E941313F8016582E6CF7524F70180810D
:1024E0009181A80163E08C0D9D1D0E941313F701DB
:1024F000808191810396A40161E08C0D9D1D0E9455
:102500001313F8016682CFCF0F900F900F900F90AA
:10251000DF91CF911F910F91FF90EF90DF90CF90BF
:10252000BF90AF909F908F907F906F905F904F90F3
:1025300008958F929F92BF92CF92DF92EF92FF9277
:102540000F931F93CF93DF931F92CDB7DEB7B42EB7
:10255000490180910601861708F43FC0D12CC12C97
:1025600020E034E0639FB0011124685F7E4F8B014F
:102570000F5F1F4F7B0182E0E80EF11CF8018081A4
:10258000D81618F5F70180819181A40164E0F4E088
:10259000DF9E800D911D112429830E940C1364E09D
:1025A000C4010E94F910298181110DC02C5FCB104C
:1025B00006C02031A0F434E0830E911C04C0203109
:1025C00010F0C39420E0D394D9CFF401108211828B
:1025D0001282138284E0820F03C080E001C0822F48
:1025E0000F90DF91CF911F910F91FF90EF90DF90AF
:1025F000CF90BF909F908F9008958091C10084FDEF
:1026000009C026E040E051EE60E070E081EA92E02F
:102610000C948C1A089508959C01CA01462F50E02D
:10262000B9010C94611D9C01CA01462F50E0B9010B
:102630000C94711DEF92FF920F931F93CF93DF9332
:102640001F92CDB7DEB77B011982E80EF91E8C010F
:102650000E151F0551F041E050E0B801CE01019682
:102660000E94711D0F5F1F4FF3CF0F90DF91CF912D
:102670001F910F91FF90EF9008955298229A84B184
:10268000886284B9249880E58CBDE9E6F0E0808119
:102690008260808308958EBD0DB407FEFDCF8EB598
:1026A000089580919002813019F41092900208955B
:1026B0008091900208951F920F920FB60F921124ED
:1026C0008F9381E0809390028F910F900FBE0F90B7
:1026D0001F90189582E084BD93E095BD80936E00B5
:1026E0008DE787BD08952FB7F89460918C027091A3
:1026F0008D0280918E0290918F022FBF08951F92BC
:102700000F920FB60F9211248F939F93AF93BF93A5
:1027100080918C0290918D02A0918E02B0918F02D7
:102720000196A11DB11D80938C0290938D02A09300
:102730008E02B0938F02BF91AF919F918F910F90B6
:102740000FBE0F901F901895CF92DF92EF92FF92DD
:102750001F93CF93DF93162F96E0899FE0011124FA
:10276000C658DD4F98818981892790E0062E02C0E6
:10277000959587950A94E2F780FD02C088810CC088
:10278000CA80DB80EC80FD800E9473136C157D0590
:102790008E059F0550F4898121E030E0012E01C0B3
:1027A000220F0A94EAF7822320C0888190E0012E4C
:1027B00002C0959587950A94E2F7298180FF0BC0A6
:1027C00081E090E0012E01C0880F0A94EAF7282BDF
:1027D000298383E00AC081E090E001C0880F1A9548
:1027E000EAF780958223898382E0DF91CF911F9160
:1027F000FF90EF90DF90CF9008951F920F920FB649
:102800000F9211242F933F934F935F936F937F9376
:102810008F939F93AF93BF93EF93FF9383B1809375
:102820007A020E9473136B5F7F4F8F4F9F4F6093AD
:102830007C0270937D0280937E0290937F02FF91D1
:10284000EF91BF91AF919F918F917F916F915F9128
:102850004F913F912F910F900FBE0F901F901895A1
:102860001F920F920FB60F9211242F933F934F9305
:102870005F936F937F938F939F93AF93BF93EF93E8
:10288000FF9386B1809380020E9473136B5F7F4F2A
:102890008F4F9F4F609382027093830280938402D4
:1028A00090938502FF91EF91BF91AF919F918F918E
:1028B0007F916F915F914F913F912F910F900FBE3C
:1028C0000F901F9018951F920F920FB60F92112420
:1028D0002F933F934F935F936F937F938F939F9328
:1028E000AF93BF93EF93FF9389B1809386020E94C9
:1028F00073136B5F7F4F8F4F9F4F6093880270936E
:10290000890280938A0290938B02FF91EF91BF918D
:10291000AF919F918F917F916F915F914F913F9177
:102920002F910F900FBE0F901F901895E0E6F0E0EA
:1029300080818861808381E4808380E290E090934D
:102940007902809378020895E0E6F0E08081886162
:10295000808384E4808380E091E090937902809387
:1029600078020895E0E6F0E080818861808381E666
:10297000808380E090E290937902809378020895BA
:1029800010927A00E4E6F0E090818FEF808383B7C5
:10299000816083BF80E685BF80E485BF889583B76B
:1029A0008E7F83BF9093640008951F920F920FB69D
:1029B0000F9211242F933F938F939F93AF93BF93C5
:1029C00080918C0290918D02A0918E02B0918F0225
:1029D0002091780230917902820F931FA11DB11DC1
:1029E00080938C0290938D02A0938E02B0938F02FD
:1029F000BF91AF919F918F913F912F910F900FBEFB
:102A00000F901F9018958FEF80937A0280937B022E
:102A10008093800280938102809386028093870254
:102A200008950895FC01718360838281887F828389
:102A30000895CF93DF93EB0181E992E00E942D0688
:102A4000C817D90748F0AE0160E070E081E992E074
:102A5000DF91CF910C948A05DF91CF910895677033
:102A6000FC012281287F262B228323B7217F24602B
:102A700023BF60ED77E00C941915CF93DF93EC0141
:102A80008A81877009F475C081E992E00E94D904B7
:102A9000882309F46EC088819981FC01EB5BFF4FAC
:102AA000208120FD66C0E55AFF4F208120FD61C0D6
:102AB0003497208120FD5DC07F96208120FD59C084
:102AC0002A8127702130D9F4895A9F4F0E94F20A37
:102AD0009A8180FB95F99A83892F8872803219F444
:102AE00098609A830CC0883229F4977F9A8364EFA8
:102AF00071E03AC0883019F48A81877F8A8388819F
:102B00009981895A9F4F0E94A4098881998160E028
:102B100070E0835B9F4F0E94CF18F8948A818F707A
:102B2000813011F40E94A4148A818F70893011F4CD
:102B30000E9496148A818770823011F40E94A41436
:102B40008A818770833011F40E94B21478940E94B5
:102B5000C0148A818770843029F0809160008F7B57
:102B60008093600066E070E0CE01DF91CF910C941D
:102B70001915DF91CF91089508950F931F93CF9367
:102B8000DF93EC018B010E94FD126DED70E081EA94
:102B900092E00E94DB1B1FAF0EAFDDAFCCAFDF9129
:102BA000CF911F910F910895AF92BF92CF92DF9274
:102BB000EF92FF920F931F93CF93DF931F92CDB7A6
:102BC000DEB75C01AC01495F5F4FBC016C5F7F4FBA
:102BD000DC01DE968D919C91DF970E940611182FE3
:102BE000682F81EA92E00E94001C6AED70E081EAA1
:102BF00092E00E94DB1B60E081EA92E00E94001CF0
:102C0000F12CD501DC96ED91FC91DD97408150E0EF
:102C10002F2D30E0421753079CF12417350714F489
:102C200000E201C000E0E20FF31F2081822F8F70CD
:102C3000482F50E04A30510514F047E301C040E30B
:102C4000480F30E084E0359527958A95E1F72A30E2
:102C5000310514F067E301C060E3620F81EA92E09E
:102C600049830E94001C4981642F81EA92E00E94FE
:102C7000001C602F81EA92E00E94001CF394C1CFF7
:102C800060E081EA92E00E94001C60E281EA92E04A
:102C90000E94001C60E081EA92E00E94001C0E94F9
:102CA00073136B017C0168E281EA92E00E94001CD0
:102CB0002AE030E0B701A60181EA92E00E94601CA0
:102CC00069E281EA92E00E94001C6AE081EA92E0F7
:102CD0000E94001C1C36E9F01537D9F0D501129678
:102CE0009C9112978C9196FF0BC09091960298132D
:102CF00007C066EC70E081EA92E00E94DB1B09C02D
:102D000080939602D501DE968D919C91DF970E946B
:102D10006B06F50110820F90DF91CF911F910F91FB
:102D2000FF90EF90DF90CF90BF90AF900895CF923B
:102D3000DF92EF92FF920F931F93CF93C62FE62F50
:102D4000F0E031975DE05E9FD0015F9FB00D1124F0
:102D5000FD01E95AFD4F60834183AD01425A5D4F49
:102D60006A01D90112964D915D916D917C911597F3
:102D7000D60112964D935D936D937C931597D9016F
:102D80002D913C91D6012D933C9314830383F682BD
:102D9000E58220E041E06C2FFC01808191810E945E
:102DA000AD0DCF911F910F91FF90EF90DF90CF90DD
:102DB00008950895FC01718360830895EF920F9345
:102DC0001F93CF93DF93C0E0DDE080910601C81729
:102DD00070F5DC9FF0011124DF01A95ABD4F8C91E1
:102DE000882319F1E25AFD4FA081B18142815381BC
:102DF00064817581CB019595879560FF0CC0FD01BD
:102E0000E80FF91F0190F081E02DE40FF51F01900C
:102E1000F081E02D01C0FA01E12C00E010E020E09B
:102E200040E060E08A0F9B1F0995CF5FCECFDF9116
:102E3000CF911F910F91EF90089508950F931F93D5
:102E4000CF93DF93EC018B010E94FD1266EF70E0DF
:102E500081EA92E00E94DB1B1D830C83FE01EE5B86
:102E6000FF4F2696D183C083DF91CF911F910F91A1
:102E70000895AF92BF92CF92DF92EF92FF920F939D
:102E80001F93CF93DF931F92CDB7DEB75C01DC01B8
:102E900012968C91129781110CC018968C911897EC
:102EA00085FF04C083E012968C9303C081E0F50196
:102EB0008283D50111969C91119712968C91981747
:102EC00008F0D7C087E992E00E94D904882309F46A
:102ED000D0C0F5018085806880870480F581E02D71
:102EE000E456FF4F908190FF04C090FB82F9F501FA
:102EF0008087F501EC5BFF4F80818D7F8083D5015A
:102F000017968C91179713968C93139711968C9113
:102F100011978F5F11968C9343E06CE271E0C501CD
:102F20000D960E94F70F85010E5B1F4FF50124815E
:102F300035818823A9F0D8016D917C91F901E8567B
:102F4000FF4FDB014C9150E04F5F5F4F80819181DB
:102F50000E94581D8FEFF501818362EF70E02EC053
:102F6000408542954170F80160817181C9014983B2
:102F70000E94BE04E898D8016D917C91F50184818E
:102F800095814981895A9F4F0E94190AE89AD80170
:102F90006D917C91F501848195810E94A504D501F4
:102FA00018968C9185FF08C04CE251E060E070E01B
:102FB00087E992E00E948A056EEE70E081EA92E075
:102FC0000E94DB1BF50184819581835B9F4FDC01AF
:102FD0002C9120FD04C064E070E00E94CF1860E0F6
:102FE00081EA92E00E94001CF12CD801ED91FC9145
:102FF000208130E08F2D90E028173907A4F1821747
:1030000093071CF440E2E42E01C0E12CE80FF91F05
:103010008081982F9F70292F30E02A30310514F0DD
:1030200027E301C020E3290F90E034E095958795D0
:103030003A95E1F78A30910514F067E301C060E347
:10304000680F81EA92E029830E94001C2981622F87
:1030500081EA92E00E94001C6E2D81EA92E00E94BB
:10306000001CF394C2CF60E081EA92E00E94001C51
:103070002EC0D50111969C91119712968C9198179C
:1030800008F44AC087E992E00E94D904882309F431
:1030900043C0F50111821282EC5BFF4F80818E7F6D
:1030A0008083D50118969C9195FF67C082608083CC
:1030B000F5018481958166E070E0835B9F4F0E94FB
:1030C000CF1862EE70E081EA92E00E94DB1B60E2C2
:1030D00081EA92E00E94001C60E081EA92E00E9496
:1030E000001C0E9473136B017C0168E281EA92E08C
:1030F0000E94001C2AE030E0B701A60181EA92E0BC
:103100000E94601C69E281EA92E00E94001C6AE071
:1031100081EA92E00E94001CD50111968C911197D2
:103120008F3F59F5F501EC5BFF4F808111961C92A2
:10313000119712961C928D7F8E7F808340E050E025
:10314000BA0187E992E00E948A05F50184819581A0
:10315000835B9F4FDC012C9120FD0FC065E070E088
:103160000F90DF91CF911F910F91FF90EF90DF9023
:10317000CF90BF90AF900C94CF180F90DF91CF916C
:103180001F910F91FF90EF90DF90CF90BF90AF9085
:1031900008950895FC015283418365830895CF9378
:1031A000DF93EC018D81882309F451C05E985C980F
:1031B0006130710519F487E691E02FC06230710526
:1031C00019F480E691E029C06330710519F489E5AE
:1031D00091E023C06430710519F482E591E01DC0CF
:1031E0006530710519F48BE491E017C06630710504
:1031F00019F484E491E011C06730710519F48DE38E
:1032000091E00BC06830710519F486E391E005C0C8
:103210006930710521F48FE291E09C838B83888172
:10322000816088838E81807C88608E83EB81FC81C5
:103230008081877011F0672B51F440E050E0BA01B3
:103240008CE992E00E948A0588818E7F8883DF91D5
:10325000CF910895CF93DF93EC01888180FF74C0F4
:103260008CE992E00E94D904882309F46DC0EB81B7
:10327000FC818E818770E80FF11D41818AE0489FB3
:10328000A0011124662757FD6095762F8CE992E006
:103290000E948A05EB81FC81808186FF0DC08E81B2
:1032A000982F9770E90FF11D9181992329F080FDE6
:1032B00002C05E9A01C05E98EB81FC81808187FF2D
:1032C0000DC08E81982F9770E90FF11D9181992380
:1032D00029F080FD02C05C9A01C05C986E8141E0DB
:1032E000460F4770687F642B6E83EB81FC8150E052
:1032F0008081282F277030E0421753072CF1982F38
:10330000987311F4687F17C0462F469546954695E9
:103310004770242F30E0869586958695877090E0DB
:103320002817390754F481E0840F8770880F880FBD
:10333000880F607C682B6E8307C060E070E0CE0170
:10334000DF91CF910C94CF18DF91CF910895FC01BC
:10335000818D228D90E0805C9F4F821B910960E4FB
:1033600070E00E94F21C0895FC01918D828D9817E7
:1033700031F0828DE80FF11D858D90E008958FEF7B
:103380009FEF0895FC01918D828D981761F0828DD9
:10339000DF01A80FB11D5D968C91928D9F5F9F7389
:1033A000928F90E008958FEF9FEF089580E49BE166
:1033B000892B49F083E191E0892B29F00E94401B81
:1033C00081110C9413010895FC01848DDF01A80F75
:1033D000B11DA35ABF4F2C91848D90E001968F733D
:1033E0009927848FA689B7892C93A089B1898C915C
:1033F00080648C93938D848D981306C00288F38922
:10340000E02D80818F7D80830895CF93DF93EC0141
:10341000888D8823C9F0EA89FB89808185FD05C0F4
:10342000A889B9898C9186FD0FC00FB607FCF5CF2E
:10343000808185FFF2CFA889B9898C9185FFEDCF76
:10344000CE010E94E419E7CFDF91CF910895CF928A
:10345000DF92FF920F931F93CF93DF931F92CDB70D
:10346000DEB76C01DC015B969C915B975C968C915E
:103470005C97981307C05096ED91FC91519780810D
:1034800085FD32C0F601038D10E00F5F1F4F0F73F3
:103490001127F02EF601848DF81211C00FB607FC2B
:1034A000F9CFD6015096ED91FC915197808185FF1F
:1034B000F1CFC60169830E94E4196981EBCF838D46
:1034C000E80FF11DE35AFF4F6083D6015B960C9322
:1034D0005B975296ED91FC91539780818062808337
:1034E00081E058968C930DC0D6015696ED91FC91D3
:1034F000579760835096ED91FC915197808180643D
:10350000808381E090E00F90DF91CF911F910F9128
:10351000FF90DF90CF900895BF92CF92DF92EF920D
:10352000FF92CF93DF93EC016A017B01B22E60E83A
:1035300074E88EE190E0A70196010E94061D2150DB
:103540003109410951095695479537952795E889DD
:10355000F98982E08083211580E1380798F0E889B5
:10356000F989108260E472E48FE090E0A70196018F
:103570000E94061D21503109410951095695479570
:1035800037952795EC85FD853083EE85FF85208373
:10359000188EEC89FD89B082EA89FB89808180617F
:1035A0008083EA89FB89808188608083EA89FB893E
:1035B000808180688083EA89FB8980818F7D808318
:1035C000DF91CF91FF90EF90DF90CF90BF90089563
:1035D0001F920F920FB60F9211242F938F939F93E8
:1035E000EF93FF93E091B102F091B2028081E091FC
:1035F000B702F091B80282FD12C090818091BA02A8
:103600008F5F8F732091BB02821751F0E091BA0255
:10361000F0E0EF55FD4F958F8093BA0201C0808195
:10362000FF91EF919F918F912F910F900FBE0F906F
:103630001F9018951F920F920FB60F9211242F937F
:103640003F934F935F936F937F938F939F93AF932A
:10365000BF93EF93FF9381EA92E00E94E419FF91F8
:10366000EF91BF91AF919F918F917F916F915F91FA
:103670004F913F912F910F900FBE0F901F90189573
:1036800081EA92E00E94A71921E0892B09F420E049
:10369000822F08951092A4021092A30288EE93E064
:1036A000A0E0B0E08093A5029093A602A093A702A9
:1036B000B093A80282E791E09093A2028093A102C6
:1036C00085EC90E09093AE028093AD0284EC90E0A4
:1036D0009093B0028093AF0280EC90E09093B2029E
:1036E0008093B10281EC90E09093B4028093B30296
:1036F00082EC90E09093B6028093B50286EC90E065
:103700009093B8028093B7021092BA021092BB0253
:103710001092BC021092BD02089508950E94B71C39
:103720000E948D1B0E94AB00C6EDD9E10E94FF00F4
:103730002097E1F30E94D619F9CFCF92DF92EF9252
:10374000FF920F931F93CF93DF936C017A01EB01EC
:10375000E60EF71E00E010E0CE15DF0561F069917E
:10376000D601ED91FC910190F081E02DC601099503
:10377000080F191FF1CFC801DF91CF911F910F9151
:10378000FF90EF90DF90CF9008956115710581F063
:10379000DB010D900020E9F7AD0141505109461BB6
:1037A000570BDC01ED91FC910280F381E02D09942F
:1037B00080E090E00895EF92FF920F931F93CF93D4
:1037C000DF938C01FB01C0E0D0E064917F018FEFBB
:1037D000E81AF80A662361F0D801ED91FC91019096
:1037E000F081E02DC8010995C80FD91FF701EDCF71
:1037F000CE01DF91CF911F910F91FF90EF9008952F
:10380000DC01ED91FC910190F081E02D09948F9203
:103810009F92AF92BF92CF92DF92EF92FF920F935F
:103820001F93CF93DF93CDB7DEB7A1970FB6F89470
:10383000DEBF0FBECDBF7C01C42EE52FCB01D22E43
:1038400019A221E02D1510F02AE0D22E8E010F5D75
:103850001F4F8D2C912CA12CB12C6C2D7E2FA501EE
:1038600094010E94061D8C2DD29E801911240150B6
:1038700011098A3014F4805D01C0895CF8018083ED
:10388000211531054105510521F0C22EE32FCA0152
:10389000E4CFB801C7010E94C51BA1960FB6F894EA
:1038A000DEBF0FBECDBFDF91CF911F910F91FF9073
:1038B000EF90DF90CF90BF90AF909F908F90089542
:1038C0002115310541F4DC01ED91FC910190F0816D
:1038D000E02D642F09940C94071C1F920F920FB6D1
:1038E0000F9211242F933F938F939F93AF93BF9386
:1038F00080913F0390914003A0914103B091420316
:1039000030913E0326E0230F2D3720F40296A11DAF
:10391000B11D05C029E8230F0396A11DB11D2093F9
:103920003E0380933F0390934003A0934103B093E1
:1039300042038091430390914403A0914503B091C9
:1039400046030196A11DB11D809343039093440348
:10395000A0934503B0934603BF91AF919F918F9180
:103960003F912F910F900FBE0F901F901895789454
:1039700084B5826084BD84B5816084BD85B5826074
:1039800085BD85B5816085BDEEE6F0E08081816012
:103990008083E1E8F0E01082808182608083808112
:1039A00081608083E0E8F0E0808181608083E1EBEA
:1039B000F0E0808184608083E0EBF0E080818160D2
:1039C0008083EAE7F0E08081846080838081826088
:1039D0008083808181608083808180688083109271
:1039E000C100089597FB072E16F4009407D077FDC9
:1039F00009D00E94281D07FC05D03EF490958195C2
:103A00009F4F0895709561957F4F0895A1E21A2EFA
:103A1000AA1BBB1BFD010DC0AA1FBB1FEE1FFF1F72
:103A2000A217B307E407F50720F0A21BB30BE40BC2
:103A3000F50B661F771F881F991F1A9469F7609509
:103A40007095809590959B01AC01BD01CF010895C3
:103A5000AA1BBB1B51E107C0AA1FBB1FA617B707B4
:103A600010F0A61BB70B881F991F5A95A9F78095D0
:103A70009095BC01CD010895EE0FFF1F0590F491C4
:103A8000E02D0994FB01DC0102C005900D9241502C
:103A90005040D8F70895FB01DC0104C08D910190DE
:103AA000801921F441505040C8F7881B990B0895A4
:103AB000FB01DC0102C001900D9241505040D8F74B
:103AC0000895DC01CB01FC01F999FECF06C0F2BDDF
:103AD000E1BDF89A319600B40D9241505040B8F7CC
:103AE0000895DC01CB0103C02D910E947C1D415043
:103AF0005040D0F70895262FF999FECF1FBA92BDF6
:103B000081BD20BD0FB6F894FA9AF99A0FBE0196BE
:063B10000895F894FFCFB8
:103B160000004703800001038B006E0001069A0037
:103B2600000000060F00010106011500010307163B
:103B36001600746C75313030313233340102048E24
:103B46000A0A320A32645E0A0A0A0A0A645E320AFB
:103B56000A0A0A644A0A01000000008A05010000F8
:103B66000000CA0501000000004AC800000000006D
:103B76008AC80000000000C23232000000000000C7
:0E3B86000000271A9D1BA719C219B419051AB1
:00000001FF
